:020000040800F2
:100000000050002015420008F9050008FB05000813
:10001000FD050008FF0500080106000800000000BB
:10002000000000000000000000000000F1280008AF
:10003000030600080000000091290008D5290008E7
:100040005D4200085D4200085D4200085D42000814
:100050005D4200085D4200085D4200085D42000804
:100060005D4200085D4200085D4200080506000888
:100070005D4200085D4200085D4200085D420008E4
:100080005D4200085D4200085D4200085D420008D4
:100090005D4200085D4200085D4200085D420008C4
:1000A0005D420008150600085D4200085D42000838
:1000B0005D4200085D4200085D4200085D420008A4
:1000C0005D4200085D4200085D4200085D42000894
:1000D0005D420008250600085D4200085D420008F8
:1000E0005D4200085D4200085D420008000000001B
:1000F0000000000000000000000000000000000000
:0C01000000000000000000005FF808F1A3
:1001100010B5054C237833B9044B13B10448AFF341
:1001200000800123237010BD3C040020000000006B
:100130002C44000808B5034B1BB103490348AFF337
:10014000008008BD00000000400400202C4400088E
:10015000844641EA000313F0030349D1403A23D314
:100160000B6803604B6843608B688360CB68C36037
:100170000B6903614B6943618B698361CB69C3611F
:100180000B6A03624B6A43628B6A8362CB6AC36207
:100190000B6B03634B6B43638B6B8363CB6BC363EF
:1001A00040304031403ADBD230320BD30B68036031
:1001B0004B6843608B688360CB68C360103010313C
:1001C000103AF3D20C3205D351F8043B40F8043B0B
:1001D000043AF9D2043208D0D2071CBF11F8013B0F
:1001E00000F8013B01D30B8803806046704700BFD5
:1001F000082A13D38B07B1D010F00303AED0C3F19C
:100200000403D21ADB071CBF11F8013B00F8013BC5
:10021000A4D331F8023B20F8023B9FE7043AD9D33C
:10022000013A11F8013B00F8013BF9D20B78037059
:100230004B7843708B7883706046704700B585B00B
:1002400000230193029303931048114A02608360D4
:10025000037303754FF46022C2614360012303619D
:1002600000F084FC60B901230193029300230393FF
:1002700001A9064800F0ACFB28B905B05DF804FB05
:1002800000F0F6F8EFE700F0F3F8F6E75804002086
:100290000024014010B586B0002302930393049319
:1002A000059302681E4B9A4201D006B010BD044669
:1002B00003F56C439A6942F400729A619A6902F4F8
:1002C00000720092009A9A6942F004029A619B6956
:1002D00003F004030193019B06230293032303937A
:1002E00002A9104800F064FE0F48104B0360002381
:1002F000436083608022C2604FF4007202614FF459
:100300000062426120228261C36100F00BFD18B9D6
:10031000054B23625C62C8E700F0AAF8F8E700BF6B
:100320000024014000080140880400200800024029
:1003300000B583B00A4B5A6942F001025A615B6909
:1003400003F001030193019B002205210B2000F023
:10035000A3FC0B2000F0D8FC03B05DF804FB00BF49
:100360000010024008B5012002F0FEF9FBE7000092
:1003700008B5044A0021044802F080F9034B1860D4
:1003800008BD00BF5044000865030008CC040020ED
:100390002DE9F04188B00024049405940694079454
:1003A000294B9A6942F010029A619A6902F0100290
:1003B0000092009A9A6942F020029A619A6902F0CA
:1003C00020020192019A9A6942F004029A619A69A4
:1003D00002F004020292029A9A6942F008029A61BB
:1003E0009B6903F008030393039BDFF860802246B8
:1003F00041F61801404600F0EDFE154E224601215F
:10040000304600F0E7FE4FF4005304930594069441
:1004100004A9104800F0CCFD41F61803049301250F
:10042000059506940227079704A9404600F0C0FDF1
:10043000049505950694079704A9304600F0B8FD89
:1004400008B0BDE8F08100BF001002400008014084
:10045000000C01400010014008B50268034B9A42AD
:1004600000D008BD00F0A2FAFBE700BF002C01405D
:1004700072B6FEE700B595B0282200210DEB020010
:1004800003F012FF00230593069307930893099343
:10049000019302930393049301220A924FF4803351
:1004A0000B930E920222119212934FF4E0131393C6
:1004B0000AA800F0ABFEC8B90F23059302210691EC
:1004C000002307934FF480620892099305A801F076
:1004D000DDF868B9022301934FF40043039301A8A8
:1004E00001F0CEF930B915B05DF804FBFFF7C0FF9D
:1004F000FFF7BEFFFFF7BCFF08B500F045FAFFF7B6
:10050000B9FFFFF745FFFFF799FE00F083F900F010
:1005100093F800F0C3F8FFF70BFF00F0CFF902F0FB
:1005200065F8FFF725FF02F083F8FEE700B583B01A
:10053000114B9A6942F001029A619A6902F0010234
:100540000092009ADA6942F08052DA61DB6903F0C6
:1005500080530193019B00220F216FF0010000F0F6
:100560009BFB064A536823F0E06343F0007353603B
:1005700003B05DF804FB00BF001002400000014022
:1005800000B589B001460022192000F085FB192032
:1005900000F0BAFB144B9A6942F400629A619B69BD
:1005A00003F400630193019B02A903A801F04AF937
:1005B00001F038F90D4BA3FB00239B0C013B0C48C9
:1005C0000C4A026040F2E732C260436000230361DC
:1005D000836001F0C3FB18B1012009B05DF804FB92
:1005E000034801F08BFAF8E70010024083DE1B435A
:1005F000D0040020002C0140FEE7FEE7FEE7FEE706
:10060000FEE7704708B5024800F030FC08BD00BFA7
:100610008804002008B5024801F0A9FA08BD00BF0F
:10062000D004002008B5024801F0DEFE08BD00BF7E
:10063000F00500207047000000B58DB02422002195
:1006400003A803F031FE0023019302931148124ADC
:100650000260436083604FF6FF72C2600361836192
:10066000012303930593099303A901F0CFFB50B92C
:1006700000230193029301A9064801F037FD28B930
:100680000DB05DF804FBFFF7F3FEF1E7FFF7F0FEB6
:10069000F6E700BF600500200004004000B587B009
:1006A000002302930393049305930093019314484A
:1006B000144A0260436083604FF6FF72C2600361B8
:1006C000836101F04BFB90B94FF48053029302A970
:1006D0000B4801F09DFC68B9002300930193694623
:1006E000074801F003FD40B907B05DF804FBFFF7D0
:1006F000BFFEE9E7FFF7BCFEEEE7FFF7B9FEF3E761
:10070000A80500200008004082B00368B3F1804FC4
:1007100004D00E4A93420DD002B0704703F5043363
:10072000DA6942F00102DA61DB6903F00103009348
:10073000009BF1E7064BDA6942F00402DA61DB69FB
:1007400003F004030193019BE6E700BF00080040AB
:100750000010024000B587B0002302930393049376
:1007600005930268104B9A4202D007B05DF804FB73
:1007700003F50333DA6942F00202DA61DA6902F062
:1007800002020092009A9A6942F004029A619B69FF
:1007900003F004030193019BC023029302A90348C1
:1007A00000F006FCE1E700BF000400400008014043
:1007B00000B587B000230293039304930593036865
:1007C000B3F1804F02D007B05DF804FB03F50433AA
:1007D0009A6942F004029A619B6903F00403019351
:1007E000019B4FF40043029302230393059302A954
:1007F000064800F0DDFB064A536823F4407343F0DB
:10080000E06343F480735360DDE700BF00080140FC
:100810000000014000B58FB000230A930B930C93A6
:100820000D93089309930193029303930493059303
:100830000693079320484FF08042026047224260AF
:1008400083603122C2600361836101F087FA20BBBB
:100850004FF480530A930AA9174801F0D9FBF8B95D
:10086000154801F0A7FAF0B900230893099308A9E5
:10087000114801F03BFCC8B96023019300220292A9
:100880000392059201A90C4801F04EFB88B90A4871
:10089000FFF78EFF0FB05DF804FBFFF7E9FDD7E728
:1008A000FFF7E6FDDCE7FFF7E3FDDDE7FFF7E0FD3F
:1008B000E2E7FFF7DDFDEAE71805002008B50A4882
:1008C0000A4B03604FF4E133436000238360C3604D
:1008D00003610C2242618361C36101F0D3FC00B962
:1008E00008BDFFF7C5FDFBE7F0050020003801401B
:1008F00030B587B0002302930393049305930268F5
:100900001E4B9A4201D007B030BD03F558439A6997
:1009100042F480429A619A6902F480420092009AFD
:100920009A6942F008029A619B6903F008030193F7
:10093000019B402302930223039303230593104D4D
:1009400002A9284600F034FB80230293002403947C
:10095000049402A9284600F02BFB0A4A536843F08E
:10096000E06343F00403536022460521252000F094
:1009700093F9252000F0C8F9C5E700BF0038014011
:10098000000C01400000014008B5074A136843F01D
:1009900010031360032000F06DF90F20FFF7F0FD46
:1009A000FFF7C4FD002008BD00200240034A116883
:1009B000034B1B780B441360704700BF34060020C4
:1009C00004000020014B1868704700BF3406002067
:1009D00030B482B00022019290F82420012A00F065
:1009E00091800346012280F824204A68062A2DD8E7
:1009F0000468606B02EB8202053A4FF01F0C0CFAA0
:100A000002FC20EA0C000D6805FA02F20243626360
:100A10000A68092A3AD91C68E06802EB42021E3AC9
:100A20004FF0070C0CFA02FC20EA0C008D6805FA66
:100A300002F20243E2600A68103A012A36D9002025
:100A4000002283F8242002B030BC70470C2A0ED854
:100A50000568286B02EB8202233A1F24944020EAA7
:100A600004000C6804FA02F202432A63D0E7056826
:100A7000E86A02EB8202413A1F24944020EA040013
:100A80000C6804FA02F20243EA62C1E71C682069BA
:100A900002EB42024FF0070C0CFA02FC20EA0C00B9
:100AA0008D6805FA02F202432261C4E71A6816480B
:100AB000824205D09A6A42F020029A620120BFE782
:100AC000906810F4000F1BD1906840F40000906013
:100AD0000A68102A01D00020B2E70C4A12680C49BB
:100AE000A1FB0212920C02EB82025200019202E080
:100AF000019A013A0192019A002AF9D100209FE758
:100B000000209DE702209EE7002401400000002015
:100B100083DE1B4338B503689A6812F0010F01D1D8
:100B2000002038BD04469A6822F001029A60FFF75F
:100B300049FF054623689B6813F0010F13D0FFF7A8
:100B400041FF431B022BF5D923689B6813F0010F6B
:100B5000F0D0A36A43F01003A362E36A43F00103F9
:100B6000E3620120DDE70020DBE7000000287BD006
:100B700070B50446836A002B4DD02046FFF7CAFFAC
:100B8000A36A13F0100369D1002867D1A26A22F486
:100B9000885222F0020242F00202A2626268E16917
:100BA0000A43217B42EA4102A568B5F5807F02D065
:100BB000012D36D01D46267D012E35D02668716860
:100BC00021F46941294371602568AE6827493140A5
:100BD0001143A960A168B1F5807F01D0012902D13C
:100BE0002369013B1B052568E96A21F470010B4369
:100BF000EB62236899681E4B0B409A4225D0A36A8A
:100C000023F0120343F01003A362E36A43F00103ED
:100C1000E362012027E0C36280F82430FFF73AFB4B
:100C2000ABE74FF48075C6E731B9A169013945EAF0
:100C3000413141F40065C1E7A16A41F02001A162A0
:100C4000E16A41F00101E162B8E70023E362A36ACF
:100C500023F0030343F00103A36204E0A36A43F01B
:100C60001003A362012070BD01207047FDF7E1FF72
:100C7000FE0E1FFF074AD36823F4E0631B041B0C1E
:100C8000000200F4E060034343F0BF6343F4003329
:100C9000D360704700ED00E000B5194BDB68C3F38B
:100CA0000223C3F1070CBCF1040F28BF4FF0040C62
:100CB00003F1040EBEF1060F18D9033B4FF0FF3EBF
:100CC0000EFA0CFC21EA0C0199400EFA03F322EA19
:100CD0000303194300280BDB0901C9B200F160408E
:100CE00000F5614080F800135DF804FB0023E5E7A0
:100CF00000F00F000901C9B2024B1954F4E700BF1C
:100D000000ED00E014ED00E0002807DB00F01F021A
:100D1000400901239340024A42F82030704700BF47
:100D200000E100E060B310B402460168154B0B44CB
:100D30001548A0FB03031B099B001364134BD363EB
:100D4000022382F82130086820F47F5020F0300020
:100D5000536894682343D468234314692343546934
:100D6000234394692343D469234303430B60002046
:100D70009063012382F8213082F8200010BC704774
:100D800001207047F8FFFDBFCDCCCCCC0000024065
:100D900090F82130022B06D004238363002380F8CF
:100DA0002030012070470268136823F00E0313609F
:100DB0000268136823F001031360036CC16B012206
:100DC00002FA03F34B6080F82120002380F82030E2
:100DD0001846704708B590F82130022B03D0042341
:100DE0008363012008BD0268136823F00E031360BB
:100DF0000268136823F0010313600368194A9342E1
:100E000014D0143293421FD0143293421ED01432A5
:100E100093421ED0143293421ED01432934202D019
:100E20004FF0807203E04FF4801200E001220E4B7D
:100E30005A60012380F82130002380F82030436B72
:100E40006BB198470020CDE71022F0E74FF4807295
:100E5000EDE74FF48052EAE74FF48032E7E70020F5
:100E6000C0E700BF080002400000024038B5C36B75
:100E70001A6804682568016C04238B40134235D03E
:100E800015F0040F32D0236813F0200F03D123682C
:100E900023F0040323600368434A934214D01432BE
:100EA000934218D01432934217D01432934217D081
:100EB0001432934217D01432934202D04FF0806222
:100EC00003E04FF4800200E00422384B5A60C36A0A
:100ED00003B1984738BD4022F7E74FF48062F4E74A
:100EE0004FF48042F1E74FF48022EEE702238B407B
:100EF00013423CD015F0020F39D0236813F0200FB5
:100F000006D1236823F00A032360012380F82130EF
:100F10000368254A934214D0143293421CD01432F1
:100F200093421BD0143293421BD0143293421BD0F5
:100F30001432934202D04FF0007203E04FF40012DB
:100F400000E00222194B5A60002380F82030836AA7
:100F5000002BBFD09847BDE72022F3E74FF4007283
:100F6000F0E74FF40052EDE74FF40032EAE70823D0
:100F700003FA01F11142ADD015F0080FAAD0236891
:100F800023F00E032360026CC16B012303FA02F20B
:100F90004A60836380F82130002380F82030036B9F
:100FA000002B97D0984795E70800024000000240C8
:100FB00070B582B00024A446A6E0804DAA4210D0AD
:100FC00007D97F4DAA420CD005F58035AA4208D03A
:100FD00013E0A5F58015AA4203D005F57025AA42B5
:100FE00007D18A68002A58D0012A51D043610824C9
:100FF00003E0A5F58015AA42F3D0BEF1FF0F4ED84D
:101000000646BEF1FF0F4CD84FEA8C0233680F251D
:10101000954023EA050304FA02F2134333604B6858
:1010200013F0805F6ED0674B9A6942F001029A61BB
:101030009B6903F001030193019B4FEA9C02951CFD
:10104000614B53F825600CF003039D000F23AB4068
:1010500026EA03065D4B984229D003F58063984247
:1010600000F08E8003F58063984200F08B8003F5DA
:101070008063984219D004231AE0CC68BDE7CC689D
:101080000434BAE7CC680834B7E7CC680C34B4E76A
:1010900003610824B1E70024AFE70424ADE7061D8F
:1010A000AFE7ACF108029200B0E7032300E00023B1
:1010B000AB4033430232444D45F822304B6813F4C1
:1010C000803F61D0424A136843EA0E0313604B68C5
:1010D00013F4003F5ED03E4A536843EA0E03536068
:1010E0004B6813F4801F5BD0394A936843EA0E03C0
:1010F00093604B6813F4001F58D0354AD36843EA15
:101100000E03D3600CF1010C0A6832FA0CF353D0D1
:10111000012303FA0CF302EA030E33EA0202F1D1CF
:101120004A68122A3FF649AF122A3FF666AF01A578
:1011300055F822F0E30F00087B1000088510000826
:1011400097100008FB0F0008FB0F0008FB0F0008BA
:10115000FB0F0008FB0F0008FB0F0008FB0F000847
:10116000FB0F0008FB0F0008FB0F0008FB0F000837
:10117000FB0F0008FB0F00087F1000088B10000811
:10118000012395E7022393E7114A136823EA0E032C
:1011900013609CE70E4A536823EA0E0353609FE7EF
:1011A0000B4A936823EA0E039360A2E7084AD368C8
:1011B00023EA0E03D360A5E702B070BD0000221041
:1011C0000000311000100240000001400008014002
:1011D000000401400AB101617047090401617047D0
:1011E00082B0084B1B68084AA2FB03235B0A00FB82
:1011F00003F3019300BF019B5A1E0192002BF9D10A
:1012000002B0704700000020D34D6210002800F0AB
:10121000F18170B582B00446036813F0010F2CD041
:10122000994B5B6803F00C03042B1DD0964B5B6855
:1012300003F00C03082B12D06368B3F5803F41D054
:10124000002B55D103F1804303F504331A6822F4CF
:1012500080321A601A6822F480221A6037E08A4BC2
:101260005B6813F4803FE7D0874B1B6813F4003FA3
:1012700003D06368002B00F0BF81236813F0020FD6
:1012800075D0814B5B6813F00C0F5FD07E4B5B68B1
:1012900003F00C03082B54D02369002B00F08A8044
:1012A0007A4B01221A60FFF78DFB0546764B1B68CF
:1012B00013F0020F75D1FFF785FB401B0228F5D90B
:1012C00003209EE1704A136843F48033136063681F
:1012D00043B3FFF777FB05466B4B1B6813F4003FE6
:1012E000CBD1FFF76FFB401B6428F5D9032088E1C1
:1012F000B3F5A02F09D0644B1A6822F480321A602B
:101300001A6822F480221A60E1E703F18043A3F512
:101310003C331A6842F480221A601A6842F4803220
:101320001A60D4E7FFF74EFB0546574B1B6813F4D2
:10133000003FA2D0FFF746FB401B6428F5D90320ED
:101340005FE1514B5B6813F4803FA5D14E4B1B68A6
:1013500013F0020F03D02369012B40F04F814A4A5A
:10136000136823F0F803616943EAC103136023683B
:1013700013F0080F33D0A369002B5CD0434B01223C
:10138000C3F88024FFF71EFB05463F4B5B6A13F052
:10139000020F21D1FFF716FB401B0228F5D90320CD
:1013A0002FE1394A136823F0F803616943EAC10366
:1013B0001360DCE7354B00221A60FFF703FB05469C
:1013C000314B1B6813F0020FD1D0FFF7FBFA401B23
:1013D0000228F5D9032014E10120FFF701FF23685B
:1013E00013F0040F00F09680274BDB6913F0805F49
:1013F00034D1254BDA6942F08052DA61DB6903F0BF
:1014000080530193019B0125214B1B6813F4807FBE
:1014100026D0E368012B3DD0002B53D103F180434C
:1014200003F504331A6A22F001021A621A6A22F0E2
:1014300004021A6233E0154B0022C3F88024FFF740
:10144000C1FA0546104B5B6A13F0020FC7D0FFF7D5
:10145000B9FA401B0228F5D90320D2E00025D3E7D2
:101460000B4A136843F480731360FFF7ABFA064628
:10147000074B1B6813F4807FCBD1FFF7A3FA801BC7
:101480006428F5D90320BCE000100240000042426D
:10149000007000405F4A136A43F001031362E3687F
:1014A00033B3FFF78FFA06465A4B1B6A13F0020F4D
:1014B0002FD1FFF787FA801B41F288339842F3D986
:1014C00003209EE0052B09D0524B1A6A22F001023C
:1014D0001A621A6A22F004021A62E0E74D4B1A6A95
:1014E00042F004021A621A6A42F001021A62D6E756
:1014F000FFF768FA0646474B1B6A13F0020F08D045
:10150000FFF760FA801B41F288339842F3D9032039
:1015100077E0E5B9E369002B72D03E4A526802F0E9
:101520000C02082A56D0022B17D03B4B00221A6619
:10153000FFF748FA0446374B1B6813F0007F47D08B
:10154000FFF740FA001B0228F5D9032059E0314A81
:10155000D36923F08053D361DCE72F4B00221A6656
:10156000FFF730FA05462B4B1B6813F0007F06D0BF
:10157000FFF728FA401B0228F5D9032041E0236A2F
:10158000B3F5803F1AD023494B6823F47413226AC1
:10159000606A024313434B601F4B01221A66FFF738
:1015A00011FA04461B4B1B6813F0007F0ED1FFF7A6
:1015B00009FA001B0228F5D9032022E0154A5368D6
:1015C00023F40033A1680B435360DCE7002018E0EC
:1015D000002016E0012B16D00E4B5B6803F480311F
:1015E000226A914211D103F47013626A93420ED1C0
:1015F000002006E001207047012002E0012000E009
:10160000002002B070BD0120FBE70120F9E70120B6
:10161000F7E700BF001002400000424286B0174BBF
:101620000FCB0DF1180C0CE90F0040F20123ADF8BF
:101630000430134B5B6803F00C02082A02D01148F7
:1016400006B07047C3F3834218326A4412F8100C94
:1016500013F4803F0DD00A4B5B68C3F3404318334B
:101660006B4413F8143C074A02FB00F0B0FBF3F0A4
:10167000E6E7054B03FB00F0E2E700BF8C440008FF
:101680000010024000127A0000093D00002800F01E
:10169000A08070B50D460446524B1B6803F007034B
:1016A0008B420BD24F4A136823F007030B4313609E
:1016B000136803F007038B4240F08D80236813F01A
:1016C000020F17D013F0040F04D0474A536843F4B5
:1016D000E0635360236813F0080F04D0424A536854
:1016E00043F460535360404A536823F0F003A16809
:1016F0000B435360236813F0010F31D06368012B53
:1017000020D0022B25D0384A126812F0020F64D084
:1017100035494A6822F0030213434B60FFF752F940
:101720000646314B5B6803F00C036268B3EB820F33
:1017300016D0FFF747F9801B41F288339842F0D961
:10174000032045E0284A126812F4003FE0D101204E
:101750003EE0254A126812F0007FD9D1012037E01F
:10176000204B1B6803F00703AB420AD91D4A1368DC
:1017700023F007032B431360136803F00703AB4206
:101780002DD1236813F0040F06D0174A536823F4B1
:10179000E063E1680B435360236813F0080F07D040
:1017A000114A536823F46053216943EAC10353602B
:1017B000FFF734FF0C4B5B68C3F303130B4AD35C96
:1017C000D8400B4B18600B4B1868FEF7D9FE002071
:1017D00070BD012070470120FAE70120F8E70120E1
:1017E000F6E700BF002002400010024074440008E9
:1017F0000000002008000020014B1868704700BF5F
:101800000000002008B5FFF7F7FF044B5B68C3F347
:101810000223034AD35CD84008BD00BF0010024039
:101820008444000808B5FFF7E7FF044B5B68C3F387
:10183000C223034AD35CD84008BD00BF0010024059
:10184000844400080F2303600B4B5A6802F0030224
:1018500042605A6802F0F00282605A6802F4E06264
:10186000C2605B68DB0803F4E0630361034B1B6841
:1018700003F007030B607047001002400020024095
:1018800070B582B00446036813F0010F36D03F4BA9
:10189000DB6913F0805F49D13C4BDA6942F080523A
:1018A000DA61DB6903F080530193019B0125384B1A
:1018B0001B6813F4807F3BD0344B1B6A13F44073D6
:1018C00013D0626802F440729A420ED02F4A136A13
:1018D00023F440702F490126C1F840640026C1F866
:1018E0004064106213F0010F36D1284A136A23F4C2
:1018F000407361680B431362002D3ED1236813F0DF
:10190000020F06D0214A536823F44043A1680B43D9
:101910005360236813F0100F34D01C4A536823F42B
:101920008003E1680B43536000202CE00025BEE7F4
:10193000174A136843F480731360FFF743F80646B1
:10194000134B1B6813F4807FB6D1FFF73BF8801B65
:101950006428F5D9032016E0FFF734F806460B4B50
:101960001B6A13F0020FC0D1FFF72CF8801B41F265
:1019700088339842F3D9032005E0D36923F08053DC
:10198000D361BBE7002002B070BD00BF0010024071
:10199000007000400000424270B4036A23F001036B
:1019A0000362036A4668826922F073020C6844EAA3
:1019B000020523F002028B6813430D4CA04209D0AC
:1019C0000B4CA0420DD0466085614A6842630362B9
:1019D00070BC704723F00803CA68134323F0040364
:1019E000EEE726F440764A6932438E691643EAE709
:1019F000002C014030B4036A23F480730362036A4D
:101A00004568C26922F073020C68224323F4007314
:101A10008C6843EA04230F4CA04209D00D4CA0422D
:101A20000ED04560C2614A68C263036230BC704731
:101A300023F40063CC6843EA042323F48063EDE7D6
:101A400025F440554C6945EA04158C6945EA0415AE
:101A5000E7E700BF002C014030B4036A23F4805351
:101A60000362036A4468C26922F4E6420D6842EAEE
:101A7000052223F400538D6843EA0533074DA8423D
:101A800006D04460C2614A680264036230BC704799
:101A900024F480444D6944EA8514F2E7002C0140A7
:101AA00010B4036A046A24F001040462846924F017
:101AB000F00C4CEA021223F00A030B43826103622A
:101AC00010BC704710B4046A24F0100404628469E6
:101AD000036A24F4704C4CEA023223F0A00343EA78
:101AE00001138261036210BC7047836823F07003A6
:101AF0000B4343F0070383607047000090F83D30CC
:101B0000DBB2012B27D1022380F83D300268D36875
:101B100043F00103D3600368114A934210D0B3F13C
:101B2000804F0DD0A2F59432934209D002F5806225
:101B3000934205D01A6842F001021A6000207047F3
:101B40009A6802F00702062A07D01A6842F00102DA
:101B50001A6000207047012070470020704700BFC6
:101B6000002C01407047704770477047704710B5B0
:101B7000044603681A6912F0020F11D0DA6812F0F5
:101B8000020F0DD06FF002021A6101230377036880
:101B90009B6913F0030F70D0FFF7E6FF0023237754
:101BA00023681A6912F0040F12D0DA6812F0040FD9
:101BB0000ED06FF004021A610223237723689B6919
:101BC00013F4407F5FD02046FFF7CEFF002323773A
:101BD00023681A6912F0080F12D0DA6812F0080FA1
:101BE0000ED06FF008021A61042323772368DB69A3
:101BF00013F0030F4ED02046FFF7B6FF00232377E4
:101C000023681A6912F0100F12D0DA6812F0100F60
:101C10000ED06FF010021A61082323772368DB6966
:101C200013F4407F3DD02046FFF79EFF002323772B
:101C300023681A6912F0010F03D0DA6812F0010F5D
:101C400036D123681A6912F0800F03D0DA6812F0D7
:101C5000800F34D123681A6912F0400F03D0DA687C
:101C600012F0400F32D123681A6912F0200F03D00E
:101C7000DA6812F0200F30D110BDFFF774FF204654
:101C8000FFF773FF8AE72046FFF76DFF2046FFF757
:101C90006CFF9BE72046FFF766FF2046FFF765FFD6
:101CA000ACE72046FFF75FFF2046FFF75EFFBDE78A
:101CB0006FF001021A612046FEF7CEFBC1E76FF01C
:101CC00080021A61204600F048FAC3E76FF0400234
:101CD0001A612046FFF74AFFC5E76FF020021A613C
:101CE000204600F039FAC7E703681B4A90420AD041
:101CF000B0F1804F07D0A2F59432904203D002F5A4
:101D00008062904203D123F070034A681343124A61
:101D100090420AD0B0F1804F07D0A2F594329042A1
:101D200003D002F58062904203D123F44073CA6865
:101D3000134323F080034A69134303608B68C36233
:101D40000B688362044B984202D0012343617047C1
:101D50000B690363F9E700BF002C014040B310B5E5
:101D6000044690F83D30F3B1022384F83D3021461B
:101D700051F8040BFFF7B8FF012384F8463084F8CC
:101D80003E3084F83F3084F8403084F8413084F8A5
:101D9000423084F8433084F8443084F8453084F885
:101DA0003D30002010BD80F83C30FEF7ADFCDBE795
:101DB0000120704740B310B5044690F83D30F3B1B0
:101DC000022384F83D30214651F8040BFFF78CFFC5
:101DD000012384F8463084F83E3084F83F3084F89C
:101DE000403084F8413084F8423084F8433084F83D
:101DF000443084F8453084F83D30002010BD80F830
:101E00003C30FFF7AFFEDBE701207047002857D0DA
:101E100070B50D46044690F83D30002B4BD00223A0
:101E200084F83D302268936823F4804323F007034D
:101E30009360214651F8040BFFF756FF21688A682A
:101E40008B690E6A2868104323F4407C2CF0030C45
:101E5000AA68AB6942EA032343EA0C0323F47C43F8
:101E600023F0FC03EA69D5F80CC04CEA022C4CEADA
:101E7000030C2A6A13032A6943EA021343EA0C0398
:101E800026F022066A686D6942EA051232438860CC
:101E900021688B6123681A62012384F8463084F834
:101EA0003E3084F83F3084F8423084F8433084F880
:101EB0003D30002070BD80F83C30FEF74BFCAEE7B3
:101EC0000120704730B4036A23F010030362036AF1
:101ED0004468826922F4E6420D6842EA052223F052
:101EE00020038D6843EA05130E4DA84209D00D4D1D
:101EF000A8420ED0446082614A688263036230BCAB
:101F0000704723F08003CD6843EA051323F04003B4
:101F1000EDE724F440644D6944EA85048D6944EAA0
:101F20008504E7E7002C014038B590F83C30012BE0
:101F300060D004460D46012380F83C300C2A1AD8A4
:101F4000DFE802F0071919191D19191931191919A2
:101F500044000068FFF720FD2268936943F00803FE
:101F600093612268936923F0040393612268936963
:101F700029690B439361002084F83C0038BD006858
:101F8000FFF7A0FF2268936943F40063936122681E
:101F9000936923F48063936122689369296943EA12
:101FA00001239361E7E70068FFF724FD2268D36906
:101FB00043F00803D3612268D36923F00403D3619B
:101FC0002268D36929690B43D361D4E70068FFF71E
:101FD00043FD2268D36943F40063D3612268D36967
:101FE00023F48063D3612268D369296943EA01231A
:101FF000D361C0E70220C1E710B4846824F47F4CA9
:1020000042EA03220A4342EA0C02826010BC704793
:1020100090F83C30012B66D010B50446012380F8BF
:102020003C30022380F83D300268936823F47F43FC
:1020300023F0770393600B68602B40D022D8402BAD
:1020400047D00BD9502B0ED1CA6849680068FFF7FA
:1020500027FD50212068FFF748FD04E0202B0CD01D
:1020600008D9302B09D0012384F83D30002084F8B2
:102070003C0010BD0BB1102BF5D119462068FFF7BD
:1020800034FDF0E7702B0ED0B3F5005FEBD1CB68D9
:102090004A6889680068FFF7AFFF2268936843F4D5
:1020A00080439360DFE7CB684A6889680068FFF780
:1020B000A3FF2268936843F077039360D3E7CA686D
:1020C00049680068FFF7FEFC60212068FFF70DFDFE
:1020D000C9E7CA6849680068FFF7E2FC4021206848
:1020E000FFF703FDBFE702207047000090F83C3087
:1020F000012B2CD010B4012380F83C30022380F84F
:102100003D3003685A689C6822F0700C0A6842EA05
:102110000C025A6003680F4A93420AD0B3F1804F11
:1021200007D0A2F59432934203D002F58062934225
:1021300004D124F080044A6814439C60012380F891
:102140003D30002380F83C30184610BC7047022018
:10215000704700BF002C0140704770470268D36889
:1021600023F49073D3600268536923F00103536131
:10217000036B012B05D0202380F83E30002303633E
:1021800070470268D36823F01003D360F3E790F838
:102190003D30DBB2212B01D0022070478368B3F5BC
:1021A000805F17D0036A5A1C02621A7803685A606B
:1021B000C38C9BB2013B9BB2C3844BB90268D3680A
:1021C00023F08003D3600268D36843F04003D360F8
:1021D000002070470369002BE4D1036A1B88026862
:1021E000C3F308035360036A02330362E0E70000AD
:1021F00010B504460268136923F44053C1680B43C9
:10220000136183680269134342691A430168CB680A
:1022100023F4B05323F00C031343CB6002685369DB
:1022200023F4407381690B4353610268134B9A4254
:1022300020D0FFF7E7FA024602EB820202EB8202AD
:1022400063689B00B2FBF3F20D48A0FB0231490921
:10225000642303FB11231B013233A0FB03235B091F
:1022600003F0F00202EB011203F00F0321681344A4
:102270008B6010BDFFF7D6FA0246DDE7003801405B
:102280001F85EB5158B310B5044690F83D300BB3A1
:10229000242384F83D302268D36823F40053D360AC
:1022A0002046FFF7A5FF2268136923F490431361CA
:1022B0002268536923F02A0353612268D36843F4E8
:1022C0000053D36000202064202384F83D3084F83C
:1022D0003E3010BD80F83C30FEF70AFBD8E7012005
:1022E0007047704708B50168CA6822F04002CA60AA
:1022F000202280F83D20FFF7F4FF002008BD704742
:10230000704708B5406A0023C385C384FFF7F8FF10
:1023100008BD704790F83E30DBB2222B60D1836855
:10232000B3F5805F46D0826AB3F5805F04D0002B9E
:102330004DD10369002B4AD103685B681370836A2F
:1023400001338362C38D9BB2013B9BB2C385002BDB
:1023500048D100B583B00268D36823F02003D3606E
:102360000268D36823F48073D3600268536923F052
:1023700001035361202380F83E30036B012B2CD1E5
:10238000002303630268D36823F01003D36003685B
:102390001A6812F0100F06D0002201921A680192FA
:1023A0005B680193019B818DFFF7B3FF002003B0B1
:1023B0005DF804FB0269002AB5D1826A03685B6894
:1023C000C3F308031380836A02338362BAE70368A6
:1023D0005B6803F07F031370B1E7FFF790FFE5E759
:1023E000022070470020704730B583B00446026871
:1023F0001368D068516913F00F0505D113F0200F51
:1024000002D010F0200F19D12DB111F0010119D116
:1024100010F4907F16D1216B012975D013F0800F35
:1024200003D010F0800F40F0D78013F0400F03D09E
:1024300010F0400F40F0D48003B030BD2046FFF7CD
:1024400069FFF9E713F0010F06D010F4807F03D085
:10245000226C42F00102226413F0040F04D019B17F
:10246000226C42F00202226413F0020F04D019B170
:10247000226C42F00402226413F0080F07D010F01F
:10248000200F00D119B1226C42F008022264226CA4
:10249000002AD1D013F0200F02D010F0200F21D14C
:1024A00023685B6903F04003226C12F0080F00D12F
:1024B00023B32046FFF752FE23685A6912F0400FFB
:1024C00018D05A6922F040025A61A36B73B1464A90
:1024D0005A63A06BFEF77EFC0028ADD0A06B436B67
:1024E0009847A9E72046FFF715FFD9E72046FFF7F1
:1024F00007FFA1E72046FFF703FF9DE72046FFF710
:10250000FFFE0023236497E713F0100F86D010F02E
:10251000100F83D000230193136801935368019334
:10252000019B536913F0400F32D0A16B0B685B68BD
:102530009BB2002B80D0A08D98427FF67DAFE385C3
:102540008B69202B08D1A18DE38D9BB2C91A89B26A
:102550002046FFF7DEFE6FE7D36823F48073D36075
:102560002268536923F0010353612268536923F001
:1025700040035361202384F83E3000232363226804
:10258000D36823F01003D360A06BFEF701FCDAE7F9
:10259000A18DE38D9BB2C91A89B2E38D9BB2002B4A
:1025A0003FF44AAF00293FF447AFD36823F4907358
:1025B000D3602268536923F001035361202384F818
:1025C0003E30002323632268D36823F01003D360D6
:1025D0002046FFF79EFE2FE72046FFF7D8FD2BE7AA
:1025E0002046FFF77FFE27E703230008EFF305836C
:1025F00093B9EFF3108393B90C4B1868022804D0F9
:1026000080B90A4B01221A607047EFF31183002B47
:10261000F6D06FF0050070476FF0050070476FF05F
:10262000050070474FF0FF30704700BF940800204E
:1026300008B5EFF30583B3B9EFF31083B3B90E4BCD
:102640001B68022B08D0012B13D10B4B02221A60FE
:1026500001F0CEF8002008BDEFF31182002AF2D07D
:102660006FF00500F7E76FF00500F4E76FF0050085
:10267000F1E74FF0FF30EEE794080020F0B587B0A7
:1026800000240494EFF30584002C43D1EFF310836E
:10269000002B3FD1334B1B68022B16D0002839D0BA
:1026A00000238DF8173062B3156895B1936903B9AB
:1026B00018235C1E372C51D8546814F0010F4FD1E9
:1026C00056694EB14FEA960C08E0EFF311830BBB4D
:1026D000E4E70DF11705E9E74FF0800C94682CB1A1
:1026E000D7685B2F02D9176907B1B6B914B14FF09B
:1026F000FF340CE0D46894B914699CB14FF0FF34F6
:1027000005E0002418234FF0800C0DF11705012C73
:102710000AD0ACB1049807B0F0BD0124F7E74FF040
:10272000FF34F4E70024F2E71469926802920194FE
:1027300000930B466246294600F0ECFF0490E9E75F
:1027400004AA019200930B461FFA8CF2294601F06D
:102750001BF80128DED000230493DBE70020DAE732
:102760000020D8E79408002008B5EFF30583A3B94B
:10277000EFF31083A3B90C4B1B68022B02D040B9B6
:10278000002008BDEFF31183002BF8D06FF0050097
:10279000F7E701F091F90020F3E76FF00500F0E7AB
:1027A0006FF00500EDE700BF94080020034B0360C5
:1027B000034B0B6080231360704700BF3808002074
:1027C00038060020034B0360034B0B604FF480730B
:1027D00013607047980C00209808002000F108034F
:1027E00043604FF0FF328260C360036100230360E7
:1027F000704700230361704743684B609A688A60A2
:10280000516099600861036801330360704730B418
:102810000D68B5F1FF3F11D000F108031C465B685D
:102820001A68AA42FAD963684B6099608C6061604B
:10283000086103680133036030BC70470469F2E744
:102840000369416882688A60416851605A688242BF
:1028500006D0002202611A68013A1A6018687047AF
:1028600082685A60F5E7000082B0002301930D4BA7
:102870001B68B3F1FF3F08D04FF0500383F311887A
:10288000BFF36F8FBFF34F8FFEE74FF0500383F31B
:102890001188BFF36F8FBFF34F8F019B002BFCD0CC
:1028A00002B070470C00002006480068006880F302
:1028B000088862B661B6BFF34F8FBFF36F8F00DF3A
:1028C00000BF000008ED00E04FF0807340F8043CCA
:1028D00021F0010140F8081C034B40F80C3C40F883
:1028E000202C4038704700BF692800080000000015
:1028F000074B19680868B0E8F00F80F30988BFF348
:102900006F8F4FF0000080F311884EF00D0E70476E
:10291000541900204FF0500383F31188BFF36F8FD9
:10292000BFF34F8F0B4A136801331360012B00D0A4
:1029300070474FF0E023D3F8043D13F0FF0FF7D0BA
:102940004FF0500383F31188BFF36F8FBFF34F8FA6
:10295000FEE700BF0C000020094B1B6843B94FF095
:10296000500383F31188BFF36F8FBFF34F8FFEE7E0
:10297000013B034A13600BB983F31188704700BF12
:102980000C0000200000000000000000000000001B
:10299000EFF30980BFF36F8F0D4B1A6820E9F00F3A
:1029A00010602DE908404FF0500080F3118801F0CD
:1029B000A9F84FF0000080F31188BDE808401968BD
:1029C0000868B0E8F00F80F30988BFF36F8F704795
:1029D0005419002008B54FF0500383F31188BFF35A
:1029E0006F8FBFF34F8F00F05FFF28B14FF0E023F0
:1029F0004FF08052C3F8042D002383F3118808BDE3
:102A00004FF0E022002313619361054B1B680549D9
:102A1000A1FB03139B09013B53610723136170471B
:102A200000000020D34D621010B582B02A4B1A78F6
:102A3000D2B20192FF221A701B78DBB28DF80330FC
:102A40009DF8033003F05003244A1370244B0722EF
:102A50001A6009E0224A1368013B13609DF80330B5
:102A60005B00DBB28DF803309DF8033013F0800F6C
:102A7000F0D11B4B1B68032B08D04FF0500383F39E
:102A80001188BFF36F8FBFF34F8FFEE71B02144A0D
:102A9000136003F4E0631360019BDBB20E4A137012
:102AA0004FF0E023D3F8202D42F47002C3F8202D1C
:102AB000D3F8202D42F07042C3F8202DFFF7A0FF7D
:102AC0000024084B1C60FFF7EFFE01F01BF8FFF736
:102AD000CBFE204602B010BD00E400E0F40C002064
:102AE000F80C00200C000020EFF305830F2B0FD90A
:102AF000114A9B5CDBB2114A12789A4208D94FF016
:102B0000500383F31188BFF36F8FBFF34F8FFEE73E
:102B10004FF0E023D3F80C3D03F4E063084A126859
:102B2000934208D94FF0500383F31188BFF36F8F9E
:102B3000BFF34F8FFEE77047F0E300E0F40C002096
:102B4000F80C0020124A12F0070F1ED0D11D21F000
:102B50000701C1F5406313440A460E480260002194
:102B600041601344083B23F007030B48036059609E
:102B70001960991A51601360084B1960084B19606D
:102B8000084B4FF000421A6070474FF44063E4E78F
:102B9000000D00200C190020FC0C0020081900205A
:102BA0000419002000190020154B1A461B688342A7
:102BB000FBD3516802EB010C844509D0416800EB5E
:102BC000010C634509D00360904218D01060704733
:102BD0004068014451601046F0E710B4094C246885
:102BE000A3420AD05B681944416013681B68036004
:102BF000904200D0106010BC70470460F8E7704746
:102C00000C190020FC0C002070B5054600F03EFEBB
:102C1000344B1B68A3B1344B1B681D424AD135B1FC
:102C2000083515F0070F02D025F007050835002DEF
:102C300042D02E4B1B68AB424DD32D4A146804E0A2
:102C4000FFF780FFE7E722461C466368AB4202D2EB
:102C50002368002BF7D1234B1B68A3423DD0166895
:102C600008362368136063685B1B102B10D960194A
:102C700010F0070F08D04FF0500383F31188BFF313
:102C80006F8FBFF34F8FFEE743606560FFF78CFFE8
:102C9000626816490B689B1A0B60164909688B42DB
:102CA00001D214490B60104B1B681343636000236F
:102CB000236002E0002600E0002600F081FE16F00E
:102CC000070F0CD04FF0500383F31188BFF36F8FC1
:102CD000BFF34F8FFEE70026EFE70026EDE7304613
:102CE00070BD00BFFC0C002000190020041900205A
:102CF0000C1900200819002080B338B50446A0F153
:102D0000080550F8043C164A1268134208D14FF0E7
:102D1000500383F31188BFF36F8FBFF34F8FFEE72C
:102D200050F8081C41B14FF0500383F31188BFF3F2
:102D30006F8FBFF34F8FFEE723EA020340F8043C96
:102D400000F0A4FD54F8041C064A13680B441360F9
:102D50002846FFF729FF00F033FE38BD704700BF5B
:102D6000001900200419002010B50446FFF7D2FD19
:102D7000A26BE36B9A4204D00024FFF7EDFD2046DE
:102D800010BD0124F9E710B50446FFF7C3FDA36B9E
:102D900023B90124FFF7E0FD204610BD0024F9E728
:102DA00070B504461546866B026C5AB903681BB1B0
:102DB00000200136A66370BD406800F0CBFF002301
:102DC0006360F6E76DB98068FDF7C2F9226CA3680D
:102DD0001344A3606268934219D32368A360284612
:102DE000E7E7C068FDF7B4F9226C5142E3689B1A2B
:102DF000E3602268934202D263680B44E360022DD1
:102E000001D00020D5E726B1013E0020D1E72846B9
:102E1000CFE70020CDE708B50346026C62B1084653
:102E2000D9681144D960D3F804C0614501D3196849
:102E3000D960D968FDF78CF908BD38B50546FFF7AC
:102E400069FD95F8454064B201E0013C64B2002C94
:102E50000ADD6B6A43B105F1240000F0D1FE0028C1
:102E6000F3D000F061FFF0E7FF2385F84530FFF76E
:102E700073FDFFF74FFD95F8444064B201E0013C5B
:102E800064B2002C0ADD2B6943B105F1100000F09B
:102E9000B7FE0028F3D000F047FFF0E7FF2385F8E6
:102EA0004430FFF759FD38BD38B5E0B10D46044652
:102EB000FFF730FD2368E26B216C01FB023060609C
:102EC0000020A063A360013A02FB0133E360FF230B
:102ED00084F8443084F84530FDB9236963B9FFF7BD
:102EE0003BFD012038BD4FF0500383F31188BFF341
:102EF0006F8FBFF34F8FFEE704F1100000F080FEEC
:102F00000028ECD04FF0E0234FF08052C3F8042D9E
:102F1000BFF34F8FBFF36F8FE1E704F11000FFF7AE
:102F20005DFC04F12400FFF759FCD8E738B51D46D5
:102F3000049C0B4649B92460E063236401212046C8
:102F4000FFF7B2FF84F84C5038BD2260F4E740B977
:102F50004FF0500383F31188BFF36F8FBFF34F8F90
:102F6000FEE710B584B01C46844653B192B189B9CE
:102F70004FF0500383F31188BFF36F8FBFF34F8F70
:102F8000FEE74FF0500383F31188BFF36F8FBFF359
:102F90004F8FFEE76AB150230393039B502B13D04E
:102FA0004FF0500383F31188BFF36F8FBFF34F8F40
:102FB000FEE70029EFD04FF0500383F31188BFF3F1
:102FC0006F8FBFF34F8FFEE7012384F846300094E4
:102FD0009DF818306046FFF7A9FF204604B010BDE9
:102FE000F0B585B0019288B10F461D460446B1B1D7
:102FF000022D20D1E36B012B1DD04FF0500383F342
:103000001188BFF36F8FBFF34F8FFEE74FF0500370
:1030100083F31188BFF36F8FBFF34F8FFEE7036C0D
:10302000002BE5D04FF0500383F31188BFF36F8F6F
:10303000BFF34F8FFEE700F07DFE064658B9019BB7
:10304000002B48D04FF0500383F31188BFF36F8FEC
:10305000BFF34F8FFEE700263DE02A463946204663
:10306000FFF79EFE636A7BB948B14FF0E0234FF053
:103070008052C3F8042DBFF34F8FBFF36F8FFFF75C
:103080006BFC012005B0F0BD04F1240000F0B8FD98
:103090000028F4D04FF0E0234FF08052C3F8042D05
:1030A000BFF34F8FBFF36F8FE9E7FFF755FC0020A9
:1030B000E8E702A800F0EAFD012619E0002384F801
:1030C000443021E0002384F8453023E02046FFF718
:1030D000B4FE00F075FCFFF71DFCA26BE36B9A4297
:1030E000BBD3022DB9D0019B002BDED0002EE0D047
:1030F000FFF732FC00F0CAFBFFF70CFC94F8442009
:1031000052B2B2F1FF3FD9D094F8452052B2B2F199
:10311000FF3FD7D0FFF720FC01A902A800F0C2FDB5
:10312000D8B92046FFF720FE0028CFD0019904F13E
:10313000100000F031FD2046FFF77FFE00F040FC5C
:103140000028C8D14FF0E0234FF08052C3F8042D7F
:10315000BFF34F8FBFF36F8FBDE72046FFF76DFEC4
:1031600000F02EFC00208DE72DE9F84390B10F46CA
:1031700016461C460546B1B1022C20D1EB6B012B43
:103180001DD04FF0500383F31188BFF36F8FBFF34F
:103190004F8FFEE74FF0500383F31188BFF36F8F1B
:1031A000BFF34F8FFEE7036C002BE5D04FF05003C9
:1031B00083F31188BFF36F8FBFF34F8FFEE7FFF7E5
:1031C00093FCEFF311894FF0500383F31188BFF3A1
:1031D0006F8FBFF34F8FAA6BEB6B9A4206D3022C13
:1031E00004D0002089F31188BDE8F88395F8458064
:1031F0004FFA88F8224639462846FFF7D1FDB8F144
:10320000FF3F06D008F101035BB285F8453001208D
:10321000E8E76B6A0BB90120E4E705F1240000F050
:10322000EFFC18B126B101203060DBE70120D9E7BF
:103230000120D7E7F0B585B0019290B10F46044662
:10324000C1B100F077FD064600BB019B002B5ED0AC
:103250004FF0500383F31188BFF36F8FBFF34F8F8D
:10326000FEE74FF0500383F31188BFF36F8FBFF376
:103270004F8FFEE7036C002BE3D04FF0500383F336
:103280001188BFF36F8FBFF34F8FFEE700263EE03C
:1032900039462046FFF7BFFD013DA563236923B9E9
:1032A000FFF75AFB012005B0F0BD04F1100000F05B
:1032B000A7FC0028F4D04FF0E0234FF08052C3F871
:1032C000042DBFF34F8FBFF36F8FE9E7FFF744FB88
:1032D0000020E8E702A800F0D9FC012621E0002345
:1032E00084F8443029E0002384F845302BE0204660
:1032F000FFF7A3FD00F064FB09E02046FFF79DFD0A
:1033000000F05EFB2046FFF73EFD00283FD1FFF7AF
:1033100001FBA56B002DBBD1019B002BD6D0002E4D
:10332000D8D0FFF719FB00F0B1FAFFF7F3FA94F8E1
:1033300044305BB2B3F1FF3FD1D094F845305BB27B
:10334000B3F1FF3FCFD0FFF707FB01A902A800F0C0
:10335000A9FC0028D1D12046FFF715FD0028C6D0D2
:10336000019904F1240000F017FC2046FFF765FDE9
:1033700000F026FB0028CAD14FF0E0234FF0805226
:10338000C3F8042DBFF34F8FBFF36F8FBFE700204B
:1033900089E700000023072B0CD8074A52F8332096
:1033A0000AB10133F7E7044A42F8331002EBC303D2
:1033B00058607047704700BF1419002070B504466C
:1033C0000D461646FFF7A6FA94F844305BB2B3F107
:1033D000FF3F0DD094F845305BB2B3F1FF3F0BD007
:1033E000FFF7BAFAA36B5BB12046FFF726FD70BD6D
:1033F000002384F84430EDE7002384F84530EFE7FC
:103400003246294604F1240000F0DEFBECE7000020
:10341000084B1B681B6823B9074B4FF0FF321A603B
:103420007047044B1B68DB68DB685A68024B1A6004
:10343000704700BF58190020041E00202DE9F047F6
:1034400080460D4617469946089EDDF824A00A9C42
:103450009200A521206B00F027FF236B07F180422B
:10346000013A03EB820727F007074FF0000CBCF18D
:103470000F0F0BD815F80C2004EB0C0383F8342045
:1034800015F80C3013B10CF1010CF0E7002384F8AF
:103490004330372E00D93726E662E66400252565DD
:1034A000201DFFF7A6F904F11800FFF7A2F9246127
:1034B000C6F13806A6616462656584F858504A46CC
:1034C00041463846FFF700FA2060BAF1000F01D0FC
:1034D000CAF80040BDE8F08738B5002407E004EBE7
:1034E000840293000E481844FFF778F90134372C12
:1034F000F5D90C4D2846FFF771F90B4C2046FFF724
:103500006DF90A48FFF76AF90948FFF767F90948B2
:10351000FFF764F9084B1D60084B1C6038BD00BF05
:1035200060190020D81D0020EC1D00200C1E00207A
:10353000381E0020241E0020581900205C1900208D
:1035400010B50446FFF7E6F9224A13680133136009
:10355000214B1B685BB1214B1B686BB91E4B1B6871
:10356000DA6AE36A9A4207D81B4B1C6004E01A4BE4
:103570001C601368012B29D0194A136801331360AA
:103580006364E06A174B1B68984201D9154B1860B9
:1035900000EB8000211D144B03EB8000FFF72CF99A
:1035A000FFF7DAF90D4B1B687BB10B4B1B68DA6A2E
:1035B000E36A9A4209D24FF0E0234FF08052C3F8F9
:1035C000042DBFF34F8FBFF36F8F10BDFFF784FF44
:1035D000D2E700BFC01D002054190020201E00208B
:1035E000D01D0020D41D00206019002010B5044615
:1035F00090F8593063B1012B11D0022B0ED04FF04F
:10360000500383F31188BFF36F8FBFF34F8FFEE733
:10361000006BFFF771FB2046FFF76EFB10BDFFF755
:103620006BFBFBE70F4B1B68D3B110B5FFF772F9CB
:103630000D4BDB68DC68201DFFF702F90B4A1368AD
:10364000013B1360074A1368013B1360FFF784F9DD
:103650002046FFF7CBFF034B1B68002BE6D110BDC4
:10366000704700BFC41D0020381E0020C01D002070
:1036700008B5FFF7D7FF074B1B68012BF9D94FF0AF
:10368000E0234FF08052C3F8042DBFF34F8FBFF3F8
:103690006F8FEEE76019002070B504460D46174B9A
:1036A0001E68174B18680430FFF7CAF8B4F1FF3FE3
:1036B0000DD03444124B1B685C60A64210D9114BEC
:1036C00018680F4B19680431FFF7A1F870BD002D81
:1036D000EFD00B4B196804310B48FFF78DF8F5E775
:1036E0000A4B1868064B19680431FFF790F8084B2D
:1036F0001B68A342EAD9064B1C60E7E74C1E00207A
:10370000541900205C190020241E002058190020A4
:10371000041E002030B587B00B9C7CB10C9DB5B168
:103720005C250495049D5C2D1AD04FF0500383F363
:103730001188BFF36F8FBFF34F8FFEE74FF0500339
:1037400083F31188BFF36F8FBFF34F8FFEE74FF006
:10375000500383F31188BFF36F8FBFF34F8FFEE7E2
:103760000C9D2C63022485F8594000240394029593
:1037700005AC01940A9C0094FFF760FE0C98FFF7DB
:10378000DFFE059807B030BD2DE9F04385B0074650
:10379000884614461E469000FFF736FA00B381466D
:1037A0005C20FFF731FA0546B0B1C0F83090E5B1C2
:1037B000002385F85930039302950D9B01930C9BD0
:1037C00000933346224641463846FFF737FE2846E7
:1037D000FFF7B6FE012005E04846FFF78DFAE6E761
:1037E0004FF0FF3005B0BDE8F0834FF0FF30F9E750
:1037F00010B588B000240594069407AA06A905A868
:10380000FEF7D4FF059B0293069B01930094234689
:10381000079A18491848FFF77DFF184B186040B108
:1038200000F04CFB012806D0B0F1FF3F18D008B0E3
:1038300010BD0020F6E74FF0500383F31188BFF36B
:103840006F8FBFF34F8F0E4B4FF0FF321A600D4B4F
:1038500001221A600C4B00221A60FFF7E5F8E6E738
:103860004FF0500383F31188BFF36F8FBFF34F8F77
:10387000FEE700BFA044000871360008001E0020CB
:10388000041E0020201E00204C1E0020024A136847
:1038900001331360704700BFCC1D0020014B186836
:1038A000704700BF4C1E0020F8B53A4B1B68002B38
:1038B00064D1394B1D6801351D60C5B9374B1B6894
:1038C0001B6843B14FF0500383F31188BFF36F8F30
:1038D000BFF34F8FFEE7314A1168314B1868106013
:1038E0001960304A136801331360FFF791FD2E4BC6
:1038F0001B68AB4238D900272C4B1B68DB6A03EBF3
:1039000083039A002A4B9B58012B3CD901273AE0AC
:103910000127224B1B681B6843B3204B1B68DB68E5
:10392000DC6863689D4226D3261D3046FEF788FF7B
:10393000A36A1BB104F11800FEF782FFE36A1D4A77
:103940001268934201D91B4A136003EB83039A0068
:10395000314617481044FEF74FFFE26A134B1B68CD
:10396000DB6A9A42D4D2D4E70027D2E70E4B4FF05D
:10397000FF321A60C0E70C4A1360BDE70E4A1368B5
:103980000133136000270D4B1B6803B10127384634
:10399000F8BD00BFCC1D00204C1E0020581900208F
:1039A0005C190020081E0020041E0020541900206D
:1039B00060190020D41D0020C81D0020501E0020CA
:1039C00038B5354B1B6843B94FF0500383F311886A
:1039D000BFF36F8FBFF34F8FFEE7FEF79BFF2E4BBA
:1039E0001A68013A1A601B68002B4FD12B4B1B68D9
:1039F0000BB900244BE00024294B1B681BB3284B58
:103A0000DB68DC6804F11800FEF71AFF251D284664
:103A1000FEF716FFE06A234B1B68984201D9214B41
:103A2000186000EB800029461F4B03EB8000FEF777
:103A3000E3FEE26A1D4B1B68DB6A9A42DCD31C4B37
:103A400001221A60D8E70CB1FFF7E2FC194B1C68A1
:103A500084B9174B1C68D4B14FF0E0234FF080526B
:103A6000C3F8042DBFF34F8FBFF36F8F01240EE017
:103A7000013C07D0FFF718FF0028F9D00C4B0122BA
:103A80001A60F5E70B4B00221A60E2E70024FEF70C
:103A900063FF204638BD00BFCC1D0020C01D0020A4
:103AA0000C1E0020D41D0020601900205419002095
:103AB000501E0020C81D002010B5A8B10446104BB0
:103AC0001B6843B14FF0500383F31188BFF36F8F2E
:103AD000BFF34F8FFEE7FFF7D9FE00212046FFF727
:103AE000DBFDFFF76DFF48B94FF0E0234FF0805248
:103AF000C3F8042DBFF34F8FBFF36F8F10BD00BF0E
:103B0000CC1D00201F4B1B681BB11F4B01221A60EC
:103B100070471D4B00221A601C4B1B6803EB83018E
:103B20008A001B498A585AB90BB1013BF6E74FF09E
:103B3000500383F31188BFF36F8FBFF34F8FFEE7FE
:103B400003EB830082000A4450684068506003EB36
:103B5000830C4FEA8C020832114488420BD003EBED
:103B6000830291000A4A0A445268D168094A1160E6
:103B7000064A13607047406862469100044A0A444E
:103B80005060ECE7CC1D0020501E0020D41D00200A
:103B9000601900205419002058B110B50C46094A8C
:103BA00011681831FEF733FE01212046FFF774FD3E
:103BB00010BD4FF0500383F31188BFF36F8FBFF335
:103BC0004F8FFEE75419002038B570B10D461446EA
:103BD0000A4A11681831FEF70FFE0CB14FF0FF359D
:103BE00021462846FFF758FD38BD4FF0500383F3B8
:103BF0001188BFF36F8FBFF34F8FFEE7541900207A
:103C000038B5C368DC6824B304F118052846FEF70C
:103C100017FE184B1B682BBB251D2846FEF710FE10
:103C2000E06A154B1B68984201D9134B186000EBF2
:103C300080002946114B03EB8000FEF7DDFDE26AB0
:103C40000F4B1B68DB6A9A4211D901200D4B18609B
:103C500038BD4FF0500383F31188BFF36F8FBFF36C
:103C60004F8FFEE729460848FEF7C6FDE7E700202C
:103C7000EEE700BFCC1D0020D41D002060190020FD
:103C800054190020501E00200C1E0020034B1B68FE
:103C90000360034B1B684360704700BF081E002091
:103CA0004C1E0020D8B170B50C46054601B3FEF796
:103CB00031FE1B4B19686B68C81A2268B2F1FF3FCE
:103CC00027D0184E3668D5F800C0B44501D08B42D5
:103CD00024D9824215D80023236001241AE04FF032
:103CE000500383F31188BFF36F8FBFF34F8FFEE74D
:103CF0004FF0500383F31188BFF36F8FBFF34F8FE3
:103D0000FEE75B1A134423602846FFF7BFFF002439
:103D100000E00024FEF720FE204670BD0124F9E7F4
:103D20004C1E0020081E0020014B01221A60704723
:103D3000501E0020054B1B6833B1054B1B680BB1AF
:103D4000002070470220704701207047201E00208D
:103D5000CC1D002000283BD038B504461E4B1B6804
:103D6000834208D04FF0500383F31188BFF36F8F65
:103D7000BFF34F8FFEE7036D43B94FF0500383F35A
:103D80001188BFF36F8FBFF34F8FFEE7013B0365D1
:103D9000C16AC26C91421DD00BB1002038BD051D17
:103DA0002846FEF74DFDE06CE062C0F13803A361E8
:103DB0000A4B1B68984201D9084B186000EB800041
:103DC0002946074B03EB8000FEF716FD0120E5E7CF
:103DD000002070470020E1E754190020D41D002086
:103DE00060190020064B1A681368B3FA83F35B0965
:103DF000036013B9D368186870470020704700BF8C
:103E0000541E002008B54160006191420CD8D21ABE
:103E100083699A4201D3012008BD011D094B18682E
:103E2000FEF7F5FC0020F7E79A4201D2994206D24C
:103E3000011D054B1868FEF7EAFC0020ECE70120A5
:103E4000EAE700BF581E0020541E002030B583B0A2
:103E5000FEF760FD114B1B681BB1FEF77DFD03B043
:103E600030BD0F4D2846FEF7B9FC0E4C2046FEF73C
:103E7000B5FC0D4B1D600D4B1C60002300930C4BDB
:103E80000C4A10210A20FFF762F8044B1860002842
:103E9000E3D00949FFF77EFADFE700BF781F002073
:103EA000FC1E0020101F0020541E0020581E002061
:103EB000281F00205C1E0020A844000810B588B010
:103EC000FFF7C4FF124B1B68CBB100240594069486
:103ED00007AA06A905A8FEF775FC059B0293069B99
:103EE0000193022300932346079A0A490A48FFF7E1
:103EF00011FC0A4B186010B1012008B010BD4FF042
:103F0000500383F31188BFF36F8FBFF34F8FFEE72A
:103F1000781F0020B0440008FD4100087C1F0020ED
:103F2000B8B19C4603461848006858B300B585B040
:103F300000910192029305291CDCFFF7FBFE022889
:103F400010D000231A4669460F480068FFF748F86A
:103F500015E04FF0500383F31188BFF36F8FBFF369
:103F60004F8FFEE70023069A694607480068FFF76F
:103F700037F804E0002362466946FFF7F5F805B01C
:103F80005DF804FB00207047781F002070B582B0F8
:103F90001A4B1B681A6852B3DB681E68DC68251D63
:103FA0002846FEF74DFC636A20469847E369012BDB
:103FB000EED1A36933449E4207D26360246129464F
:103FC0000E4B1868FEF723FCE2E7002100910B4638
:103FD00032462046FFF7A4FF0028D9D14FF0500306
:103FE00083F31188BFF36F8FBFF34F8FFEE7044A4F
:103FF000106802490860136002B070BD541E0020B2
:10400000581E002038B50546FFF748FC0446074B0C
:104010001B68834205D800232B60044B1C6020469C
:1040200038BDFFF7B3FF01232B60F6E7241F002004
:1040300070B582B006460D4614490968C968CC6857
:10404000201DFEF7FDFBE169012904D0636A2046CB
:10405000984702B070BDA16933462A4631442046D4
:10406000FFF7D0FE0028F1D0002100910B46324628
:104070002046FFF755FF0028E8D14FF0500383F3A7
:104080001188BFF36F8FBFF34F8FFEE7541E0020E0
:1040900070B582B006460C46FFF7F8FB01A8FFF7A3
:1040A000B1FF019B2BBB05460CB9B0421AD22CB113
:1040B000124B1B681C68B4FA84F464092246711B15
:1040C0000F4B1868FFF77AF9FFF77AFC98B94FF0B1
:1040D000E0234FF08052C3F8042DBFF34F8FBFF39E
:1040E0006F8F08E0FFF76CFC29463046FFF7A0FF12
:1040F00001E0FFF765FC02B070BD00BF581E002054
:10410000781F002010B588B002E0049B002B0FDA66
:10411000002204A9384B1868FFF78CF8002869D0F2
:10412000049B002BF1DA07990698059B9847ECE76A
:10413000069C636913B1201DFEF782FB03A8FFF7FD
:1041400061FF049B092BE3D801A252F823F000BFC2
:1041500079410008794100087941000811410008BF
:10416000BF410008E5410008794100087941000895
:1041700011410008BF410008059BA169024619448E
:104180002046FFF73FFE0028C2D0636A20469847CA
:10419000E369012BBCD1A269002100910B4605986F
:1041A00002442046FFF7BCFE0028B1D14FF0500377
:1041B00083F31188BFF36F8FBFF34F8FFEE705992D
:1041C000A16131B10346024601442046FFF71AFEC1
:1041D0009EE74FF0500383F31188BFF36F8FBFF357
:1041E0004F8FFEE794F82C30002B91D12046FEF73C
:1041F00083FD8DE708B010BD781F002000B583B0A7
:1042000001A8FFF7EFFD0199FFF742FFFFF77AFFE3
:10421000F6E700000C480D490D4A002302E0D4588F
:10422000C4500433C4188C42F9D30A4A0A4C002300
:1042300001E013600432A242FBD3FCF7FBF900F06B
:104240000FF8FCF759F97047000000203C040020EB
:10425000C84400083C040020841F0020FEE7000042
:1042600070B50D4E0D4D761BB61006D0002455F8D6
:10427000043B01349847A642F9D1094E094D00F09C
:10428000D5F8761BB61006D0002455F8043B01344F
:104290009847A642F9D170BDBC440008BC44000850
:1042A000C4440008BC440008830730B548D0541EFD
:1042B000002A3FD00346CAB201E0013C3AD303F8DA
:1042C000012B9D07F9D1032C2DD9CDB245EA052547
:1042D0000F2C45EA054536D9A4F1100222F00F0C47
:1042E00003F1200EE6444FEA121C03F1100242E9EA
:1042F000045542E9025510327245F8D10CF1010221
:1043000014F00C0F03EB021204F00F0C13D0ACF1FD
:10431000040323F003030433134442F8045B934281
:10432000FBD10CF003042CB1CAB21C4403F8012BDE
:104330009C42FBD130BD64461346002CF4D1F9E712
:1043400003461446BFE71A46A446E0E7024B13B102
:10435000024800F005B87047000000006D430008F7
:10436000002301461A46184600F01AB838B5084B23
:10437000084D5B1B9C1007D0043B1D44013C55F8C5
:1043800004399847002CF9D1BDE8384000F054B802
:10439000C8440008C4440008704700BF704700BF0D
:1043A0002DE9F047DFF87CA00646DAF800009846D1
:1043B0000F469146FFF7F0FF1B4B1B68D3F84841AF
:1043C00024B365681F2D26DC5EB96B1C0235DAF854
:1043D0000000636044F82570FFF7E0FF0020BDE8AF
:1043E000F087012304EB8501C1F88890D4F8882177
:1043F000AB401A43022EC4F88821C1F80881E4D1E9
:10440000D4F88C211343C4F88C31DEE703F5A6748D
:10441000C3F84841D5E7DAF80000FFF7BFFF4FF0D7
:10442000FF30DCE738040020B8440008F8B500BFCE
:10443000F8BC08BC9E467047F8B500BFF8BC08BC85
:044440009E467047DD
:1044440064656661756C745461736B004444000860
:104454000000000000000000000000000000000058
:10446400000200001800000000000000000000002E
:104474000000000000000000010203040607080910
:1044840000000000010203040203040506070809F2
:104494000A0B0C0D0E0F10100000000049444C458F
:1044A40000000000546D725100000000546D722031
:0844B4005376630010000020A4
:0844BC004D4300083501000822
:0444C40011010008DA
:1044C8000024F4000100000010000000AAAAAAAA13
:1044D80000000000FC02002064030020CC03002040
:1044E80000000000000000000000000000000000C4
:1044F80000000000000000000000000000000000B4
:1045080000000000000000000000000000000000A3
:104518000000000000000000000000000000000093
:104528000000000000000000000000000000000083
:104538000000000000000000000000000000000073
:104548000000000000000000000000000000000063
:104558000000000000000000000000000000000053
:104568000000000000000000000000000000000043
:104578000000000000000000010000000000000032
:104588000E33CDAB34126DE6ECDE05000B000000F7
:104598000000000000000000000000000000000013
:1045A8000000000000000000000000000000000003
:1045B80000000000000000000000000000000000F3
:1045C80000000000000000000000000000000000E3
:0C48F8000000000000000000801F0020F5
:040000050800421598
:00000001FF
