:020000040800F2
:1000000000500020B55F00084113000843130008AA
:1000100045130008471300084913000800000000BA
:1000200000000000000000000000000091460008F1
:100030004B13000800000000314700087547000816
:10004000FD5F0008FD5F0008FD5F0008FD5F000820
:10005000FD5F0008FD5F0008FD5F0008FD5F000810
:10006000FD5F0008FD5F0008FD5F00084D130008FC
:10007000FD5F0008FD5F0008FD5F0008FD5F0008F0
:10008000FD5F0008FD5F00085D130008FD5F0008CC
:10009000FD5F0008FD5F0008FD5F0008FD5F0008D0
:1000A000FD5F00086D130008FD5F0008FD5F00089C
:1000B000FD5F0008FD5F0008FD5F0008FD5F0008B0
:1000C000FD5F0008FD5F0008FD5F0008FD5F0008A0
:1000D000FD5F00087D130008FD5F0008FD5F00085C
:1000E000FD5F0008FD5F0008FD5F000800000000E4
:1000F0000000000000000000000000000000000000
:0C01000000000000000000005FF808F1A3
:1001100010B5054C237833B9044B13B10448AFF341
:1001200000800123237010BDC009002000000000E2
:1001300018C3000808B5034B1BB103490348AFF3CC
:10014000008008BD00000000C409002018C300089A
:10015000844641EA000313F0030349D1403A23D314
:100160000B6803604B6843608B688360CB68C36037
:100170000B6903614B6943618B698361CB69C3611F
:100180000B6A03624B6A43628B6A8362CB6AC36207
:100190000B6B03634B6B43638B6B8363CB6BC363EF
:1001A00040304031403ADBD230320BD30B68036031
:1001B0004B6843608B688360CB68C360103010313C
:1001C000103AF3D20C3205D351F8043B40F8043B0B
:1001D000043AF9D2043208D0D2071CBF11F8013B0F
:1001E00000F8013B01D30B8803806046704700BFD5
:1001F000082A13D38B07B1D010F00303AED0C3F19C
:100200000403D21ADB071CBF11F8013B00F8013BC5
:10021000A4D331F8023B20F8023B9FE7043AD9D33C
:10022000013A11F8013B00F8013BF9D20B78037059
:100230004B7843708B7883706046704781F0004143
:1002400002E000BF83F0004330B54FEA41044FEABB
:10025000430594EA050F08BF90EA020F1FBF54EA56
:10026000000C55EA020C7FEA645C7FEA655C00F0F2
:10027000E2804FEA5454D4EB5555B8BF6D420CDDC3
:100280002C4480EA020281EA030382EA000083EA46
:10029000010180EA020281EA0303362D88BF30BDE6
:1002A00011F0004F4FEA01314FF4801C4CEA11313C
:1002B00002D0404261EB410113F0004F4FEA03339B
:1002C0004CEA133302D0524263EB430394EA050F26
:1002D00000F0A780A4F10104D5F1200E0DDB02FA95
:1002E0000EFC22FA05F2801841F1000103FA0EF229
:1002F000801843FA05F359410EE0A5F120050EF1EF
:10030000200E012A03FA0EFC28BF4CF0020C43FA1F
:1003100005F3C01851EBE37101F0004507D54FF02C
:10032000000EDCF1000C7EEB00006EEB0101B1F57C
:10033000801F1BD3B1F5001F0CD349085FEA3000C2
:100340004FEA3C0C04F101044FEA445212F5800FCD
:1003500080F09A80BCF1004F08BF5FEA500C50F16A
:10036000000041EB045141EA050130BD5FEA4C0C4D
:10037000404141EB0101013C28BFB1F5801FE9D2AA
:1003800091F0000F04BF01460020B1FA81F308BFCD
:100390002033A3F10B03B3F120020CDA0C3208DD99
:1003A00002F1140CC2F10C0201FA0CF021FA02F174
:1003B0000CE002F11402D8BFC2F1200C01FA02F1E4
:1003C00020FA0CFCDCBF41EA0C019040E41AA2BF09
:1003D00001EB0451294330BD6FEA04041F3C1CDAD1
:1003E0000C340EDC04F11404C4F1200220FA04F0F1
:1003F00001FA02F340EA030021FA04F345EA03019B
:1004000030BDC4F10C04C4F1200220FA02F001FA5C
:1004100004F340EA0300294630BD21FA04F02946DE
:1004200030BD94F0000F83F4801306BF81F4801177
:100430000134013D4EE77FEA645C18BF7FEA655CEA
:1004400029D094EA050F08BF90EA020F05D054EABC
:10045000000C04BF1946104630BD91EA030F1EBFC1
:100460000021002030BD5FEA545C05D140004941C5
:1004700028BF41F0004130BD14F580043CBF01F5B8
:10048000801130BD01F0004545F0FE4141F470019E
:100490004FF0000030BD7FEA645C1ABF1946104679
:1004A0007FEA655C1CBF0B46024650EA013406BF7A
:1004B00052EA033591EA030F41F4002130BD00BF39
:1004C00090F0000F04BF0021704730B54FF48064F6
:1004D00004F132044FF000054FF0000150E700BF77
:1004E00090F0000F04BF0021704730B54FF48064D6
:1004F00004F1320410F0004548BF40424FF00001C3
:100500003EE700BF42004FEAE2014FEA31014FEA05
:1005100002701FBF12F07F4393F07F4F81F0605154
:10052000704732F07F4208BF704793F07F4F04BF9F
:1005300041F40021704730B54FF4607401F000457C
:1005400021F000411CE700BF50EA010208BF7047DC
:1005500030B54FF000050AE050EA010208BF7047CD
:1005600030B511F0004502D5404261EB41014FF436
:10057000806404F132045FEA915C3FF4D8AE4FF03E
:1005800003025FEADC0C18BF03325FEADC0C18BF21
:10059000033202EBDC02C2F1200300FA03FC20FA72
:1005A00002F001FA03FE40EA0E0021FA02F11444BF
:1005B000BDE600BF70B54FF0FF0C4CF4E06C1CEAD8
:1005C00011541DBF1CEA135594EA0C0F95EA0C0F49
:1005D00000F0DEF82C4481EA030621EA4C5123EABC
:1005E0004C5350EA013518BF52EA033541F48011EB
:1005F00043F4801338D0A0FB02CE4FF00005E1FB9E
:1006000002E506F00042E0FB03E54FF00006E1FBE7
:1006100003569CF0000F18BF4EF0010EA4F1FF042A
:10062000B6F5007F64F5407404D25FEA4E0E6D416A
:1006300046EB060642EAC62141EA55514FEAC5207B
:1006400040EA5E504FEACE2EB4F1FD0C88BFBCF5F7
:10065000E06F1ED8BEF1004F08BF5FEA500E50F1A8
:10066000000041EB045170BD06F0004646EA01016E
:1006700040EA020081EA0301B4EB5C04C2BFD4EBA0
:100680000C0541EA045170BD41F480114FF0000E99
:10069000013C00F3AB8014F1360FDEBF002001F007
:1006A000004170BDC4F10004203C35DA0C341BDC81
:1006B00004F11404C4F1200500FA05F320FA04F053
:1006C00001FA05F240EA020001F0004221F0004187
:1006D00010EBD37021FA04F642EB06015EEA430EFA
:1006E00008BF20EAD37070BDC4F10C04C4F120052A
:1006F00000FA04F320FA05F001FA04F240EA0200DD
:1007000001F0004110EBD37041F100015EEA430EAD
:1007100008BF20EAD37070BDC4F1200500FA05F2CD
:100720004EEA020E20FA04F301FA05F243EA02034C
:1007300021FA04F001F0004121FA04F220EA02005B
:1007400000EBD3705EEA430E08BF20EAD37070BDA1
:1007500094F0000F0FD101F00046400041EB010181
:1007600011F4801F08BF013CF7D041EA060195F063
:10077000000F18BF704703F00046520043EB03031D
:1007800013F4801F08BF013DF7D043EA060370470A
:1007900094EA0C0F0CEA135518BF95EA0C0F0CD015
:1007A00050EA410618BF52EA4306D1D181EA03015B
:1007B00001F000414FF0000070BD50EA410606BF55
:1007C0001046194652EA430619D094EA0C0F02D19A
:1007D00050EA013613D195EA0C0F05D152EA0336DF
:1007E0001CBF104619460AD181EA030101F00041FD
:1007F00041F0FE4141F470014FF0000070BD41F046
:10080000FE4141F4780170BD70B54FF0FF0C4CF41F
:10081000E06C1CEA11541DBF1CEA135594EA0C0F3E
:1008200095EA0C0F00F0A7F8A4EB050481EA030E8B
:1008300052EA03354FEA013100F088804FEA033372
:100840004FF0805545EA131343EA12634FEA022240
:1008500045EA111545EA10654FEA00260EF0004101
:100860009D4208BF964244F1FD0404F5407402D253
:100870005B084FEA3202B61A65EB03055B084FEAE4
:1008800032024FF480104FF4002CB6EB020E75EBE1
:10089000030E22BFB61A754640EA0C005B084FEA09
:1008A0003202B6EB020E75EB030E22BFB61A754686
:1008B00040EA5C005B084FEA3202B6EB020E75EBD1
:1008C000030E22BFB61A754640EA9C005B084FEA49
:1008D0003202B6EB020E75EB030E22BFB61A754656
:1008E00040EADC0055EA060E18D04FEA051545EA45
:1008F00016754FEA06164FEAC30343EA52734FEAEE
:10090000C2025FEA1C1CC0D111F4801F0BD141EA66
:1009100000014FF000004FF0004CB6E711F4801FCB
:1009200004BF01430020B4F1FD0C88BFBCF5E06FAB
:100930003FF6AFAEB5EB030C04BFB6EB020C5FEABB
:10094000500C50F1000041EB045170BD0EF0004E10
:100950004EEA113114EB5C04C2BFD4EB0C0541EA42
:10096000045170BD41F480114FF0000E013C90E63F
:1009700045EA060E8DE60CEA135594EA0C0F08BF03
:1009800095EA0C0F3FF43BAF94EA0C0F0AD150EA02
:1009900001347FF434AF95EA0C0F7FF425AF104695
:1009A00019462CE795EA0C0F06D152EA03353FF4BD
:1009B000FDAE1046194622E750EA410618BF52EA3A
:1009C00043067FF4C5AE50EA41047FF40DAF52EA0E
:1009D00043057FF4EBAE12E74FF0FF3C06E000BFAB
:1009E0004FF0010C02E000BF4FF0010C4DF804CDB8
:1009F0004FEA410C7FEA6C5C4FEA430C18BF7FEA78
:100A00006C5C1BD001B050EA410C0CBF52EA430CA5
:100A100091EA030F02BF90EA020F0020704710F125
:100A2000000F91EA030F58BF994208BF90422CBFB4
:100A3000D8176FEAE37040F0010070474FEA410CAD
:100A40007FEA6C5C02D150EA013C07D14FEA430CCB
:100A50007FEA6C5CD6D152EA033CD3D05DF8040B3C
:100A6000704700BF8446104662468C46194663466E
:100A700000E000BF01B5FFF7B7FF002848BF10F145
:100A8000000F01BD4DF808EDFFF7F4FF0CBF01208A
:100A900000205DF808FB00BF4DF808EDFFF7EAFF06
:100AA00034BF012000205DF808FB00BF4DF808EDC1
:100AB000FFF7E0FF94BF012000205DF808FB00BFB6
:100AC0004DF808EDFFF7CEFF94BF012000205DF840
:100AD00008FB00BF4DF808EDFFF7C4FF34BF01204D
:100AE00000205DF808FB00BF4FEA410C7FEA6C5C18
:100AF00002D150EA013C0AD14FEA430C7FEA6C5C18
:100B000002D152EA033C02D14FF0000070474FF08F
:100B1000010070474FEA410212F5001215D211D5BB
:100B20006FF47873B3EB625212D94FEAC12343F0EA
:100B3000004343EA505311F0004F23FA02F018BF6C
:100B4000404270474FF00000704750EA013005D135
:100B500011F0004008BF6FF0004070474FF00000F8
:100B6000704700BF53B94AB9002908BF00281CBF0D
:100B70004FF0FF314FF0FF3000F076B9ADF1080CC7
:100B80006DE904CE00F006F8DDF804E0DDE90223AB
:100B900004B070472DE9F047089E0D46044688468C
:100BA000002B4DD18A42944668D9B2FA82F252B1F2
:100BB00001FA02F3C2F1200120FA01F10CFA02FC61
:100BC00041EA030894404FEA1C41B8FBF1F71FFAD1
:100BD0008CFE01FB178807FB0EF0230C43EA084349
:100BE00098420AD91CEB030307F1FF3580F01E8100
:100BF000984240F21B81023F63441B1AB3FBF1F0A1
:100C000001FB103300FB0EFEA4B244EA0344A645E8
:100C10000AD91CEB040400F1FF3380F00981A645DA
:100C200040F20681644402380021A4EB0E0440EA3D
:100C300007401EB10023D440C6E90043BDE8F08759
:100C40008B4208D9002E00F0EE800021C6E9000595
:100C50000846BDE8F087B3FA83F100294AD1AB42D8
:100C600002D3824200F2FC80841A65EB0303012068
:100C70009846002EE2D0C6E90048DFE702B9FFDE61
:100C8000B2FA82F2002A40F09180A1EB0C0001211F
:100C90004FEA1C471FFA8CFEB0FBF7F307FB13006B
:100CA000250C45EA00450EFB03F0A84208D91CEBD1
:100CB000050503F1FF3802D2A84200F2CE80434678
:100CC0002D1AB5FBF7F007FB10550EFB00FEA4B282
:100CD00044EA0544A64508D91CEB040400F1FF359D
:100CE00002D2A64500F2B6802846A4EB0E0440EAE4
:100CF00003409EE7C1F120078B4022FA07FC4CEA33
:100D0000030C25FA07FA4FEA1C49BAFBF9F820FA56
:100D100007F309FB18AA8D401FFA8CFE1D4300FA49
:100D200001F308FB0EF02C0C44EA0A44A04202FA3C
:100D300001F20BD91CEB040408F1FF3A80F0888023
:100D4000A04240F28580A8F102086444241AB4FB52
:100D5000F9F009FB104400FB0EFEADB245EA044475
:100D6000A64508D91CEB040400F1FF356CD2A6455A
:100D70006AD90238644440EA0840A0FB0295A4EB1B
:100D80000E04AC42C846AE4656D353D0002E69D0AE
:100D9000B3EB080264EB0E0422FA01F304FA07F73E
:100DA0001F43CC40C6E90074002147E70CFA02FC5F
:100DB000C2F1200125FA01F34FEA1C4720FA01F1A4
:100DC00095400D43B3FBF7F107FB11331FFA8CFE7F
:100DD000280C40EA034001FB0EF3834204FA02F4BC
:100DE00008D91CEB000001F1FF382FD283422DD926
:100DF00002396044C01AB0FBF7F307FB1300ADB231
:100E000045EA004503FB0EF0A84208D91CEB050596
:100E100003F1FF3816D2A84214D9023B6544281AC0
:100E200043EA014138E73146304607E72F46E4E61A
:100E30001846F9E64B45A9D2B9EB020865EB0C0E52
:100E40000138A3E74346EAE7284694E74146D1E75D
:100E5000D0467BE76444023847E7023B65442FE70E
:100E6000084606E73146E9E6704700BF10B5074C73
:100E70003C21204602F090FE236842F210725A6232
:100E8000034B00221A6000225A6010BD840C00201F
:100E9000DC09002000B585B0002301930293039381
:100EA0001E481F4A02604FF4807282600122027362
:100EB00003754FF46022C26143600323036101F0B4
:100EC000D3FAF0B90023019301220292039301A9FE
:100ED000124801F01FF9B8B90123019302230293CC
:100EE00001A90E4801F016F988B9022301930323E2
:100EF000029301A9094801F00DF958B905B05DF850
:100F000004FB00F02BF9DDE700F028F9E4E700F03E
:100F100025F9EAE700F022F9F0E700BFE409002034
:100F20000024014010B586B000230293039304937C
:100F300005930268224B9A4201D006B010BD0446C8
:100F400003F56C439A6942F400729A619A6902F45B
:100F500000720092009A9A6942F004029A619B69B9
:100F600003F004030193019B0723029303230393DC
:100F700002A9144801F0ECFC1348144B0360002351
:100F8000436083608022C2604FF4807202614FF43C
:100F90008062426120228261C36101F059FB58B92D
:100FA000094B23625C6200220521122001F0F4FA51
:100FB000122001F029FBC0E700F0D0F8F0E700BFF5
:100FC0000024014000080140140A002008000240EB
:100FD00000B583B00A4B5A6942F001025A615B695D
:100FE00003F001030193019B002205210B2001F076
:100FF000D3FA0B2001F008FB03B05DF804FB00BF3F
:10100000001002400000000008B505A3D3E900234A
:10101000054805F071F8642003F076FAF5E700BFA3
:101020000000002083C0F33F30C3000808B5102142
:10103000034801F0A5FD4FF47A7003F065FAF6E776
:101040000008014008B5074A0021074803F0E6F907
:10105000064B1860064A0021064803F0DFF9064BEC
:10106000186008BD78C30008091000085C0A002059
:1010700054C300082D100008580A00202DE9F04143
:1010800088B000240494059406940794294B9A6927
:1010900042F010029A619A6902F010020092009ADE
:1010A0009A6942F020029A619A6902F02002019244
:1010B000019A9A6942F004029A619A6902F0040264
:1010C0000292029A9A6942F008029A619B6903F0BF
:1010D00008030393039BDFF86080224641F6380142
:1010E000404601F047FD154E22460121304601F0F1
:1010F00041FD4FF4005304930594069404A910484D
:1011000001F026FC41F63803049301250595069469
:101110000227079704A9404601F01AFC049505959B
:101120000694079704A9304601F012FC08B0BDE808
:10113000F08100BF0010024000080140000C014097
:101140000010014008B50268034B9A4200D008BD68
:1011500000F0F4FEFBE700BF002C014072B6FEE792
:1011600000B595B0282200210DEB020004F072FFBB
:101170000023059306930793089309930193029321
:101180000393049301220A924FF480330B930E923F
:101190000222119212934FF4E01313930AA801F064
:1011A0000FFDC8B90F230593022106910023079371
:1011B0004FF480630893099305A801F041FF68B9D3
:1011C000022301934FF40043039301A802F032F885
:1011D00030B915B05DF804FBFFF7C0FFFFF7BEFFA5
:1011E000FFF7BCFF08B500F097FEFFF7B9FFFFF768
:1011F00045FFFFF74FFE00F0F3F900F09DF9FFF710
:10120000E7FE00F0F3F800F0D7FC00F06BFD1248A9
:1012100000F012FE64221149114801F061F81148F2
:1012200004F0CCFF0021104802F048FC0F4C0122D2
:101230004FF48051204601F09DFC01224FF40061E3
:10124000204601F097FCFFF711FE03F09FF8FFF72F
:10125000F9FE03F0BDF8FEE7CC0C0020600A002088
:10126000E40900209CC300083C0C00200008014059
:1012700000B583B0114B9A6942F001029A619A69F4
:1012800002F001020092009ADA6942F08052DA61BB
:10129000DB6903F080530193019B00220F216FF063
:1012A000010001F079F9064A536823F0E06343F046
:1012B0000073536003B05DF804FB00BF00100240F0
:1012C0000000014000B589B001460022192001F05C
:1012D00063F9192001F098F9154B9A6942F40062FC
:1012E0009A619B6903F400630193019B02A903A81F
:1012F00001F082FF01F070FF43000E48A0FB0323C2
:101300009B0C013B0C480D4A026040F2E732C26080
:10131000436000230361836002F0FAF918B10120F1
:1013200009B05DF804FB044802F0C2F8F8E700BF1A
:101330000010024083DE1B43F00B0020002C014014
:10134000FEE7FEE7FEE7FEE7FEE7704708B5024866
:1013500001F05CFA08BD00BF140A002008B502487D
:1013600000F043FE08BD00BFE409002008B50248B4
:1013700002F0D7F808BD00BFF00B002008B5024806
:1013800002F002FF08BD00BFCC0C00200120704716
:1013900008B504F035FE162303604FF0FF3008BD9A
:1013A00008B54FF0FF31FFF7F3FFFEE708B503463E
:1013B0000B4A126842B10A4A106803446A469342D3
:1013C00006D8074A136008BD054A06491160F2E7CE
:1013D00004F016FE0C2303604FF0FF30F3E700BF6C
:1013E000380C0020A82C00207047000000B58DB0FC
:1013F0002422002103A804F02DFE00230193029370
:101400001148124A0260436083604FF6FF72C26067
:10141000036183610323039301230593099303A9C4
:1014200002F0CEF950B900230193029301A90648B6
:1014300002F018FC28B90DB05DF804FBFFF78EFE32
:10144000F1E7FFF78BFEF6E7840C00200004004074
:101450000368B3F1804F00D0704782B003F50433C6
:10146000DA6942F00102DA61DB6903F001030193FA
:10147000019B02B07047000000B587B000230293C3
:101480000393049305930268104B9A4202D007B06D
:101490005DF804FB03F50333DA6942F00202DA6116
:1014A000DA6902F002020092009A9A6942F004029C
:1014B0009A619B6903F004030193019BC02302938B
:1014C00002A9034801F044FAE1E700BF000400402C
:1014D0000008014000B587B00023029303930493F2
:1014E00005930368B3F1804F02D007B05DF804FBA9
:1014F00003F504339A6942F004029A619B6903F090
:1015000004030193019B4FF40043029302230393CE
:10151000059302A9064801F01BFA064A536823F412
:10152000407343F0E06343F480735360DDE700BF32
:10153000000801400000014000B58FB000230A936D
:101540000B930C930D9308930993019302930393C8
:10155000049305930693079320484FF0804202605E
:101560004722426083602322C2600361836102F0EC
:10157000CFF820BB4FF480530A930AA9174802F012
:1015800021FAF8B9154802F0EFF8F0B900230893F2
:10159000099308A9114802F065FBC8B960230193BB
:1015A000002202920392059201A90C4802F096F9DA
:1015B00088B90A48FFF78EFF0FB05DF804FBFFF70C
:1015C000CDFDD7E7FFF7CAFDDCE7FFF7C7FDDDE795
:1015D000FFF7C4FDE2E7FFF7C1FDEAE73C0C00209E
:1015E00008B50A480A4B03604FF4E1334360002317
:1015F0008360C36003610C2242618361C36102F0B6
:1016000033FC00B908BDFFF7A9FDFBE7CC0C0020B7
:101610000038014030B587B0002302930393049350
:10162000059302681B4B9A4201D007B030BD03F509
:1016300058439A6942F480429A619A6902F480425E
:101640000092009A9A6942F004029A619B6903F041
:1016500004030193019B4FF400730293022303934D
:10166000032305930C4D02A9284601F071F94FF4AC
:101670008063029300240394049402A9284601F095
:1016800067F922460521252000F086FF252000F07D
:10169000BBFFCAE7003801400008014010B50D4CFF
:1016A00001224FF40061204601F064FA01224FF458
:1016B0008061204601F05EFA00224FF4006120466E
:1016C00001F058FA00224FF48061204601F052FAEE
:1016D00010BD00BF000C014010B50A4C00224FF4B1
:1016E0000061204601F046FA01224FF48061204655
:1016F00001F040FA01224FF40061204601F03AFA6D
:1017000010BD00BF000C014010B50A4C01224FF47F
:101710000061204601F02EFA01224FF4806120463C
:1017200001F028FA00224FF48061204601F022FAED
:1017300010BD00BF000C014070B50446002516E046
:1017400000224FF40061104801F014FA0E4E0122FD
:101750004FF48061304601F00DFA00224FF48061B1
:10176000304601F007FA6400E4B20135EDB2072D0E
:1017700009D814F0800FE3D001224FF40061024831
:1017800001F0F8F9E2E770BD000C014038B50446FD
:101790000D46FFF783FF7820FFF7CEFFFFF7B4FF7A
:1017A00065B14020FFF7C8FFFFF7AEFF2046FFF707
:1017B000C3FFFFF7A9FFFFF78FFF38BD0020FFF73A
:1017C000BBFFF1E738B500250FE0174B03EB04131F
:1017D000585DFFF7B1FFFFF797FF0134E4B24F2CDC
:1017E000F3D9FFF779FF0135EDB20F2D1BD8A5F125
:1017F00050000021C0B2FFF7C9FF00210846FFF7E3
:10180000C5FF00211020FFF7C1FFFFF747FF782039
:10181000FFF792FFFFF778FF4020FFF78DFFFFF7FC
:1018200073FF0024DBE738BD100D002008B5002051
:101830000AE0094A02EB0312002111540133DBB222
:101840004F2BF6D90130C0B20F2801D80023F7E79B
:10185000FFF7B8FF08BD00BF100D00204FEAD10C04
:1018600001F0070101238B40DBB242B10C4A02EBCD
:10187000001010F80C20134300F80C307047084A91
:1018800002EB001010F80C20D243D2B200F80C206A
:10189000134300F80C30DB4300F80C30704700BFF6
:1018A000100D00202DE9F04F85B09DF838400194CF
:1018B00010F0800F08D112F0800F25D13F2925D8D4
:1018C0003F2B02D93F2300E07F20994205D81C46D8
:1018D0000B4621461446024620469246A0EB0208DB
:1018E0009B46A1EB0309B8F1000F11DD0123029320
:1018F000B9F1000F18DD01230393C84520DD4646EA
:1019000000252F462C461FE07F22DEE73F21DCE743
:10191000B8F1000F05D0A2EB00084FF0FF3302939F
:10192000E6E7CDF80880E3E7B9F1000F05D0C8F18C
:1019300000094FF0FF330393DFE7CDF80C90DCE7AD
:101940004E46DDE70134A4B2B44213DC019A5FFADB
:101950008BF15FFA8AF0FFF781FF47444D44BE42A6
:1019600002DABF1B029B9A44AE42EBDAAD1B039B2B
:101970009B44E7E705B0BDE8F08F00002DE9F04F8C
:1019800085B0039001919A469DF83880082B12D0BB
:1019900013F0070318BF012303EBDA034FEA5A01E0
:1019A00001FB03F3DBB20293203A5FFA82FB039F51
:1019B0004FF000093FE006230293F5E70BEB4B03E2
:1019C0002D4A02EB430313F80960019D002419E03E
:1019D0000BEB4B03294A02EB830313F80960F4E78E
:1019E000274B03EB0B1313F80960EEE7B8FA88F204
:1019F000520939462846FFF731FF76080135EDB226
:101A00000134E4B20F2C08D816F0010FEED0424694
:101A100039462846FFF722FFEFE70137FFB2BAF158
:101A2000080F04D0039BFB1AB3EB5A0F1AD009F12D
:101A300001095FFA89F9029B994519D2BAF1080F99
:101A4000BCD0BAF10C0FC3D0BAF1100FC8D0BAF1A4
:101A5000180F0DD10BEBCB030A4A02EB830313F8EB
:101A60000960B2E7019B0833DBB20193039FDEE715
:101A700005B0BDE8F08F00BF34C800085CCA00089C
:101A8000D0CE0008C0D400082DE9F04182B0044651
:101A90000F4615461E469DF8208002E00634E4B24B
:101AA00001352A78A2F12000C0B25E280CD8CDF80A
:101AB0000080334639462046FFF760FF082EEDD000
:101AC00004EB5604E4B2EBE702B0BDE8F08100009D
:101AD0002DE9F04F85B00290019193469A469DF80A
:101AE000388013F0070318BF012303EBDA0303FB6D
:101AF0000AF3039307464FF0000936E02A4B03EB45
:101B00004B1313F80960019D002419E00BEBCB0384
:101B1000264A02EBC30313F80960F4E7244B03EBF6
:101B2000CB1313F80960EEE7B8FA88F25209394688
:101B30002846FFF793FE76080135EDB20134E4B292
:101B4000072C08D816F0010FEED042463946284639
:101B5000FFF784FEEFE70137FFB2029BFB1A534504
:101B600018D009F101091FFA89F9039B994517D289
:101B7000BAF1100FC2D0BAF1180FC7D0BAF1200FC6
:101B8000CCD0BAF1400F0BD10A4B03EB4B2313F827
:101B90000960B8E7019B0833DBB20193029FE0E7DD
:101BA00005B0BDE8F08F00BFECC300086CC50008AD
:101BB000B4C5000834C60008F0B587B0474B9A6931
:101BC00042F008029A619B6903F008030193019BAC
:101BD0004FF400630293112703970326059601250E
:101BE00004953F4C02A9204600F0B2FE4FF48063FA
:101BF000029303970596049502A9204600F0A8FEDB
:101C0000322000F0ADF90021AE20FFF7BFFD00212A
:101C10000846FFF7BBFD00211020FFF7B7FD0021AC
:101C20002020FFF7B3FD00218120FFF7AFFD002149
:101C30006F20FFF7ABFD0021A120FFF7A7FD0021DA
:101C4000C020FFF7A3FD0021A420FFF79FFD002186
:101C5000A620FFF79BFD0021D520FFF797FD00216F
:101C60009120FFF793FD0021D920FFF78FFD002180
:101C70002220FFF78BFD0021DB20FFF787FD0021ED
:101C80003F20FFF783FD0021A820FFF77FFD002103
:101C90004F20FFF77BFD0021D320FFF777FD0021C8
:101CA0006820FFF773FD0021DC20FFF76FFD0021A6
:101CB0000846FFF76BFD0021AD20FFF767FD00210F
:101CC0008A20FFF763FDFFF7B1FD0021AF20FFF78A
:101CD0005DFD142000F044F907B0F0BD0010024093
:101CE000000C0140F0B583B00124009418234C4A45
:101CF00000210820FFF7C8FE00940C23494A002168
:101D00003020FFF7C1FE00940C23474A19463020CB
:101D1000FFF7BAFE00945023182219460220FFF75D
:101D2000C1FD00945123182219460220FFF7BAFD85
:101D300000250095102308221C211046FFF7C8FE3D
:101D40000095102309221C211820FFF7C1FE0095E1
:101D500010230A221C212820FFF7BAFE00942B46EC
:101D6000502229461C20FFF79DFD00942346502257
:101D700021461C20FFF796FD0095102308221C2108
:101D80004820FFF7A5FE0095102309221C215820AA
:101D9000FFF79EFE009510230B221C216820FFF701
:101DA00097FE00944023502219461C20FFF77AFD2D
:101DB00000944123502219461C20FFF773FD1B4F4E
:101DC00000940C233A462C210820FFF75DFE184EA4
:101DD00000940C23324638210820FFF755FE154D9C
:101DE00000940C232A4644210820FFF74DFE00945E
:101DF0000C233A462C214820FFF746FE00940C2382
:101E0000324638214820FFF73FFE00940C232A4633
:101E100044214820FFF738FEFFF7D4FC03B0F0BDA3
:101E2000CCC30008D0C30008D8C30008E0C3000832
:101E3000E4C30008E8C3000808B5054B1860054B6B
:101E40001868002302221946806804F0BFF908BD13
:101E50001013002010000020022801D80120704734
:101E600008B504F0CDF809230360002008BD000088
:101E700010B5013801280AD814464FF0FF3392B24A
:101E80000748006802F01FF840B9204610BD04F072
:101E9000B7F8092303604FF0FF30F7E70520F5E7B7
:101EA00010130020022801D80020704708B504F064
:101EB000A7F8092303604FF0FF3008BD08B504F010
:101EC0009FF8092303604FF0FF3008BD08B548B9FB
:101ED0004FF0FF3301220848006802F060F840B973
:101EE000012008BD04F08CF8092303604FF0FF3097
:101EF000F7E70520F5E700BF1013002008B502281A
:101F000004D84FF400534B60002008BD04F078F86B
:101F100009230360F8E7000008B5074A136843F097
:101F200010031360032000F025FB0F20FFF7CAF910
:101F3000FFF79EF9002008BD00200240034A116807
:101F4000034B1B780B441360704700BF1413002031
:101F500004000020014B1868704700BF14130020D4
:101F600038B50446FFF7F6FF0546B4F1FF3F02D04F
:101F7000044B1B781C44FFF7EDFF401BA042FAD333
:101F800038BD00BF04000020704708B5436A9A6A54
:101F900012F0500F1ED19A6A42F400729A621A68C7
:101FA000926802F46022B2F5602F03D01846FFF762
:101FB000EBFF08BD1A7B002AF8D19A6A22F48072DE
:101FC0009A629A6A12F4805FF0D19A6A42F0010232
:101FD0009A62EBE71B6A1B6B9847EAE7704708B504
:101FE000406AFFF7FBFF08BD704710B50446036861
:101FF0005A6812F0200F18D01A6812F0020F14D08D
:10200000826A12F0100F03D1826A42F40072826277
:102010009A6802F46022B2F5602F38D02046FFF7AC
:10202000B3FF23686FF012021A6023685A6812F037
:10203000800F22D01A6812F0040F1ED0A26A12F08C
:10204000100F03D1A26A42F40052A2629A6802F40D
:10205000E042B2F5E04F31D05A6812F4806F05D1FA
:102060009A6802F46022B2F5602F24D0204600F076
:102070007FFA23686FF00C021A6023685A6812F026
:10208000400F03D01B6813F0010F28D110BD227B35
:10209000002AC3D15A6822F020025A60A36A23F4AE
:1020A0008073A362A36A13F4805FB7D1A36A43F07D
:1020B0000103A362B2E7227B002AD7D15A6822F03B
:1020C00080025A60A36A23F48053A362A36A13F4C4
:1020D000807FCBD1A36A43F00103A362C6E7A36A62
:1020E00043F48033A3622046FFF77EFF23686FF03E
:1020F00001021A60CAE7704708B5406A836A43F074
:1021000040038362C36A43F00403C362FFF7F3FF33
:1021100008BD000030B482B00022019290F8242063
:10212000012A00F091800346012280F824204A68A9
:10213000062A2DD80468606B02EB8202053A4FF044
:102140001F0C0CFA02FC20EA0C000D6805FA02F2E2
:10215000024362630A68092A3AD91C68E06802EB04
:1021600042021E3A4FF0070C0CFA02FC20EA0C0067
:102170008D6805FA02F20243E2600A68103A012A09
:1021800036D90020002283F8242002B030BC7047EA
:102190000C2A0ED80568286B02EB8202233A1F2412
:1021A000944020EA04000C6804FA02F202432A6315
:1021B000D0E70568E86A02EB8202413A1F249440A6
:1021C00020EA04000C6804FA02F20243EA62C1E762
:1021D0001C68206902EB42024FF0070C0CFA02FC6B
:1021E00020EA0C008D6805FA02F202432261C4E77E
:1021F0001A681648824205D09A6A42F020029A6212
:102200000120BFE7906810F4000F1BD1906840F4E4
:10221000000090600A68102A01D00020B2E70C4A42
:1022200012680C49A1FB0212920C02EB82025200CE
:10223000019202E0019A013A0192019A002AF9D131
:1022400000209FE700209DE702209EE70024014038
:102250000000002083DE1B4330B583B000230193D0
:1022600003689A6812F0010F33D104469A6842F06D
:1022700001029A60184B1B68184AA2FB03239B0CAF
:10228000019302E0019B013B0193019B002BF9D1DB
:10229000FFF760FE054623689B6813F0010F16D117
:1022A000FFF758FE431B022BF5D923689B6813F0F8
:1022B000010FF0D1A36A43F01003A362E36A43F075
:1022C0000103E362002384F82430012002E00020AF
:1022D00000E0002003B030BD0000002083DE1B437F
:1022E000F8B504460D46164601684448814259D067
:1022F000434B994256D094F82430012B7CD00123D3
:1023000084F824302046FFF7A7FF074600286ED147
:10231000A16A21F4706121F0010141F48071A16290
:102320002268374B9A4244D0A36A23F48013A362F5
:10233000536813F4806F05D0A36A23F4405343F429
:102340008053A362A36A13F4805F48D0E36A23F04A
:102350000603E362002384F82430236A294A9A6240
:10236000236A294ADA62236A284A1A6323686FF0CB
:1023700002021A602268936843F4807393602168B4
:1023800033462A464C31206A00F098F923689A684F
:1023900002F46022B2F5602F24D09A6842F48012D1
:1023A0009A6027E0154B5B6813F4702FA3D00127C8
:1023B00020E0A3F580635B6813F4702FB4D0A36AA8
:1023C00043F48013A3620D4B5B6813F4806FB9D0A4
:1023D000A36A23F4405343F48053A362B2E700237B
:1023E000E362B7E79A6842F4A0029A6002E0002331
:1023F00084F824303846F8BD0227FBE7002401406A
:10240000002801408B1F0008DF1F0008F92000088A
:1024100038B503689A6812F0010F01D1002038BD69
:1024200004469A6822F001029A60FFF793FD054680
:1024300023689B6813F0010F13D0FFF78BFD431B3C
:10244000022BF5D923689B6813F0010FF0D0A36A23
:1024500043F01003A362E36A43F00103E362012047
:10246000DDE70020DBE7000000287BD070B50446E4
:10247000836A002B4DD02046FFF7CAFFA36A13F0F2
:10248000100369D1002867D1A26A22F4885222F091
:10249000020242F00202A2626268E1690A43217B01
:1024A00042EA4102A568B5F5807F02D0012D36D001
:1024B0001D46267D012E35D02668716821F46941BC
:1024C000294371602568AE68274931401143A960EE
:1024D000A168B1F5807F01D0012902D12369013BB8
:1024E0001B052568E96A21F470010B43EB62236840
:1024F00099681E4B0B409A4225D0A36A23F0120321
:1025000043F01003A362E36A43F00103E362012096
:1025100027E0C36280F82430FEF704FDABE74FF4F8
:102520008075C6E731B9A169013945EA413141F405
:102530000065C1E7A16A41F02001A162E16A41F0B2
:102540000101E162B8E70023E362A36A23F0030319
:1025500043F00103A36204E0A36A43F01003A36203
:10256000012070BD01207047FDF7E1FFFE0E1FFF47
:1025700070470000074AD36823F4E0631B041B0C78
:10258000000200F4E060034343F0BF6343F4003310
:10259000D360704700ED00E000B5194BDB68C3F372
:1025A0000223C3F1070CBCF1040F28BF4FF0040C49
:1025B00003F1040EBEF1060F18D9033B4FF0FF3EA6
:1025C0000EFA0CFC21EA0C0199400EFA03F322EA00
:1025D0000303194300280BDB0901C9B200F1604075
:1025E00000F5614080F800135DF804FB0023E5E787
:1025F00000F00F000901C9B2024B1954F4E700BF03
:1026000000ED00E014ED00E0002807DB00F01F0201
:10261000400901239340024A42F82030704700BF2E
:1026200000E100E030B40124056CAC40C56B6C6087
:10263000046863604368102B05D0036899600368E1
:10264000DA6030BC704703689A600368D960F8E7C5
:1026500060B310B402460168154B0B441548A0FB4B
:1026600003031B099B001364134BD363022382F8FB
:102670002130086820F47F5020F0300053689468BF
:102680002343D4682343146923435469234394693F
:102690002343D469234303430B6000209063012349
:1026A00082F8213082F8200010BC7047012070476A
:1026B000F8FFFDBFCDCCCCCC0000024038B50446BD
:1026C00090F82000012831D0012084F8200094F8EF
:1026D0002100012804D0002384F82030022038BDD6
:1026E000022084F821000020A0632568286820F0DB
:1026F000010028602046FFF795FFE36A5BB122687E
:10270000136843F00E0313602268136843F001035B
:1027100013600020E3E72268136823F004031360CA
:102720002268136843F00A031360EDE70220D6E73E
:1027300090F82130022B06D004238363002380F815
:102740002030012070470268136823F00E031360E5
:102750000268136823F001031360036CC16B01224C
:1027600002FA03F34B6080F82120002380F8203028
:102770001846704708B590F82130022B03D0042387
:102780008363012008BD0268136823F00E03136001
:102790000268136823F0010313600368194A934227
:1027A00014D0143293421FD0143293421ED01432EC
:1027B00093421ED0143293421ED01432934202D060
:1027C0004FF0807203E04FF4801200E001220E4BC4
:1027D0005A60012380F82130002380F82030436BB9
:1027E0006BB198470020CDE71022F0E74FF48072DC
:1027F000EDE74FF48052EAE74FF48032E7E700203C
:10280000C0E700BF080002400000024038B5C36BBB
:102810001A6804682568016C04238B40134235D084
:1028200015F0040F32D0236813F0200F03D1236872
:1028300023F0040323600368434A934214D0143204
:10284000934218D01432934217D01432934217D0C7
:102850001432934217D01432934202D04FF0806268
:1028600003E04FF4800200E00422384B5A60C36A50
:1028700003B1984738BD4022F7E74FF48062F4E790
:102880004FF48042F1E74FF48022EEE702238B40C1
:1028900013423CD015F0020F39D0236813F0200FFB
:1028A00006D1236823F00A032360012380F8213036
:1028B0000368254A934214D0143293421CD0143238
:1028C00093421BD0143293421BD0143293421BD03C
:1028D0001432934202D04FF0007203E04FF4001222
:1028E00000E00222194B5A60002380F82030836AEE
:1028F000002BBFD09847BDE72022F3E74FF40072CA
:10290000F0E74FF40052EDE74FF40032EAE7082316
:1029100003FA01F11142ADD015F0080FAAD02368D7
:1029200023F00E032360026CC16B012303FA02F251
:102930004A60836380F82130002380F82030036BE5
:10294000002B97D0984795E708000240000002400E
:1029500070B582B00024A446A6E0804DAA4210D0F3
:1029600007D97F4DAA420CD005F58035AA4208D080
:1029700013E0A5F58015AA4203D005F57025AA42FB
:1029800007D18A68002A58D0012A51D0436108240F
:1029900003E0A5F58015AA42F3D0BEF1FF0F4ED893
:1029A0000646BEF1FF0F4CD84FEA8C0233680F2564
:1029B000954023EA050304FA02F2134333604B689F
:1029C00013F0805F6ED0674B9A6942F001029A6102
:1029D0009B6903F001030193019B4FEA9C02951C44
:1029E000614B53F825600CF003039D000F23AB40AF
:1029F00026EA03065D4B984229D003F5806398428E
:102A000000F08E8003F58063984200F08B8003F520
:102A10008063984219D004231AE0CC68BDE7CC68E3
:102A20000434BAE7CC680834B7E7CC680C34B4E7B0
:102A300003610824B1E70024AFE70424ADE7061DD5
:102A4000AFE7ACF108029200B0E7032300E00023F7
:102A5000AB4033430232444D45F822304B6813F407
:102A6000803F61D0424A136843EA0E0313604B680B
:102A700013F4003F5ED03E4A536843EA0E035360AE
:102A80004B6813F4801F5BD0394A936843EA0E0306
:102A900093604B6813F4001F58D0354AD36843EA5B
:102AA0000E03D3600CF1010C0A6832FA0CF353D018
:102AB000012303FA0CF302EA030E33EA0202F1D116
:102AC0004A68122A3FF649AF122A3FF666AF01A5BF
:102AD00055F822F0832900081B2A0008252A00083F
:102AE000372A00089B2900089B2900089B29000819
:102AF0009B2900089B2900089B2900089B290008A6
:102B00009B2900089B2900089B2900089B29000895
:102B10009B2900089B2900081F2A00082B2A00086F
:102B2000012395E7022393E7114A136823EA0E0372
:102B300013609CE70E4A536823EA0E0353609FE735
:102B40000B4A936823EA0E039360A2E7084AD3680E
:102B500023EA0E03D360A5E702B070BD0000221087
:102B60000000311000100240000001400008014048
:102B7000000401400AB10161704709040161704716
:102B8000C36801EA030221EA030141EA024101614B
:102B90007047000082B0084B1B68084AA2FB032361
:102BA0005B0A00FB03F3019300BF019B5A1E0192D5
:102BB000002BF9D102B0704700000020D34D621005
:102BC000002800F0F18170B582B00446036813F06C
:102BD000010F2CD0994B5B6803F00C03042B1DD024
:102BE000964B5B6803F00C03082B12D06368B3F5B7
:102BF000803F41D0002B55D103F1804303F50433CE
:102C00001A6822F480321A601A6822F480221A604C
:102C100037E08A4B5B6813F4803FE7D0874B1B6833
:102C200013F4003F03D06368002B00F0BF812368DA
:102C300013F0020F75D0814B5B6813F00C0F5FD05F
:102C40007E4B5B6803F00C03082B54D02369002BE8
:102C500000F08A807A4B01221A60FFF77BF9054663
:102C6000764B1B6813F0020F75D1FFF773F9401B09
:102C70000228F5D903209EE1704A136843F480339B
:102C80001360636843B3FFF765F905466B4B1B6838
:102C900013F4003FCBD1FFF75DF9401B6428F5D951
:102CA000032088E1B3F5A02F09D0644B1A6822F401
:102CB00080321A601A6822F480221A60E1E703F178
:102CC0008043A3F53C331A6842F480221A601A68E4
:102CD00042F480321A60D4E7FFF73CF90546574BBF
:102CE0001B6813F4003FA2D0FFF734F9401B64289F
:102CF000F5D903205FE1514B5B6813F4803FA5D108
:102D00004E4B1B6813F0020F03D02369012B40F0D8
:102D10004F814A4A136823F0F803616943EAC1030B
:102D20001360236813F0080F33D0A369002B5CD025
:102D3000434B0122C3F88024FFF70CF905463F4BB3
:102D40005B6A13F0020F21D1FFF704F9401B022840
:102D5000F5D903202FE1394A136823F0F80361699C
:102D600043EAC1031360DCE7354B00221A60FFF72A
:102D7000F1F80546314B1B6813F0020FD1D0FFF775
:102D8000E9F8401B0228F5D9032014E10120FFF7E0
:102D900001FF236813F0040F00F09680274BDB69D6
:102DA00013F0805F34D1254BDA6942F08052DA614A
:102DB000DB6903F080530193019B0125214B1B68C4
:102DC00013F4807F26D0E368012B3DD0002B53D134
:102DD00003F1804303F504331A6A22F001021A62F8
:102DE0001A6A22F004021A6233E0154B0022C3F87B
:102DF0008024FFF7AFF80546104B5B6A13F0020F13
:102E0000C7D0FFF7A7F8401B0228F5D90320D2E06E
:102E10000025D3E70B4A136843F480731360FFF770
:102E200099F80646074B1B6813F4807FCBD1FFF758
:102E300091F8801B6428F5D90320BCE00010024003
:102E400000004242007000405F4A136A43F00103F1
:102E50001362E36833B3FFF77DF806465A4B1B6AEB
:102E600013F0020F2FD1FFF775F8801B41F2883362
:102E70009842F3D903209EE0052B09D0524B1A6AE1
:102E800022F001021A621A6A22F004021A62E0E7D2
:102E90004D4B1A6A42F004021A621A6A42F00102A9
:102EA0001A62D6E7FFF756F80646474B1B6A13F03F
:102EB000020F08D0FFF74EF8801B41F2883398428A
:102EC000F3D9032077E0E5B9E369002B72D03E4ADD
:102ED000526802F00C02082A56D0022B17D03B4B46
:102EE00000221A66FFF736F80446374B1B6813F0CA
:102EF000007F47D0FFF72EF8001B0228F5D90320EA
:102F000059E0314AD36923F08053D361DCE72F4B7A
:102F100000221A66FFF71EF805462B4B1B6813F0BC
:102F2000007F06D0FFF716F8401B0228F5D90320D2
:102F300041E0236AB3F5803F1AD023494B6823F45C
:102F40007413226A606A024313434B601F4B0122D1
:102F50001A66FEF7FFFF04461B4B1B6813F0007F49
:102F60000ED1FEF7F7FF001B0228F5D9032022E05F
:102F7000154A536823F40033A1680B435360DCE720
:102F8000002018E0002016E0012B16D00E4B5B68E5
:102F900003F48031226A914211D103F47013626A02
:102FA00093420ED1002006E001207047012002E08C
:102FB000012000E0002002B070BD0120FBE70120ED
:102FC000F9E70120F7E700BF00100240000042428D
:102FD00086B0174B0FCB0DF1180C0CE90F0040F227
:102FE0000123ADF80430134B5B6803F00C02082A90
:102FF00002D0114806B07047C3F3834218326A44C6
:1030000012F8100C13F4803F0DD00A4B5B68C3F329
:10301000404318336B4413F8143C074A02FB00F09A
:10302000B0FBF3F0E6E7054B03FB00F0E2E700BF7F
:103030001CE200080010024000127A0000093D0066
:10304000002800F0A08070B50D460446524B1B6866
:1030500003F007038B420BD24F4A136823F0070398
:103060000B431360136803F007038B4240F08D801D
:10307000236813F0020F17D013F0040F04D0474A4F
:10308000536843F4E0635360236813F0080F04D0DF
:10309000424A536843F460535360404A536823F0F4
:1030A000F003A1680B435360236813F0010F31D084
:1030B0006368012B20D0022B25D0384A126812F009
:1030C000020F64D035494A6822F0030213434B6073
:1030D000FEF740FF0646314B5B6803F00C03626865
:1030E000B3EB820F16D0FEF735FF801B41F2883319
:1030F0009842F0D9032045E0284A126812F4003FB4
:10310000E0D101203EE0254A126812F0007FD9D1BB
:10311000012037E0204B1B6803F00703AB420AD9BC
:103120001D4A136823F007032B431360136803F051
:103130000703AB422DD1236813F0040F06D0174AC2
:10314000536823F4E063E1680B435360236813F092
:10315000080F07D0114A536823F46053216943EAEA
:10316000C1035360FFF734FF0C4B5B68C3F30313D9
:103170000B4AD35CD8400B4B18600B4B1868FEF71A
:10318000A1F8002070BD012070470120FAE701205E
:10319000F8E70120F6E700BF0020024000100240DF
:1031A000B4C300080000002008000020014B18688C
:1031B000704700BF0000002008B5FFF7F7FF044B81
:1031C0005B68C3F30223034AD35CD84008BD00BF49
:1031D00000100240C4C3000808B5FFF7E7FF044B26
:1031E0005B68C3F3C223034AD35CD84008BD00BF69
:1031F00000100240C4C300080F2303600B4B5A6841
:1032000002F0030242605A6802F0F00282605A68DB
:1032100002F4E062C2605B68DB0803F4E063036110
:10322000034B1B6803F007030B607047001002405C
:103230000020024070B582B00446036813F0010F0D
:1032400036D03F4BDB6913F0805F49D13C4BDA69E4
:1032500042F08052DA61DB6903F080530193019BF5
:103260000125384B1B6813F4807F3BD0344B1B6A1D
:1032700013F4407313D0626802F440729A420ED085
:103280002F4A136A23F440702F490126C1F8406485
:103290000026C1F84064106213F0010F36D1284AAD
:1032A000136A23F4407361680B431362002D3ED10F
:1032B000236813F0020F06D0214A536823F44043D9
:1032C000A1680B435360236813F0100F34D01C4ADD
:1032D000536823F48003E1680B43536000202CE023
:1032E0000025BEE7174A136843F480731360FEF7A6
:1032F00031FE0646134B1B6813F4807FB6D1FEF7F0
:1033000029FE801B6428F5D9032016E0FEF722FE73
:1033100006460B4B1B6A13F0020FC0D1FEF71AFED4
:10332000801B41F288339842F3D9032005E0D3692A
:1033300023F08053D361BBE7002002B070BD00BF13
:1033400000100240007000400000424270B4036A66
:1033500023F001030362036A4668826922F0730264
:103360000C6844EA020523F002028B6813430D4CFB
:10337000A04209D00B4CA0420DD0466085614A683E
:103380004263036270BC704723F00803CA681343AA
:1033900023F00403EEE726F440764A6932438E694F
:1033A0001643EAE7002C014030B4036A23F480732B
:1033B0000362036A4568C26922F073020C68224303
:1033C00023F400738C6843EA04230F4CA04209D015
:1033D0000D4CA0420ED04560C2614A68C2630362D0
:1033E00030BC704723F40063CC6843EA042323F421
:1033F0008063EDE725F440554C6945EA04158C6976
:1034000045EA0415E7E700BF002C014030B4036A29
:1034100023F480530362036A4468C26922F4E642DB
:103420000D6842EA052223F400538D6843EA053310
:10343000074DA84206D04460C2614A680264036234
:1034400030BC704724F480444D6944EA8514F2E7A7
:10345000002C014010B4036A046A24F001040462E1
:10346000846924F0F00C4CEA021223F00A030B43A7
:103470008261036210BC704710B4046A24F0100427
:1034800004628469036A24F4704C4CEA023223F02B
:10349000A00343EA01138261036210BC7047836892
:1034A00023F070030B4343F0070383607047000071
:1034B00090F83D30DBB2012B27D1022380F83D305C
:1034C0000268D36843F00103D3600368114A934252
:1034D00010D0B3F1804F0DD0A2F59432934209D0B1
:1034E00002F58062934205D01A6842F001021A6028
:1034F000002070479A6802F00702062A07D01A686F
:1035000042F001021A60002070470120704700203D
:10351000704700BF002C01407047704770477047EC
:10352000704710B5044603681A6912F0020F11D0F3
:10353000DA6812F0020F0DD06FF002021A61012357
:10354000037703689B6913F0030F70D0FFF7E6FF62
:103550000023237723681A6912F0040F12D0DA6867
:1035600012F0040F0ED06FF004021A6102232377C9
:1035700023689B6913F4407F5FD02046FFF7CEFF9E
:103580000023237723681A6912F0080F12D0DA6833
:1035900012F0080F0ED06FF008021A61042323778F
:1035A0002368DB6913F0030F4ED02046FFF7B6FF08
:1035B0000023237723681A6912F0100F12D0DA68FB
:1035C00012F0100F0ED06FF010021A61082323774B
:1035D0002368DB6913F4407F3DD02046FFF79EFF50
:1035E0000023237723681A6912F0010F03D0DA68E9
:1035F00012F0010F36D123681A6912F0800F03D040
:10360000DA6812F0800F34D123681A6912F0400F83
:1036100003D0DA6812F0400F32D123681A6912F031
:10362000200F03D0DA6812F0200F30D110BDFFF761
:1036300074FF2046FFF773FF8AE72046FFF76DFF10
:103640002046FFF76CFF9BE72046FFF766FF20460A
:10365000FFF765FFACE72046FFF75FFF2046FFF767
:103660005EFFBDE76FF001021A612046FDF76AFDBB
:10367000C1E76FF080021A61204600F02AFBC3E721
:103680006FF040021A612046FFF74AFFC5E76FF06E
:1036900020021A61204600F01BFBC7E703681B4AA3
:1036A00090420AD0B0F1804F07D0A2F594329042F8
:1036B00003D002F58062904203D123F070034A6880
:1036C0001343124A90420AD0B0F1804F07D0A2F5BE
:1036D0009432904203D002F58062904203D123F4E9
:1036E0004073CA68134323F080034A69134303609D
:1036F0008B68C3620B688362044B984202D001233B
:10370000436170470B690363F9E700BF002C014078
:1037100040B310B5044690F83D30F3B1022384F86D
:103720003D30214651F8040BFFF7B8FF012384F820
:10373000463084F83E3084F83F3084F8403084F8D6
:10374000413084F8423084F8433084F8443084F8BF
:10375000453084F83D30002010BD80F83C30FDF746
:1037600077FEDBE70120704740B310B5044690F8C0
:103770003D30F3B1022384F83D30214651F8040B6B
:10378000FFF78CFF012384F8463084F83E3084F83C
:103790003F3084F8403084F8413084F8423084F877
:1037A000433084F8443084F8453084F83D300020BC
:1037B00010BD80F83C30FFF7AFFEDBE7012070471B
:1037C000002857D070B50D46044690F83D30002BC8
:1037D0004BD0022384F83D302268936823F4804361
:1037E00023F007039360214651F8040BFFF756FFBF
:1037F00021688A688B690E6A2868104323F4407C2C
:103800002CF0030CAA68AB6942EA032343EA0C03D9
:1038100023F47C4323F0FC03EA69D5F80CC04CEA9E
:10382000022C4CEA030C2A6A13032A6943EA0213A6
:1038300043EA0C0326F022066A686D6942EA051223
:103840003243886021688B6123681A62012384F8FF
:10385000463084F83E3084F83F3084F8423084F8B3
:10386000433084F83D30002070BD80F83C30FDF7D7
:1038700003FEAEE70120704730B4036A23F0100363
:103880000362036A4468826922F4E6420D6842EAF0
:10389000052223F020038D6843EA05130E4DA8424C
:1038A00009D00D4DA8420ED0446082614A688263FF
:1038B000036230BC704723F08003CD6843EA0513F0
:1038C00023F04003EDE724F440644D6944EA8504A5
:1038D0008D6944EA8504E7E7002C014038B590F88B
:1038E0003C30012B60D004460D46012380F83C306B
:1038F0000C2A1AD8DFE802F0071919191D1919192D
:103900003119191944000068FFF720FD22689369F6
:1039100043F0080393612268936923F004039361E1
:103920002268936929690B439361002084F83C0065
:1039300038BD0068FFF7A0FF2268936943F4006375
:1039400093612268936923F4806393612268936989
:10395000296943EA01239361E7E70068FFF724FD43
:103960002268D36943F00803D3612268D36923F046
:103970000403D3612268D36929690B43D361D4E777
:103980000068FFF743FD2268D36943F40063D36105
:103990002268D36923F48063D3612268D3692969DB
:1039A00043EA0123D361C0E70220C1E710B4846871
:1039B00024F47F4C42EA03220A4342EA0C0282606A
:1039C00010BC704790F83C30012B66D010B504460F
:1039D000012380F83C30022380F83D300268936870
:1039E00023F47F4323F0770393600B68602B40D070
:1039F00022D8402B47D00BD9502B0ED1CA6849682A
:103A00000068FFF727FD50212068FFF748FD04E01C
:103A1000202B0CD008D9302B09D0012384F83D305D
:103A2000002084F83C0010BD0BB1102BF5D11946D5
:103A30002068FFF734FDF0E7702B0ED0B3F5005F80
:103A4000EBD1CB684A6889680068FFF7AFFF22684E
:103A5000936843F480439360DFE7CB684A688968E2
:103A60000068FFF7A3FF2268936843F07703936031
:103A7000D3E7CA6849680068FFF7FEFC6021206848
:103A8000FFF70DFDC9E7CA6849680068FFF7E2FC67
:103A900040212068FFF703FDBFE70220704701F0D7
:103AA0001F01012303FA01FC036A23EA0C030362EA
:103AB000036A02FA01F10B430362704710B5044632
:103AC000084651BB94F83E30DBB2013B18BF0123DE
:103AD000002B5BD1002839D1022384F83E3001222B
:103AE00001462068FFF7DBFF23682A4A93423DD056
:103AF0002368284A93423ED0B3F1804F3BD0A2F5D1
:103B00009432934237D002F58062934233D01A68E0
:103B100042F001021A60002039E0042908D0082987
:103B20000DD094F84130DBB2013B18BF0123CFE741
:103B300094F83F30DBB2013B18BF0123C8E794F88B
:103B40004030DBB2013B18BF0123C1E7042805D098
:103B5000082807D0022384F84130C0E7022384F804
:103B60003F30BCE7022384F84030B8E75A6C42F497
:103B700000425A64BCE79A6802F00702062A07D09E
:103B80001A6842F001021A60002000E0012010BD16
:103B90000020FCE7002C014038B5044690F83E00B8
:103BA000C0B294F83F3094F84220D2B294F843C0A7
:103BB0000D46B1B9012849D1012A48D1022384F820
:103BC0003E3084F842307DB3042D39D001220021EB
:103BD0002068FFF764FF012204212068FFF75FFFE0
:103BE00027E0DBB25FFA8CFC042912D0012833D124
:103BF000012B2CD1012A31D1BCF1010F30D102238C
:103C000084F83E3084F83F3084F8423084F8433002
:103C1000D9E7012B1CD1BCF1010F1BD1022384F881
:103C20003F3084F84330CEE7012200212068FFF7BF
:103C300036FF2268136843F001031360002006E09A
:103C4000012204212068FFF72AFFF2E7012038BD96
:103C50000120FCE71846FAE70120F8E71846F6E7E6
:103C60001046F4E790F83C30012B2CD010B401231F
:103C700080F83C30022380F83D3003685A689C6825
:103C800022F0700C0A6842EA0C025A6003680F4A7C
:103C900093420AD0B3F1804F07D0A2F594329342F9
:103CA00003D002F58062934204D124F080044A6874
:103CB00014439C60012380F83D30002380F83C30A1
:103CC000184610BC70470220704700BF002C01400E
:103CD000704770470268D36823F49073D36002681A
:103CE000536923F001035361036B012B05D020239B
:103CF00080F83E300023036370470268D36823F0E6
:103D00001003D360F3E790F83D30DBB2212B01D0F4
:103D1000022070478368B3F5805F17D0036A5A1C8E
:103D200002621A7803685A60C38C9BB2013B9BB253
:103D3000C3844BB90268D36823F08003D360026860
:103D4000D36843F04003D360002070470369002B21
:103D5000E4D1036A1B880268C3F308035360036A53
:103D600002330362E0E7000010B5044602681369FD
:103D700023F44053C1680B43136183680269134302
:103D800042691A430168CB6823F4B05323F00C0353
:103D90001343CB600268536923F4407381690B437A
:103DA00053610268134B9A4220D0FFF705FA02468E
:103DB00002EB820202EB820263689B00B2FBF3F229
:103DC0000D48A0FB02314909642303FB11231B01A9
:103DD0003233A0FB03235B0903F0F00202EB011274
:103DE00003F00F03216813448B6010BDFFF7F4F953
:103DF0000246DDE7003801401F85EB512DE9F8430D
:103E000005460F4616469946DDF820802C68246842
:103E100037EA04030CBF4FF0010C4FF0000CB4451F
:103E20001FD1B8F1FF3FF1D0B8F1000F05D0FEF778
:103E300091F8A0EB09004045E8D92A68D36823F43B
:103E4000D073D3602A68536923F0010353612023A0
:103E500085F83D3085F83E30002385F83C3003205E
:103E600000E00020BDE8F88358B310B5044690F890
:103E70003D300BB3242384F83D302268D36823F40B
:103E80000053D3602046FFF76FFF2268136923F4C5
:103E9000904313612268536923F02A035361226817
:103EA000D36843F40053D36000202064202384F8B7
:103EB0003D3084F83E3010BD80F83C30FDF7AAFB61
:103EC000D8E7012070472DE9F04182B01E4690F8F6
:103ED0003D30DBB2202B54D104460D4690460029DC
:103EE00053D0002A53D090F83C30012B51D00123FD
:103EF00080F83C3000230364212380F83D30FEF736
:103F000029F80746A4F82480A4F82680A368B3F50E
:103F1000805F05D04FF00008002384F83C3012E0A9
:103F2000236913B14FF00008F6E7A8460025F3E730
:103F300038F8023B2268C3F308035360E28C92B264
:103F4000013A92B2E284E38C9BB273B100963B4695
:103F5000002280212046FFF751FFE0B9002DE7D075
:103F600015F8012B23685A60E8E700963B460022CB
:103F700040212046FFF742FF78B9202384F83D30E6
:103F800000E0022002B0BDE8F0810120FAE7012044
:103F9000F8E70220F6E70320F4E70320F2E72DE933
:103FA000F04182B01E4690F83E30DBB2202B5CD14F
:103FB00004460D46904600295BD0002A5BD090F85D
:103FC0003C30012B59D0012380F83C30002303649E
:103FD000222280F83E200363FDF7BCFF0746A4F8C9
:103FE0002C80A4F82E80A368B3F5805F05D04FF035
:103FF0000008002384F83C3017E0236913B14FF028
:104000000008F6E7A8460025F3E723685B68C3F3DA
:10401000080328F8023B03E023685B682B70013536
:10402000E28D92B2013A92B2E285E38D9BB2BBB1CE
:1040300000963B46002220212046FFF7DFFEF0B924
:10404000002DE2D0A368B3F5805FE5D013B92369F2
:10405000002BE1D023685B6803F07F032B70DEE761
:10406000202384F83E30002000E0022002B0BDE8AA
:10407000F0810120FAE70120F8E70220F6E70320AB
:10408000F4E7704708B50168CA6822F04002CA60C8
:10409000202280F83D20FFF7F4FF002008BD704784
:1040A000704708B5406A0023C385C384FFF7F8FF53
:1040B00008BD704790F83E30DBB2222B60D1836898
:1040C000B3F5805F46D0826AB3F5805F04D0002BE1
:1040D0004DD10369002B4AD103685B681370836A72
:1040E00001338362C38D9BB2013B9BB2C385002B1E
:1040F00048D100B583B00268D36823F02003D360B1
:104100000268D36823F48073D3600268536923F094
:1041100001035361202380F83E30036B012B2CD127
:10412000002303630268D36823F01003D36003689D
:104130001A6812F0100F06D0002201921A6801923C
:104140005B680193019B818DFFF7B3FF002003B0F3
:104150005DF804FB0269002AB5D1826A03685B68D6
:10416000C3F308031380836A02338362BAE70368E8
:104170005B6803F07F031370B1E7FFF790FFE5E79B
:10418000022070470020704730B583B004460268B3
:104190001368D068516913F00F0505D113F0200F93
:1041A00002D010F0200F19D12DB111F0010119D159
:1041B00010F4907F16D1216B012975D013F0800F78
:1041C00003D010F0800F40F0D78013F0400F03D0E1
:1041D00010F0400F40F0D48003B030BD2046FFF710
:1041E00069FFF9E713F0010F06D010F4807F03D0C8
:1041F000226C42F00102226413F0040F04D019B1C2
:10420000226C42F00202226413F0020F04D019B1B2
:10421000226C42F00402226413F0080F07D010F061
:10422000200F00D119B1226C42F008022264226CE6
:10423000002AD1D013F0200F02D010F0200F21D18E
:1042400023685B6903F04003226C12F0080F00D171
:1042500023B32046FFF73EFD23685A6912F0400F52
:1042600018D05A6922F040025A61A36B73B1464AD2
:104270005A63A06BFEF77EFA0028ADD0A06B436BAB
:104280009847A9E72046FFF715FFD9E72046FFF733
:1042900007FFA1E72046FFF703FF9DE72046FFF752
:1042A000FFFE0023236497E713F0100F86D010F071
:1042B000100F83D000230193136801935368019377
:1042C000019B536913F0400F32D0A16B0B685B6800
:1042D0009BB2002B80D0A08D98427FF67DAFE38506
:1042E0008B69202B08D1A18DE38D9BB2C91A89B2AD
:1042F0002046FFF7DEFE6FE7D36823F48073D360B8
:104300002268536923F0010353612268536923F043
:1043100040035361202384F83E3000232363226846
:10432000D36823F01003D360A06BFEF701FADAE73D
:10433000A18DE38D9BB2C91A89B2E38D9BB2002B8C
:104340003FF44AAF00293FF447AFD36823F490739A
:10435000D3602268536923F001035361202384F85A
:104360003E30002323632268D36823F01003D36018
:104370002046FFF79EFE2FE72046FFF7C4FC2BE701
:104380002046FFF77FFE27E7A3400008EFF30583F1
:1043900093B9EFF3108393B90C4B1868022804D03B
:1043A00080B90A4B01221A607047EFF31183002B8A
:1043B000F6D06FF0050070476FF0050070476FF0A2
:1043C000050070474FF0FF30704700BF74150020A4
:1043D00008B5EFF30583B3B9EFF31083B3B90E4B10
:1043E0001B68022B08D0012B13D10B4B02221A6041
:1043F00001F0CEF8002008BDEFF31182002AF2D0C0
:104400006FF00500F7E76FF00500F4E76FF00500C7
:10441000F1E74FF0FF30EEE774150020F0B587B0FC
:1044200000240494EFF30584002C43D1EFF31083B0
:10443000002B3FD1334B1B68022B16D0002839D0FC
:1044400000238DF8173062B3156895B1936903B9ED
:1044500018235C1E372C51D8546814F0010F4FD12B
:1044600056694EB14FEA960C08E0EFF311830BBB8F
:10447000E4E70DF11705E9E74FF0800C94682CB1E3
:10448000D7685B2F02D9176907B1B6B914B14FF0DD
:10449000FF340CE0D46894B914699CB14FF0FF3438
:1044A00005E0002418234FF0800C0DF11705012CB6
:1044B0000AD0ACB1049807B0F0BD0124F7E74FF083
:1044C000FF34F4E70024F2E7146992680292019441
:1044D00000930B466246294600F0ECFF0490E9E7A2
:1044E00004AA019200930B461FFA8CF2294601F0B0
:1044F0001BF80128DED000230493DBE70020DAE775
:104500000020D8E77415002008B5EFF30583A3B9A0
:10451000EFF31083A3B90C4B1B68022B02D040B9F8
:10452000002008BDEFF31183002BF8D06FF00500D9
:10453000F7E701F091F90020F3E76FF00500F0E7ED
:104540006FF00500EDE700BF74150020034B03601A
:10455000034B0B6080231360704700BF18150020C9
:1045600018130020034B0360034B0B604FF4807360
:1045700013607047781900207815002000F10803B7
:1045800043604FF0FF328260C36003610023036029
:10459000704700230361704743684B609A688A60E4
:1045A000516099600861036801330360704730B45B
:1045B0000D68B5F1FF3F11D000F108031C465B68A0
:1045C0001A68AA42FAD963684B6099608C6061608E
:1045D000086103680133036030BC70470469F2E787
:1045E0000369416882688A60416851605A68824202
:1045F00006D0002202611A68013A1A6018687047F2
:1046000082685A60F5E7000082B0002301930D4BE9
:104610001B68B3F1FF3F08D04FF0500383F31188BC
:10462000BFF36F8FBFF34F8FFEE74FF0500383F35D
:104630001188BFF36F8FBFF34F8F019B002BFCD00E
:1046400002B070470C00002006480068006880F344
:10465000088862B661B6BFF34F8FBFF36F8F00DF7C
:1046600000BF000008ED00E04FF0807340F8043C0C
:1046700021F0010140F8081C034B40F80C3C40F8C5
:10468000202C4038704700BF094600080000000099
:10469000074B19680868B0E8F00F80F30988BFF38A
:1046A0006F8F4FF0000080F311884EF00D0E7047B1
:1046B000342600204FF0500383F31188BFF36F8F2F
:1046C000BFF34F8F0B4A136801331360012B00D0E7
:1046D00070474FF0E023D3F8043D13F0FF0FF7D0FD
:1046E0004FF0500383F31188BFF36F8FBFF34F8FE9
:1046F000FEE700BF0C000020094B1B6843B94FF0D8
:10470000500383F31188BFF36F8FBFF34F8FFEE722
:10471000013B034A13600BB983F31188704700BF54
:104720000C0000200000000000000000000000005D
:10473000EFF30980BFF36F8F0D4B1A6820E9F00F7C
:1047400010602DE908404FF0500080F3118801F00F
:10475000A9F84FF0000080F31188BDE808401968FF
:104760000868B0E8F00F80F30988BFF36F8F7047D7
:104770003426002008B54FF0500383F31188BFF3AF
:104780006F8FBFF34F8F00F05FFF28B14FF0E02332
:104790004FF08052C3F8042D002383F3118808BD25
:1047A0004FF0E022002313619361054B1B6805491C
:1047B000A1FB03139B09013B53610723136170475E
:1047C00000000020D34D621010B582B02A4B1A7839
:1047D000D2B20192FF221A701B78DBB28DF803303F
:1047E0009DF8033003F05003244A1370244B072232
:1047F0001A6009E0224A1368013B13609DF80330F8
:104800005B00DBB28DF803309DF8033013F0800FAE
:10481000F0D11B4B1B68032B08D04FF0500383F3E0
:104820001188BFF36F8FBFF34F8FFEE71B02144A4F
:10483000136003F4E0631360019BDBB20E4A137054
:104840004FF0E023D3F8202D42F47002C3F8202D5E
:10485000D3F8202D42F07042C3F8202DFFF7A0FFBF
:104860000024084B1C60FFF7EFFE01F01BF8FFF778
:10487000CBFE204602B010BD00E400E0D4190020B9
:10488000D81900200C000020EFF305830F2B0FD95F
:10489000114A9B5CDBB2114A12789A4208D94FF058
:1048A000500383F31188BFF36F8FBFF34F8FFEE781
:1048B0004FF0E023D3F80C3D03F4E063084A12689C
:1048C000934208D94FF0500383F31188BFF36F8FE1
:1048D000BFF34F8FFEE77047F0E300E0D4190020EC
:1048E000D8190020124A12F0070F1ED0D11D21F056
:1048F0000701C1F5406313440A460E4802600021D7
:1049000041601344083B23F007030B4803605960E0
:104910001960991A51601360084B1960084B1960AF
:10492000084B4FF000421A6070474FF44063E4E7D1
:10493000E0190020EC250020DC190020E8250020EB
:10494000E4250020E0250020154B1A461B68834211
:10495000FBD3516802EB010C844509D0416800EBA0
:10496000010C634509D00360904218D01060704775
:104970004068014451601046F0E710B4094C2468C7
:10498000A3420AD05B681944416013681B68036046
:10499000904200D0106010BC70470460F8E7704788
:1049A000EC250020DC19002070B5054600F03EFE25
:1049B000344B1B68A3B1344B1B681D424AD135B13F
:1049C000083515F0070F02D025F007050835002D32
:1049D00042D02E4B1B68AB424DD32D4A146804E0E5
:1049E000FFF780FFE7E722461C466368AB4202D22E
:1049F0002368002BF7D1234B1B68A3423DD01668D8
:104A000008362368136063685B1B102B10D960198C
:104A100010F0070F08D04FF0500383F31188BFF355
:104A20006F8FBFF34F8FFEE743606560FFF78CFF2A
:104A3000626816490B689B1A0B60164909688B421D
:104A400001D214490B60104B1B68134363600023B1
:104A5000236002E0002600E0002600F081FE16F050
:104A6000070F0CD04FF0500383F31188BFF36F8F03
:104A7000BFF34F8FFEE70026EFE70026EDE7304655
:104A800070BD00BFDC190020E0250020E4250020D7
:104A9000EC250020E825002080B338B50446A0F1BD
:104AA000080550F8043C164A1268134208D14FF02A
:104AB000500383F31188BFF36F8FBFF34F8FFEE76F
:104AC00050F8081C41B14FF0500383F31188BFF335
:104AD0006F8FBFF34F8FFEE723EA020340F8043CD9
:104AE00000F0A4FD54F8041C064A13680B4413603C
:104AF0002846FFF729FF00F033FE38BD704700BF9E
:104B0000E0250020E425002010B50446FFF7D2FD83
:104B1000A26BE36B9A4204D00024FFF7EDFD204620
:104B200010BD0124F9E710B50446FFF7C3FDA36BE0
:104B300023B90124FFF7E0FD204610BD0024F9E76A
:104B400070B504461546866B026C5AB903681BB1F2
:104B500000200136A66370BD406800F0CBFF002343
:104B60006360F6E76DB98068FBF7F2FA226CA36820
:104B70001344A3606268934219D32368A360284654
:104B8000E7E7C068FBF7E4FA226C5142E3689B1A3E
:104B9000E3602268934202D263680B44E360022D13
:104BA00001D00020D5E726B1013E0020D1E72846FC
:104BB000CFE70020CDE708B50346026C62B1084696
:104BC000D9681144D960D3F804C0614501D319688C
:104BD000D960D968FBF7BCFA08BD38B50546FFF7C0
:104BE00069FD95F8454064B201E0013C64B2002CD7
:104BF0000ADD6B6A43B105F1240000F0D1FE002804
:104C0000F3D000F061FFF0E7FF2385F84530FFF7B0
:104C100073FDFFF74FFD95F8444064B201E0013C9D
:104C200064B2002C0ADD2B6943B105F1100000F0DD
:104C3000B7FE0028F3D000F047FFF0E7FF2385F828
:104C40004430FFF759FD38BD38B5E0B10D46044694
:104C5000FFF730FD2368E26B216C01FB02306060DE
:104C60000020A063A360013A02FB0133E360FF234D
:104C700084F8443084F84530FDB9236963B9FFF7FF
:104C80003BFD012038BD4FF0500383F31188BFF383
:104C90006F8FBFF34F8FFEE704F1100000F080FE2E
:104CA0000028ECD04FF0E0234FF08052C3F8042DE1
:104CB000BFF34F8FBFF36F8FE1E704F11000FFF7F1
:104CC0005DFC04F12400FFF759FCD8E738B51D4618
:104CD000049C0B4649B92460E0632364012120460B
:104CE000FFF7B2FF84F84C5038BD2260F4E740B9BA
:104CF0004FF0500383F31188BFF36F8FBFF34F8FD3
:104D0000FEE710B584B01C46844653B192B189B910
:104D10004FF0500383F31188BFF36F8FBFF34F8FB2
:104D2000FEE74FF0500383F31188BFF36F8FBFF39B
:104D30004F8FFEE76AB150230393039B502B13D090
:104D40004FF0500383F31188BFF36F8FBFF34F8F82
:104D5000FEE70029EFD04FF0500383F31188BFF333
:104D60006F8FBFF34F8FFEE7012384F84630009426
:104D70009DF818306046FFF7A9FF204604B010BD2B
:104D8000F0B585B0019288B10F461D460446B1B119
:104D9000022D20D1E36B012B1DD04FF0500383F384
:104DA0001188BFF36F8FBFF34F8FFEE74FF05003B3
:104DB00083F31188BFF36F8FBFF34F8FFEE7036C50
:104DC000002BE5D04FF0500383F31188BFF36F8FB2
:104DD000BFF34F8FFEE700F07DFE064658B9019BFA
:104DE000002B48D04FF0500383F31188BFF36F8F2F
:104DF000BFF34F8FFEE700263DE02A4639462046A6
:104E0000FFF79EFE636A7BB948B14FF0E0234FF095
:104E10008052C3F8042DBFF34F8FBFF36F8FFFF79E
:104E20006BFC012005B0F0BD04F1240000F0B8FDDA
:104E30000028F4D04FF0E0234FF08052C3F8042D47
:104E4000BFF34F8FBFF36F8FE9E7FFF755FC0020EB
:104E5000E8E702A800F0EAFD012619E0002384F843
:104E6000443021E0002384F8453023E02046FFF75A
:104E7000B4FE00F075FCFFF71DFCA26BE36B9A42D9
:104E8000BBD3022DB9D0019B002BDED0002EE0D089
:104E9000FFF732FC00F0CAFBFFF70CFC94F844204B
:104EA00052B2B2F1FF3FD9D094F8452052B2B2F1DC
:104EB000FF3FD7D0FFF720FC01A902A800F0C2FDF8
:104EC000D8B92046FFF720FE0028CFD0019904F181
:104ED000100000F031FD2046FFF77FFE00F040FC9F
:104EE0000028C8D14FF0E0234FF08052C3F8042DC2
:104EF000BFF34F8FBFF36F8FBDE72046FFF76DFE07
:104F000000F02EFC00208DE72DE9F84390B10F460C
:104F100016461C460546B1B1022C20D1EB6B012B85
:104F20001DD04FF0500383F31188BFF36F8FBFF391
:104F30004F8FFEE74FF0500383F31188BFF36F8F5D
:104F4000BFF34F8FFEE7036C002BE5D04FF050030B
:104F500083F31188BFF36F8FBFF34F8FFEE7FFF727
:104F600093FCEFF311894FF0500383F31188BFF3E3
:104F70006F8FBFF34F8FAA6BEB6B9A4206D3022C55
:104F800004D0002089F31188BDE8F88395F84580A6
:104F90004FFA88F8224639462846FFF7D1FDB8F186
:104FA000FF3F06D008F101035BB285F845300120D0
:104FB000E8E76B6A0BB90120E4E705F1240000F093
:104FC000EFFC18B126B101203060DBE70120D9E702
:104FD0000120D7E7F0B585B0019290B10F460446A5
:104FE000C1B100F077FD064600BB019B002B5ED0EF
:104FF0004FF0500383F31188BFF36F8FBFF34F8FD0
:10500000FEE74FF0500383F31188BFF36F8FBFF3B8
:105010004F8FFEE7036C002BE3D04FF0500383F378
:105020001188BFF36F8FBFF34F8FFEE700263EE07E
:1050300039462046FFF7BFFD013DA563236923B92B
:10504000FFF75AFB012005B0F0BD04F1100000F09D
:10505000A7FC0028F4D04FF0E0234FF08052C3F8B3
:10506000042DBFF34F8FBFF36F8FE9E7FFF744FBCA
:105070000020E8E702A800F0D9FC012621E0002387
:1050800084F8443029E0002384F845302BE02046A2
:10509000FFF7A3FD00F064FB09E02046FFF79DFD4C
:1050A00000F05EFB2046FFF73EFD00283FD1FFF7F2
:1050B00001FBA56B002DBBD1019B002BD6D0002E90
:1050C000D8D0FFF719FB00F0B1FAFFF7F3FA94F824
:1050D00044305BB2B3F1FF3FD1D094F845305BB2BE
:1050E000B3F1FF3FCFD0FFF707FB01A902A800F003
:1050F000A9FC0028D1D12046FFF715FD0028C6D015
:10510000019904F1240000F017FC2046FFF765FD2B
:1051100000F026FB0028CAD14FF0E0234FF0805268
:10512000C3F8042DBFF34F8FBFF36F8FBFE700208D
:1051300089E700000023072B0CD8074A52F83320D8
:105140000AB10133F7E7044A42F8331002EBC30314
:1051500058607047704700BFF425002070B50446C2
:105160000D461646FFF7A6FA94F844305BB2B3F149
:10517000FF3F0DD094F845305BB2B3F1FF3F0BD049
:10518000FFF7BAFAA36B5BB12046FFF726FD70BDAF
:10519000002384F84430EDE7002384F84530EFE73E
:1051A0003246294604F1240000F0DEFBECE7000063
:1051B000084B1B681B6823B9074B4FF0FF321A607E
:1051C0007047044B1B68DB68DB685A68024B1A6047
:1051D000704700BF38260020E42A00202DE9F04760
:1051E00080460D4617469946089EDDF824A00A9C85
:1051F0009200A521206B00F02DFF236B07F1804268
:10520000013A03EB820727F007074FF0000CBCF1CF
:105210000F0F0BD815F80C2004EB0C0383F8342087
:1052200015F80C3013B10CF1010CF0E7002384F8F1
:105230004330372E00D93726E662E664002525651F
:10524000201DFFF7A6F904F11800FFF7A2F9246169
:10525000C6F13806A6616462656584F858504A460E
:1052600041463846FFF700FA2060BAF1000F01D03E
:10527000CAF80040BDE8F08738B5002407E004EB29
:10528000840293000E481844FFF778F90134372C54
:10529000F5D90C4D2846FFF771F90B4C2046FFF766
:1052A0006DF90A48FFF76AF90948FFF767F90948F5
:1052B000FFF764F9084B1D60084B1C6038BD00BF48
:1052C00040260020B82A0020CC2A0020EC2A00200A
:1052D000182B0020042B0020382600203C2600201C
:1052E00010B50446FFF7E6F9224A1368013313604C
:1052F000214B1B685BB1214B1B686BB91E4B1B68B4
:10530000DA6AE36A9A4207D81B4B1C6004E01A4B26
:105310001C601368012B29D0194A136801331360EC
:105320006364E06A174B1B68984201D9154B1860FB
:1053300000EB8000211D144B03EB8000FFF72CF9DC
:10534000FFF7DAF90D4B1B687BB10B4B1B68DA6A70
:10535000E36A9A4209D24FF0E0234FF08052C3F83B
:10536000042DBFF34F8FBFF36F8F10BDFFF784FF86
:10537000D2E700BFA02A002034260020002B002006
:10538000B02A0020B42A00204026002010B5044690
:1053900090F8593063B1012B11D0022B0ED04FF091
:1053A000500383F31188BFF36F8FBFF34F8FFEE776
:1053B000006BFFF771FB2046FFF76EFB10BDFFF798
:1053C0006BFBFBE70F4B1B68D3B110B5FFF772F90E
:1053D0000D4BDB68DC68201DFFF702F90B4A1368F0
:1053E000013B1360074A1368013B1360FFF784F920
:1053F0002046FFF7CBFF034B1B68002BE6D110BD07
:10540000704700BFA42A0020182B0020A02A0020EB
:1054100008B5FFF7D7FF074B1B68012BF9D94FF0F1
:10542000E0234FF08052C3F8042DBFF34F8FBFF33A
:105430006F8FEEE74026002070B504460D46174BEF
:105440001E68174B18680430FFF7CAF8B4F1FF3F25
:105450000DD03444124B1B685C60A64210D9114B2E
:1054600018680F4B19680431FFF7A1F870BD002DC3
:10547000EFD00B4B196804310B48FFF78DF8F5E7B7
:105480000A4B1868064B19680431FFF790F8084B6F
:105490001B68A342EAD9064B1C60E7E72C2B0020CF
:1054A000342600203C260020042B00203826002033
:1054B000E42A002030B587B00B9C7CB10C9DB5B1BF
:1054C0005C250495049D5C2D1AD04FF0500383F3A6
:1054D0001188BFF36F8FBFF34F8FFEE74FF050037C
:1054E00083F31188BFF36F8FBFF34F8FFEE74FF049
:1054F000500383F31188BFF36F8FBFF34F8FFEE725
:105500000C9D2C63022485F85940002403940295D5
:1055100005AC01940A9C0094FFF760FE0C98FFF71D
:10552000DFFE059807B030BD2DE9F04385B0074692
:10553000884614461E469000FFF736FA00B38146AF
:105540005C20FFF731FA0546B0B1C0F83090E5B104
:10555000002385F85930039302950D9B01930C9B12
:1055600000933346224641463846FFF737FE284629
:10557000FFF7B6FE012005E04846FFF78DFAE6E7A3
:105580004FF0FF3005B0BDE8F0834FF0FF30F9E792
:1055900010B588B000240594069407AA06A905A8AA
:1055A000FEF7D4FF059B0293069B019300942346CC
:1055B000079A18491848FFF77DFF184B186040B14B
:1055C00000F04CFB012806D0B0F1FF3F18D008B026
:1055D00010BD0020F6E74FF0500383F31188BFF3AE
:1055E0006F8FBFF34F8F0E4B4FF0FF321A600D4B92
:1055F00001221A600C4B00221A60FFF7E5F8E6E77B
:105600004FF0500383F31188BFF36F8FBFF34F8FB9
:10561000FEE700BF30E2000811540008E02A002035
:10562000E42A0020002B00202C2B0020024A1368C3
:1056300001331360704700BFAC2A0020014B18688B
:10564000704700BF2C2B0020F8B53A4B1B68002B8D
:1056500064D1394B1D6801351D60C5B9374B1B68D6
:105660001B6843B14FF0500383F31188BFF36F8F72
:10567000BFF34F8FFEE7314A1168314B1868106055
:105680001960304A136801331360FFF791FD2E4B08
:105690001B68AB4238D900272C4B1B68DB6A03EB35
:1056A00083039A002A4B9B58012B3CD901273AE0EF
:1056B0000127224B1B681B6843B3204B1B68DB6828
:1056C000DC6863689D4226D3261D3046FEF788FFBE
:1056D000A36A1BB104F11800FEF782FFE36A1D4ABA
:1056E0001268934201D91B4A136003EB83039A00AB
:1056F000314617481044FEF74FFFE26A134B1B6810
:10570000DB6A9A42D4D2D4E70027D2E70E4B4FF09F
:10571000FF321A60C0E70C4A1360BDE70E4A1368F7
:105720000133136000270D4B1B6803B10127384676
:10573000F8BD00BFAC2A00202C2B0020382600200A
:105740003C260020E82A0020E42A002034260020FD
:1057500040260020B42A0020A82A0020302B002058
:1057600038B5354B1B6843B94FF0500383F31188AC
:10577000BFF36F8FBFF34F8FFEE7FEF79BFF2E4BFC
:105780001A68013A1A601B68002B4FD12B4B1B681B
:105790000BB900244BE00024294B1B681BB3284B9A
:1057A000DB68DC6804F11800FEF71AFF251D2846A7
:1057B000FEF716FFE06A234B1B68984201D9214B84
:1057C000186000EB800029461F4B03EB8000FEF7BA
:1057D000E3FEE26A1D4B1B68DB6A9A42DCD31C4B7A
:1057E00001221A60D8E70CB1FFF7E2FC194B1C68E4
:1057F00084B9174B1C68D4B14FF0E0234FF08052AE
:10580000C3F8042DBFF34F8FBFF36F8F01240EE059
:10581000013C07D0FFF718FF0028F9D00C4B0122FC
:105820001A60F5E70B4B00221A60E2E70024FEF74E
:1058300063FF204638BD00BFAC2A0020A02A00200C
:10584000EC2A0020B42A0020402600203426002024
:10585000302B0020A82A002010B5A8B10446104B18
:105860001B6843B14FF0500383F31188BFF36F8F70
:10587000BFF34F8FFEE7FFF7D9FE00212046FFF769
:10588000DBFDFFF76DFF48B94FF0E0234FF080528A
:10589000C3F8042DBFF34F8FBFF36F8F10BD00BF50
:1058A000AC2A00201F4B1B681BB11F4B01221A6042
:1058B00070471D4B00221A601C4B1B6803EB8301D1
:1058C0008A001B498A585AB90BB1013BF6E74FF0E1
:1058D000500383F31188BFF36F8FBFF34F8FFEE741
:1058E00003EB830082000A4450684068506003EB79
:1058F000830C4FEA8C020832114488420BD003EB30
:10590000830291000A4A0A445268D168094A116028
:10591000064A13607047406862469100044A0A4490
:105920005060ECE7AC2A0020302B0020B42A002085
:10593000402600203426002058B110B50C46094AF4
:1059400011681831FEF733FE01212046FFF774FD80
:1059500010BD4FF0500383F31188BFF36F8FBFF377
:105960004F8FFEE73426002038B570B10D4614463F
:105970000A4A11681831FEF70FFE0CB14FF0FF35DF
:1059800021462846FFF758FD38BD4FF0500383F3FA
:105990001188BFF36F8FBFF34F8FFEE734260020CF
:1059A00038B5C368DC6824B304F118052846FEF74F
:1059B00017FE184B1B682BBB251D2846FEF710FE53
:1059C000E06A154B1B68984201D9134B186000EB35
:1059D00080002946114B03EB8000FEF7DDFDE26AF3
:1059E0000F4B1B68DB6A9A4211D901200D4B1860DE
:1059F00038BD4FF0500383F31188BFF36F8FBFF3AF
:105A00004F8FFEE729460848FEF7C6FDE7E700206E
:105A1000EEE700BFAC2A0020B42A00204026002078
:105A200034260020302B0020EC2A0020034B1B687A
:105A30000360034B1B684360704700BFE82A0020E7
:105A40002C2B0020D8B170B50C46054601B3FEF7EB
:105A500031FE1B4B19686B68C81A2268B2F1FF3F10
:105A600027D0184E3668D5F800C0B44501D08B4217
:105A700024D9824215D80023236001241AE04FF074
:105A8000500383F31188BFF36F8FBFF34F8FFEE78F
:105A90004FF0500383F31188BFF36F8FBFF34F8F25
:105AA000FEE75B1A134423602846FFF7BFFF00247C
:105AB00000E00024FEF720FE204670BD0124F9E737
:105AC0002C2B0020E82A0020014B01221A6070478D
:105AD000302B0020054B1B6833B1054B1B680BB105
