:020000040800F2
:10000000302600209D0100081F2A00082126000834
:100010001D2A0008E50A00087136000800000000EB
:1000200000000000000000000000000005010008C2
:10003000E70A00080000000049010008F530000848
:10004000B7010008B7010008B7010008B7010008B0
:10005000B7010008B7010008B7010008B7010008A0
:10006000B7010008B7010008B7010008B701000890
:10007000B7010008B7010008B7010008B701000880
:10008000B7010008B7010008050A0008B701000819
:10009000B7010008B7010008B7010008B701000860
:1000A000B70100089D310008B7010008B70100083A
:1000B000B7010008B7010008A9310008B70100081E
:1000C000B7010008B7010008B7010008B701000830
:1000D000B701000859360008B70100086536000866
:1000E000B7010008B7010008B7010008DFF810D019
:1000F00000F054FC0048004785400008AFF3008042
:1001000030260020224B19680868B0E8F00F80F311
:100110000988BFF36F8F4FF0000080F311884EF015
:100120000D0E70470000000006480068006880F36C
:10013000088862B661B6BFF34F8FBFF36F8F00DFE1
:1001400000BF00BF08ED00E0EFF30980BFF36F8F41
:100150000F4B1A6820E9F00F106008B54FF05000FF
:1001600080F31188BFF34F8FBFF36F8F04F0CCFE85
:100170004FF0000080F31188BDE808401968086856
:10018000B0E8F00F80F30988BFF36F8F704700BFAE
:100190006C000020EFF305807047000006488047A0
:1001A00006480047FEE7FEE7FEE7FEE7FEE7FEE75C
:1001B000FEE7FEE7FEE7FEE799310008ED000008E4
:1001C000202A04DB203A21FA02F00021704721FAAC
:1001D00002F3D040C2F12002914008431946704713
:1001E00040EA01039B0703D009E008C9121F08C0B9
:1001F000042AFAD203E011F8013B00F8013B521E39
:10020000F9D27047D2B201E000F8012B491EFBD2AF
:1002100070470022F6E710B513460A460446194611
:10022000FFF7F0FF204610BDF0B480EA0102D40FC2
:100230004200B2EB410F02D20246084611464A0084
:1002400042D0C30DDDB2C1F3C752AD1A202D35DA4D
:10025000C1F3160141F4000204B15242C5F1200677
:1002600002FA06F12A411044B3EBD05F23D0C4B1A7
:10027000012DA0EBC35009DCF0BC4FF0004202EAB4
:10028000C352DBB200F5000000F0B6B9400000F147
:10029000807000EBC350A0F1807040EAD17049003B
:1002A00009E0490841EAC071A0EBC35000F5000025
:1002B000400800EBC350F0BC00F095B96142012248
:1002C00002EB4101001BF6E7F0BC704781F00041F2
:1002D000AAE780F00040A7E780EA010210B502F02B
:1002E0000043400022D04A001FD0010E01EB1261F2
:1002F000C0F35600C2F3560240F4000042F400027C
:10030000A0FB022000047F39140400D0401C50EAF6
:10031000124001D44000491EC2B20C0604EBD010BA
:10032000401C4008802A02D003E0002010BD20F0CD
:100330000100002900DA0020184310BD30B480EA23
:10034000010202F0004530F0004221F0004013D0DD
:1003500090B1C30DD40DC2F31601C0F31600E41A18
:1003600041F4000140F400027D34914201D3641C49
:1003700000E04900002C02DA30BC002070474FF446
:1003800000000023914201D3891A034340084FEA39
:100390004101F7D151B1914202D14FF0004105E046
:1003A00002D24FF0010101E06FF0010103EBC450F4
:1003B000284430BC00F017B92DE9FE4F81EA030450
:1003C00004F0004421F0004100944FF0000B23F0B2
:1003D000004350EA01045ED052EA03045BD0C3F349
:1003E0000A54C1F30A552C44A4F2F3340194A0FB3F
:1003F0000254C1F3130141F48011C3F3130343F416
:10040000801301FB024400FB034E840A970A44EA6E
:10041000815447EA8357A4FB076802958D0A05FBC0
:1004200007854FEA932C04FB0C542705029D4FEAE5
:10043000065847EA1637B5EB08056EEB070C870E32
:10044000920E47EA811742EA8312A7FB0201B6EB3C
:100450000B0164EB00042B0D43EA0C335E1844EBF4
:100460001C50DA465146E7FB0201C5F313044FEA7C
:100470000B3343EA14534FEA0432019C43EA060368
:10048000A4F10C040294009CCDE900B400F0F1F852
:1004900003B0BDE8F08F00200146F9E7C10F80EA04
:1004A000E0700844CA079623002100F0A5B80EB5F5
:1004B00040F2334102910021CDE900110A460B467A
:1004C00000F0D7F803B000BD00F0004220F000407B
:1004D000C10DC0F3160040F400007F2901DA0020AE
:1004E0007047962903DCC1F19601C84001E09639B6
:1004F0008840002AF4D04042704700F0004230F0BB
:1005000000400AD0C10D01F56071C0F3160042EA47
:100510000151C2084007114370470020014670474F
:1005200001F0004330B421F0004150EA010206D04E
:100530000A0DA2F56072C1F31301002A02DC30BC7F
:1005400000207047440F44EAC104C100E01830BCE9
:1005500000EBC25000F047B830B50B460146002012
:100560002022012409E021FA02F59D4205D303FA75
:1005700002F5491B04FA02F52844151EA2F10102F6
:10058000F1DC30BD2DE9F05F0546002092469B4628
:1005900088460646814640241BE028464146474699
:1005A0002246FFF70DFE53465A46C01A914110D31A
:1005B00011461846224600F003FA2D1A67EB01088F
:1005C0004F4622460120002100F0FAF917EB0009FE
:1005D0004E41201EA4F10104DFDC484631462A4684
:1005E0004346BDE8F09F0029A8BF7047401C490062
:1005F00008BF20F00100704710B4B0FA80FC00FA88
:100600000CF050EA010404BF10BC704749B1CCF1B2
:10061000200421FA04F411FA0CF118BF012121433E
:100620000843A3EB0C01CB1D4FEA00614FEA1020F9
:1006300042BF002010BC704700EBC350104400299B
:10064000A4BF10BC7047401C490008BF20F0010047
:1006500010BC704710B5141E73F1000408DA401C7A
:1006600041F1000192185B411A4301D120F00100D1
:1006700010BD2DE9F04D92469B4611B1B1FA81F2C1
:1006800002E0B0FA80F22032904600F099F9044678
:100690000F4640EA0A0041EA0B0153465A46084316
:1006A00013D0114653EA010019D0C8F14002504658
:1006B000FFF786FD05460E4650465946424600F075
:1006C0007FF9084305D0012004E020463946BDE803
:1006D000F08D0020054346EAE0762C4337430A9824
:1006E0006305E40AA0EB08000022FD0A44EA47542F
:1006F0000A3002D500200146E9E7010510196941D9
:10070000DDE9084500196941BDE8F04DA2E72DE992
:10071000FE4F804681EA0300C00F0C46009021F096
:10072000004123F00045B8EB0200A94105D2404644
:10073000214690461C460B46024623F000401043DB
:1007400047D0270DC7F30A00C3F30A510290401A9D
:10075000019040286BDAC3F3130040F4801B00982B
:10076000924620B10023D2EB030A63EB0B0B0198F6
:100770005946C0F14002504600F022F906460D46A7
:1007800050465946019A00F02AF910EB08006141E1
:10079000002487EA115284EAE7731A4340D0009A92
:1007A00062B3019A012A4FEA075215DC001B61EB84
:1007B00002014FF0004202EA0752CDE90042001C5C
:1007C00041F5801132462B46FFF753FF03B0BDE8D9
:1007D000F08F40462146F9E7001B61EB0201001C47
:1007E00041F5801300185B412018A2F5001747EB74
:1007F000030140EAD570B6196D4111E06D084FEA6A
:10080000360645EAC0754FEA0752001B61EB02014C
:10081000001C41F5801149084FEA30000019514190
:1008200032462B4603B0BDE8F04FFFF713BF0098E8
:10083000012240000023D0EB020263EBE07300983A
:1008400021464FEAE074B8EB000061EB0401E9E7F0
:1008500083F000435BE781F0004158E72DE9F04D5C
:1008600081EA030404F0004B21F0004514464FF0E8
:10087000000A23F0004150EA050220D054EA0102A8
:100880001DD0C5F30A570246C5F31303C1F3130085
:10089000C1F30A5640F4801543F48013A7EB060811
:1008A000101BD64608F2FD3873EB050002D308F1A1
:1008B000010801E092185B41B8F1000F03DA002053
:1008C0000146BDE8F08D00204FF4801106468446B5
:1008D0000EE0171B73EB050705D3121B63EB050333
:1008E00006434CEA010C49084FEA300092185B417C
:1008F00050EA0107EDD152EA030012D082EA040067
:1009000083EA0501084305D0101BAB4106D2012242
:10091000002306E000224FF0004302E06FF00102E6
:1009200053101AEB06004CEB085110EB0A0041EB98
:100930000B01BDE8F04DFFF78DBEC1F30A52C1F3C4
:10094000130140F2FF3341F480119A4202DA002091
:100950000146704740F233439A42A2F2334202DC2E
:100960005242FFF72DBC00F02BB8000030B5041E3A
:1009700071F1000404DB4FF00044404264EB0101DC
:10098000141E73F1000405DB1C464FF00043524275
:1009900063EB0403994208BF904230BD064C074DFB
:1009A00006E0E06840F0010394E80700984710343F
:1009B000AC42F6D3FFF79EFBC8790008E87900083F
:1009C000202A04DB203A00FA02F10020704791400F
:1009D000C2F1200320FA03F3194390407047202A04
:1009E00006DBCB17203A41FA02F043EAE07306E057
:1009F00041FA02F3D040C2F1200291400843194667
:100A000070470000014800F026B9000028010020CE
:100A100070B5044600688168C943C90717D1816869
:100A200021F00101816000F033FC05460AE000BFBF
:100A300000F02EFC401B022804D920688068C043C7
:100A4000C00706D020688068C043C007F0D00020EF
:100A500070BDA06A40F01000A062E06A40F00100A2
:100A6000E062012070BD0000F8B500260446009643
:100A700000688168C943C9072DD0816841F0010130
:100A80008160164816490068B0FBF1F000E0401E96
:100A900000900028FBD100F0FBFB054616E000BFEC
:100AA00000F0F6FB401B022810D920688068C04384
:100AB000C0070BD0A06A40F01000A062E06A40F0CE
:100AC0000100E06284F824600120F8BD206880689D
:100AD000C043C007E4D10020F8BD0000680000203A
:100AE00040420F00FEE7704772B6FEE702F0E2BD3B
:100AF00070B502F0BFFDFFF7D1FC044C0546206045
:100B00006168FFF7E3FB656070BD000044000020F2
:100B100070470000F8B50024009490F82420254682
:100B2000012A12D0012280F824204A681F23072AB4
:100B30000DD20668776B521E02EB820293409F43F0
:100B40000B6893401F43776319E00220F8BD0668E5
:100B50000D2A0AD2376BD21F02EB820293409F43C9
:100B60000B6893401F43376309E0F76A0D3A02EBC5
:100B7000820293409F430B6893401F43F7620A68C9
:100B8000072306680A2A0AD3F7680A3A02EB4202E8
:100B900093409F438B6893401F43F76008E0376999
:100BA00002EB420293409F438B6893401F4337619F
:100BB0000A68102A01D0112A20D1124B02689A42E9
:100BC00017D193681B0219D4936843F40003936010
:100BD0000968102912D10C490C4A0968B1FBF2F1DD
:100BE00001EB8101490000E0491E00910029FBD181
:100BF00004E0816A41F020018162012480F82450E0
:100C00002046F8BD002401406800002040420F004B
:100C100010B500F01DF8FFF74AFC094A094BFFF731
:100C2000CBFBFFF77DFC0949074B0A7843F822000C
:100C3000521CD0B20870142801D10020087010BDD9
:100C4000835A04AD5D664A3F5801002038000020F9
:100C50000068C06C704710B504460068416889069A
:100C600026D50168890723D5A16AC90603D4A16ADC
:100C700041F40071A1628168C1F34241072910D19A
:100C8000217B71B9416821F020014160A06A20F404
:100C90008070A062A06AC00403D4A06A40F0010082
:100CA000A0622046FFF7B4FF21686FF012000860D1
:100CB0002068416809062ED5016849072BD5A16A2D
:100CC000C90603D4A16A41F40051A1628168C1F34D
:100CD0000231072909D04168490515D48168C1F35B
:100CE0004241072910D1217B71B9416821F080016F
:100CF0004160A06A20F48050A062A06AC00503D4BD
:100D0000A06A40F00100A0622046FFF701FF2168C1
:100D10006FF00C0008602068416849060DD5006836
:100D2000C0070AD0A06A40F48030A062204600F0DC
:100D300093F821686FF00100086010BD2DE9F041C3
:100D40004FF0000704003D467ED0A06A002628B977
:100D5000E66284F82460204600F080F82046FFF721
:100D600057FEA16AC90600D420B1A06A40F0100065
:100D7000A06269E0A16A21F4885141F00201A162F8
:100D80006268E169237B0A4347EA43010A43A16899
:100D90004FF48077B94209D0012907D05FF00001F4
:100DA00094F814C0BCF1010F02D00AE03946F7E70D
:100DB000F3B1A36A43F02003A362E36A43F00103A3
:100DC000E3622368D3F804C02CF4694C4CEA010CAC
:100DD000C3F804C021688B68DFF870C003EA0C0315
:100DE00013438B60A168B9420BD0012909D00CE0F4
:100DF000DFF85CC0A3690CEB43330B4343F40061A1
:100E0000DFE7218A0D05A5F580152168CB6A23F45B
:100E100070032B43CB62216889680E4B19409142C5
:100E200008D1E662A16A21F0020141F00101A1624C
:100E3000BDE8F081A06A20F0020040F01000A0623E
:100E4000E06A40F00100E0620120F1E7FDF7E1FF18
:100E500000E0FFFFFE0E1FFF7047000000B585B0E9
:100E6000002100910191029103910068124988428A
:100E700020D11248816941F400718161816901F4D6
:100E800000710491816941F00401816180696946C2
:100E900000F0040004900620009003200190084810
:100EA00000F0F8F800220521122000F07DFA12204F
:100EB00000F06CFA05B000BD0024014000100240B3
:100EC0000008014070B5044690F8240001280DD0B8
:100ED000012084F824002046FFF7C6FD02004FF0F1
:100EE000000005D084F82400104670BD022070BDBB
:100EF000A16A40F60163994341F48071A162224DD9
:100F000023682249AB4218D10E6816F4702F14D012
:100F1000A66A46F48016A6620E68760505D5A66A0E
:100F200026F4005646F48056A662A66AF6040AD550
:100F3000E66A26F00606E66206E0A66A26F4801651
:100F4000A6625E68E9E7E06284F824006FF00200C0
:100F500018602068436843F020034360206883687A
:100F6000C3F34243072B05D1A84208D1096811F405
:100F7000702F04D0816841F480118160B4E78168EA
:100F800041F4A001F9E700000028014004240140D9
:100F900010B590F821100022022905D004218163A8
:100FA00080F82020012010BD01680B6823F00E039B
:100FB0000B6001680B6823F001030B6090F8403070
:100FC000C46B012101FA03F3636080F8211080F8FB
:100FD0002020104610BD000010B590F8211000240C
:100FE000022903D00421816301243DE001680A68DD
:100FF00022F00E020A6001680A6822F001020A600B
:101000001A4A0168914201D1012121E0174A1432A4
:10101000914201D110211BE0144A2832914201D1A2
:10102000891515E0114A3C32914201D189140FE033
:101030000E4A5032914202D14FF4803108E00B4AFF
:101040006432914202D14FF4801101E04FF080717F
:10105000064A083A5160012180F82110002180F8E9
:101060002010416B01B18847204610BD08000240A6
:1010700070B5044600F00CF90546601C02D0044827
:101080000078044400F004F9401BA042FAD370BD7C
:101090005C0000202DE9F84FDFF8B891002409F139
:1010A000040A0AF1040B23460F270BF1040EC9E0D2
:1010B0000125A5402A40AA427DD1674ED1F804C03F
:1010C000ACEB0608B44532D014DCBCF1030F3AD0C7
:1010D00009DCBCF1000F2AD0BCF1010F1CD0BCF11F
:1010E000020F31D11DE0BCF1110F17D0BCF1120F6E
:1010F0002AD119E0B8F5881F19D006DCB8F5803F71
:1011000015D0B8F5801F1FD111E0B8F5001F0ED023
:10111000B8F5041F18D10AE0CB6815E0CB681B1D99
:1011200012E0CB6808330FE0CB680C330CE08B681F
:101130002BB1012B4FF0080303D0456104E00423D9
:1011400002E0056100E00023FF2A01D8064601E025
:1011500000F104064FEA840501D9A5F12005D6F86F
:10116000008007FA05FC28EA0C0803FA05F548EAAE
:101170000508C6F800804D68ED0062D5374DAE69B0
:1011800046F00106AE61AD6924F0030605F00105E5
:101190000095334D06EB050CDCF80850A607360F1A
:1011A00007FA06F825EA0805DFF8B880404503D1BC
:1011B0004FF0000817E044E0DFF8AC80404502D172
:1011C0004FF001080FE0DFF8A480404502D14FF056
:1011D000020808E0DFF89880404502D14FF003088C
:1011E00001E04FF0040808FA06F848EA0508CCF8D0
:1011F00008804D68D9F80060ED034D4601D51643CF
:1012000000E096432E604D68DAF80060AD03554665
:1012100001D5164300E096432E604D68DBF8006070
:10122000ED025D4601D5164300E096432E604D6801
:10123000DEF80060AD02754601D5164300E0964326
:101240002E60641C0D682A46E5407FF431AFBDE88E
:10125000F88F00000004014000001110001002404F
:101260000000014000080140000C01400010014056
:1012700000140140C26821EA02030A4043EA024125
:10128000016170470AB1016170470904FBE7000082
:1012900001488068704700005C00002002488168B7
:1012A00002781144816070475C000020074810B547
:1012B000016841F010010160032000F095F80F2053
:1012C00000F006F800F03EF8002010BD00200240BB
:1012D00000B5014687B00022192000F065F81920FA
:1012E00000F054F81348816941F40061816180691C
:1012F00005A900F400600690684600F093F900F03C
:10130000C1F90D490D4AB0FBF1F10D48491E0260CB
:10131000416040F2E7320021C0E90321816000F022
:10132000BDFB10B1012007B000BD054800F00CFC6A
:10133000F9E700000010024040420F00002C01407D
:10134000080300200F4808B5816941F0010181615F
:10135000816901F001010091C16941F08051C161D1
:10136000C069002200F0805000900F21901E00F014
:101370001BF80548416821F0E06141F000714160CF
:1013800008BD00000010024000000140002809DBF9
:1013900000F01F02012191404009800000F1E0208F
:1013A000C0F8001170470000F0B40E4B1B680C46EB
:1013B000C3F30223C3F10705042D00D90425191D29
:1013C000072901D2002300E0DB1E012606FA05F101
:1013D000491E214099409E40761E16403143F0BC84
:1013E00002F0C8B90CED00E0064900F007020868F9
:1013F0004FF6FF03184040EA0220034A10430860FA
:10140000704700000CED00E00000FA052DE9F843FC
:1014100005460078354CC00754D0E0690026C0006E
:1014200008D4E06940F08050E061E069012600F0F6
:10143000805000902E480168C90512D4016880468A
:1014400041F480710160FFF723FF074605E000BF0C
:10145000FFF71EFFC01B642823D8D8F80000C00582
:10146000F6D5206A10F4407021D0A98801F44071AB
:1014700081421CD0206A1F49012220F440700A607A
:1014800000220A602062C00711D0FFF701FF074663
:1014900041F2883808E000BFFFF7FAFEC11B414562
:1014A00002D90320BDE8F883206A8007F4D5206ABA
:1014B000696820F44070084320621EB1E06920F0A2
:1014C0008050E0612878800705D56068A96820F41D
:1014D0004040084360602878C00605D56068E96828
:1014E00020F48000084360600020DBE70010024029
:1014F00000700040400442422DE9F0470F460500CD
:1015000061D0434E306800F00700B84209D230681D
:1015100020F0070038433060306800F00700B84220
:1015200051D128683B4C810712D5400703D560682C
:1015300040F4E06060602878000703D5606840F4FC
:10154000605060606068A96820F0F0000843606047
:101550002878C00728D06868012810D021680228A0
:1015600010D0890700292EDA616821F003010143B8
:101570006160FFF78DFE804641F288390DE02168F9
:101580008903EFE78901EDE7FFF782FEA0EB080191
:10159000494502D90320BDE8F0876068696800F01A
:1015A0000C00B0EB810FEFD1306800F00700B842BB
:1015B0000BD9306820F0070038433060306800F005
:1015C0000700B84201D00120E5E72878400705D59B
:1015D0006068E96820F4E0600843606028780007EC
:1015E00006D56068296920F4605040EAC100606057
:1015F00000F058F86168084AC1F30311515CC84013
:101600000649086006480068FFF762FE0020C2E74E
:101610000020024000100240847900086800002089
:10162000600000200F2202600C4A536803F003039D
:101630004360536803F0F0038360536803F4E0638E
:10164000C36052684FF4E06303EAD20202610448C7
:10165000006800F0070008607047000000100240BA
:10166000002002400448054900684968044AC1F363
:101670000221515CC8407047680000200010024001
:10168000947900080448054900684968044AC1F390
:10169000C221515CC8407047680000200010024021
:1016A0009479000812A185B00FC98DE80F0014A02D
:1016B000144A006804905168134801F00C03042B8D
:1016C00010D0082B0ED1C1F38343C9031DF80300CA
:1016D0000AD5516804AAC1F34041515C0A4A5043FB
:1016E000B0FBF1F005B0704708494843FAE7000045
:1016F00002030405060708090A0B0C0D0E0F101053
:10170000010200000010024000127A0000093D00B2
:101710002DE9F84F040070D02078C04DC00749D0A3
:101720006868C0F38100012807D06868C0F38100B1
:10173000022809D16868C00306D52868800339D516
:1017400060680028E7D035E06068B0F5803F0BD0D6
:1017500010B1B0F5A02F11D0286820F48030286097
:10176000286820F4802002E0286840F48030286057
:10177000606890B1FFF78CFD06460AE0286840F4E7
:1017800080202860F0E700BFFFF782FD801B6428FF
:1017900073D828688003F7D50CE0FFF779FD06467B
:1017A00005E000BFFFF774FD801B6428F0D82868AF
:1017B0008003F7D420789A4E80074FF001094FF04C
:1017C000000839D5686810F00C0F07D06868C0F3BE
:1017D0008100022809D16868C00306D42868800700
:1017E00014D52069012808D110E02069B0B1C6F8ED
:1017F0000090FFF74DFD074605E00AE1FFF748FDC1
:10180000C01B0228C4D828688007F7D528686169FA
:1018100020F0F80040EAC10028600DE0C6F8008022
:10182000FFF736FD074604E0FFF732FDC01B022834
:1018300023D828688007F7D4207800072CD579486A
:10184000A169D9B1C0F80090FFF722FD074604E076
:10185000FFF71EFDC01B02280FD8686A8007F7D566
:1018600071484FF4FA510068B0FBF1F0009000BFEE
:101870000098411E0091FAD20EE080E0C0F800808E
:10188000FFF706FD074604E0FFF702FDC01B022834
:1018900075D8686A8007F7D42078400760D5E86972
:1018A0000027C00008D4E86940F08050E861E8698A
:1018B000012700F0805000905C480168C90513D4EE
:1018C0000168834641F480710160FFF7E1FC8246C4
:1018D00006E000BFFFF7DCFCA0EB0A0064284ED84E
:1018E000DBF80000C005F5D5E06801280AD008B192
:1018F000052813D0286A20F001002862286A20F009
:10190000040002E0286A40F001002862E06841F229
:10191000883B98B1FFF7BCFC82460BE0286A40F098
:1019200004002862EEE700BFFFF7B2FCA0EB0A015B
:1019300059455AD8286A8007F6D50CE0FFF7A8FC6D
:10194000824605E0FFF7A4FCA0EB0A0159454CD8FC
:10195000286A8007F6D41FB1E86920F08050E8615A
:10196000E06988B36968C1F38101022944D0022883
:10197000C6F8608004D0FFF78BFC044638E034E002
:10198000FFF786FC074604E0FFF782FCC01B022835
:101990002BD828688001F7D4206AB0F5803F05D1A4
:1019A0006868A16820F4003008436860D4E9080141
:1019B0000843696821F4741108436860C6F86090B0
:1019C000FFF766FC044606E025E000BFFFF760FC79
:1019D000001B022809D828688001F7D51BE000BF4A
:1019E000FFF756FC001B022802D90320BDE8F88F40
:1019F00028688001F4D40EE00128F7D06868226AD4
:101A000000F48031914204D1616A00F47010884280
:101A100001D00120EAE70020E8E7000000100240C2
:101A200000004242800442426800002000700040F2
:101A30007047704770B590F83C20012A26D00124E9
:101A400080F83C40022280F83D2003685A689D6877
:101A500022F070060A6832435A600D4B02689A42BF
:101A600008D0B2F1804F05D00A4B9A4202D00A4BFF
:101A70009A4204D1496825F080031943916080F8A7
:101A80003D40002180F83C10084670BD022070BD2A
:101A9000002C0140000400400008004010B5040084
:101AA00003D094F83D0010B107E0012010BD0020E4
:101AB00084F83C00204600F01FF8022084F83D0026
:101AC000211D206801F076FB012084F8460084F88F
:101AD0003E0084F83F0084F8400084F8410084F818
:101AE000420084F8430084F8440084F8450084F8F8
:101AF0003D00002010BD000008B501681048B1F19C
:101B0000804F14D00F4A914219D1C16941F00401AC
:101B1000C161C069002200F00400009005211E2070
:101B2000FFF742FCBDE808401E20FFF72FBCC1694B
:101B300041F00101C161C06900F00100009008BDE1
:101B4000001002400008004090F83D10012901D02B
:101B500001207047022180F83D100168CA6842F0F8
:101B60000102CA6000680B49884208D0B0F1804F7A
:101B700005D00949884202D00849884204D18168C9
:101B800001F00701062903D0016841F0010101605D
:101B900000207047002C0140000400400008004075
:101BA00070B5044690F83C00012817D0012584F850
:101BB0003C50022084F83D002068826822F07702C1
:101BC00022F47F4282600868502830D00DDC202843
:101BD0004DD005DC98B310283BD148E0022070BD01
:101BE000302844D0402834D139E0602828D07028EB
:101BF00006D0B0F5805F2CD0B0F5005F29D10AE0A7
:101C0000CB68D1E90121206801F017FB20688168C9
:101C100041F0770109E0CB68D1E90121206801F0AA
:101C20000CFB2068816841F48041816011E0CA6842
:101C30004968206801F0B6FB5021206807E016E0F3
:101C4000CA684968206801F0BEFB6021206801F085
:101C5000FEFA84F83D50002084F83C0070BDCA684C
:101C60004968206801F09EFB40212068EFE7226868
:101C700001461046EBE72DE9F0410D46040003D084
:101C800094F83D0018B108E00120BDE8F081002083
:101C900084F83C00204600F041F8022084F83D0022
:101CA0002068816844F2070291438160211D206809
:101CB00001F080FA226890689169166A2B68AF6912
:101CC000034340F20330814341EA0721A868EF69EA
:101CD00008434FF6FC418843E96840EA0720014386
:101CE00028692F6A000140EA0730084369686D6976
:101CF00026F0220646EA0515294393602268906182
:101D000054F8460B0162012004F81F09E0752076A3
:101D1000E0762077A0750020B7E7000000B585B019
:101D20000021009101910291039100680D498842C0
:101D300016D10D48C16941F00201C161C16901F0CC
:101D400002010491816941F0040181618069694661
:101D500000F004000490C02000900448FFF79AF9B6
:101D600005B000BD00040040001002400008014022
:101D700070B590F83E60044690F83F5090F84230BD
:101D800090F84320022021B104290ED0012E1BD14E
:101D900014E0012E18D1012B16D184F83E0084F8EE
:101DA000420001220021206820E0012D0CD1012AEF
:101DB0000AD184F83F0084F8430014E0012D03D1D8
:101DC000012B01D1012A01D0012070BD84F83E0011
:101DD00084F83F0084F8420084F843000122002187
:101DE000206801F01DFA01220421206801F018FA90
:101DF0002068016841F001010160002070BD70475A
:101E000070B50446006801694FF00005C9438907B1
:101E100015D4C168C943890711D4E91E01610120A5
:101E20002077206880698007204602D0FFF7E7FF0F
:101E300004E000F0C9F8204600F058F92577206842
:101E40000169C943490717D4C168C943490713D475
:101E50006FF004010161022020772068806910F48E
:101E6000407F204602D0FFF7CAFF04E000F0ACF844
:101E7000204600F03BF9257720680169C94309072E
:101E800016D4C168C943090712D46FF00801016173
:101E9000042020772068C0698007204602D0FFF721
:101EA000AEFF04E000F090F8204600F01FF925771F
:101EB00020680169C943C90617D4C168C943C90666
:101EC00013D46FF010010161082020772068C069E9
:101ED00010F4407F204602D0FFF791FF04E000F0AD
:101EE00073F8204600F002F9257720680169C9439C
:101EF000C90708D1C168C943C90704D1891E016156
:101F0000204600F043F920680169C943090609D455
:101F1000C168C943090605D46FF0800101612046FC
:101F2000FFF786FD20680169C943490609D4C168E5
:101F3000C943490605D46FF040010161204600F015
:101F40002FF920680169C94389060BD4C168C943C8
:101F5000890607D46FF0200101612046BDE870407A
:101F6000FFF767BD70BD000000B585B0002100918E
:101F70000191029103910068B0F1804F1BD10F488D
:101F8000816941F0040181618069694600F00400C3
:101F900004904FF400400090022001900390084804
:101FA000FFF778F80748416821F4407141F0E0619B
:101FB00041F48071416005B000BD00000010024096
:101FC0000008014000000140704770B5044690F8D9
:101FD0003C000D4601280AD0012084F83C0042B1A3
:101FE000042A18D0082A2AD00C2A4DD139E0022020
:101FF00070BD206801F034F92068816941F0080162
:1020000081612068816921F0040181612068816912
:102010002A69114311E0206801F04AF920688169BA
:1020200041F4006181612068816921F480618161EE
:10203000206881692A6941EA0221816124E02068DF
:1020400001F062F92068C16941F00801C1612068AE
:10205000C16921F00401C1612068C1692A69114385
:1020600011E0206801F07CF92068C16941F4006149
:10207000C1612068C16921F48061C1612068C169C2
:102080002A6941EA0221C161002084F83C0070BD48
:1020900010B5040003D094F83D0010B107E0012012
:1020A00010BD002084F83C00204600F01EF80220FD
:1020B00084F83D00211D206801F07CF8012084F89F
:1020C000460084F83E0084F83F0084F8400084F81D
:1020D000410084F8420084F8430084F8440084F806
:1020E000450084F83D00002010BD70477047000097
:1020F00010B50446022249B104290ED0082913D094
:1021000094F84100012816D0012010BD94F83E003B
:102110000128F9D184F83E200FE094F83F0001280F
:10212000F2D184F83F2008E094F840000128EBD178
:1021300084F8402001E084F841200122206801F069
:102140006FF80F492068884203D1426C42F4004284
:1021500042642068884208D0B0F1804F05D0094918
:10216000884202D00849884204D1816801F0070101
:10217000062903D0016841F001010160002010BD73
:10218000002C0140000400400008004000680349A2
:10219000884201D1FFF782B870470000002C01404F
:1021A0007047704770470000F8B502680446106831
:1021B000D168536910F00F0F4FF0000553D003F0B2
:1021C000010601F4907737435FD0C20705D0CA05F6
:1021D00003D5226C42F001022264420705D5DA07DA
:1021E00003D0226C42F002022264820705D5DA078E
:1021F00003D0226C42F004022264020707D501F0EA
:102200002002324303D0226C42F008022264226C86
:10221000002A34D0800604D5880602D5204601F075
:1022200004F920684069216CC0F38010090700D4CC
:1022300030B3204601F0E1F82068416949061BD51A
:10224000416921F040014161A06BA8B15849416347
:10225000A06BFEF7C1FE002811D0A06B416B01B04E
:10226000BDE8F040084783060FD58B060DD5204604
:10227000BDE8F84001F0D9B82046FFF793FFF8BD5C
:102280002046FFF78FFF2564F8BD266B2023012E23
:1022900052D1C60650D5CE064ED510685068009073
:1022A000506940062AD5A16B086840680004000CFC
:1022B000EAD0A68D8642E7D9E0858869202818D023
:1022C000D06820F48070D0602068416921F001015D
:1022D00041612068416921F04001416184F83E304C
:1022E00025632068C16821F01001C160A06BFEF772
:1022F0004FFEA08DE18D401A81B219E0A08DE18DD5
:10230000401A81B2E08D0028BED00029BCD0D06830
:1023100020F49070D0602068426922F0010242618E
:1023200084F83E3025632068C26822F01002C26043
:102330002046FFF736FFF8BD05062BD50D0629D53B
:1023400094F83D002128F6D1A068B0F5805F01D156
:102350002069B0B1206A411C216221680078486080
:10236000E08C401E0004000CE084E4D12068C168C9
:1023700021F08001C1602068C16841F04001C16066
:10238000F8BD206A0088C0F308005060206A801CF5
:102390002062E5E74006F3D54806F1D5D16820462E
:1023A00021F04001D16084F83D3000F038F9F8BDEB
:1023B000EB33000870B5040004D094F83D0000250C
:1023C00010B106E0012070BD84F83C50204600F0BA
:1023D00023F8242084F83D002068C16821F40051CE
:1023E000C160204601F07CF82068016921F4904129
:1023F00001612068416921F02A0141612068C168BA
:1024000041F40051C1602564202084F83D0084F827
:102410003E00002070BD000070B586B0002400941E
:10242000019402940394324E03683249022003223D
:10243000314DB3422ED18B6943F480438B618B695C
:1024400003F4804304938B6943F008038B6189692B
:10245000039201F0080104914021CDE90010694682
:102460002846FEF717FE8020CDE9000401200290E7
:1024700069462846FEF70EFE2048416841F0E061BB
:1024800041F004014160002205212520FEF78CFF68
:10249000252028E01A4EB34227D1CB6943F480238C
:1024A000CB61CB6903F4802304938B6943F0080369
:1024B0008B618969039201F0080104913115CDE91E
:1024C000001069462846FEF7E5FDF014CDE900044A
:1024D000694628460294FEF7DDFD002205212720EB
:1024E000FEF762FF2720FEF751FF06B070BD000027
:1024F0000038014000100240000C01400000014083
:102500000048004090F83E30202B0ED159B152B116
:1025100090F83C30012B08D0012380F83C30002398
:10252000036301F039B801207047022070470000B2
:1025300010B50068094988420FD1094C09490122A8
:102540002078401C00F03F00207001440648FFF74F
:10255000D9FFFEF79DFEC01C606010BD0038014031
:1025600000000020E8000020800200202DE9F84350
:10257000044690F83D001F4616460D4620284CD1D3
:10258000C5B1BEB194F83C00012846D0012084F8C2
:102590003C004FF00008C4F84080212084F83D0042
:1025A000FEF776FEA6848146E684A068B0F5805FDB
:1025B00003D004E00120BDE8F883206928B12E464D
:1025C0005FF0000584F83C800EE00026FAE78021E9
:1025D000204600F0FCFFA0B9AEB116F8010B21684F
:1025E0004860E08C401EE084E08C4B464FF00002D7
:1025F00000970028EBD14FF04001204600F0E7FFA4
:1026000030B10320D7E735F8020BC0F30800E6E746
:10261000202084F83D000020CDE70220CBE7704762
:10262000FEE7000070B501220E4D540221462846F7
:10263000FEF728FE0122160231462846FEF722FE4A
:1026400000F048F8002221462846FEF71BFE00F065
:1026500041F8002231462846FEF714FEBDE87040DE
:1026600000F038B8000C014070B50B4D4FF4007409
:10267000002221462846FEF705FE012211022846C7
:10268000FEF700FE00F026F821462846BDE870401F
:102690000122FEF7F7BD0000000C014070B50C4CA4
:1026A000012251022046FEF7EDFD00F013F8012251
:1026B000150229462046FEF7E5FD00F00BF8002242
:1026C00029462046FEF7DEFDBDE8704000F002B866
:1026D000000C01400A20401EC0B2FCD2704700002E
:1026E0003EB50021174800910191154A0291026000
:1026F0009215826001250573017502244FF4602252
:102700000461C2614160FEF719FB08B1FEF7ECF904
:1027100005200095CDE9015069460A48FEF7FAF90F
:1027200008B1FEF7E1F90094019469460548029466
:10273000FEF7F0F9002801D0FEF7D6F93EBD000003
:10274000002401402801002010B50B4A00210B484D
:1027500001F046FD0A4C084A002160622432094813
:1027600001F03EFD044AA06248320021064801F013
:1027700037FDE06210BD0000E85A00089130000803
:1027800008000020C9300008AD2F00082DE9F041F5
:1027900086B000242848009401940294039481692F
:1027A00041F010018161816901F01001049181699A
:1027B00041F020018161816901F02001049181696A
:1027C00041F004018161816901F004010491816992
:1027D00041F0080181618069184F00F0080041F65E
:1027E00038050490002229463846FEF74BFDDFF8F5
:1027F0005080002201214046FEF744FD7814CDE9C7
:10280000000469460F480294FEF744FC0095022636
:1028100001250396CDE9015469463846FEF73AFC96
:1028200003960095CDE9015469464046FEF732FC17
:1028300006B0BDE8F0810000001002400008014031
:10284000000C01400010014010B58EB00024079428
:10285000089409940A940B941C2168460C94FDF783
:10286000D8FC1D484FF0804101604721C0E90114A8
:102870003121C0E903148461FFF710F908B1FEF7B4
:1028800033F94FF48050079007A91348FFF788F9F0
:1028900008B1FEF729F91048FFF7FAFB08B1FEF777
:1028A00023F90B940BA90C480C94FFF7C3F808B15B
:1028B000FEF71AF96020CDE900040294002269466F
:1028C00005480494FFF781FB08B1FEF70DF90248B3
:1028D000FFF74AFB0EB010BDA801002010B58CB068
:1028E00024216846FDF795FC0024154809941349F6
:1028F0000A94C0E900144FF6FF71C0E90241046177
:1029000084610120CDE90004CDE902040494CDE9FD
:102910000540079469460A480894FFF7ACF908B1E6
:10292000FEF7E2F8099409A905480A94FFF782F82E
:10293000002801D0FEF7D8F80CB010BD000400400C
:10294000F001002010B586B00024174800940194CF
:1029500002940394049413490594016041F61F41C5
:10296000C0E90114C721C0E9031480218161FFF788
:1029700095F808B1FEF7B8F84FF48050009069461A
:102980000948FFF70DF908B1FEF7AEF8049404A961
:1029900005480594FFF74EF8002801D0FEF7A4F88B
:1029A00006B010BD00080040380200200C4810B5E9
:1029B0000A4901604FF4E1314160002181600C223D
:1029C000C160C0E904128161C161FFF7F3FC002816
:1029D00003D0BDE81040FEF787B810BD00380140B5
:1029E000800200200C4810B50A4901604FF4E13123
:1029F0004160002181600C22C160C0E90412816144
:102A0000C161FFF7D7FC002803D0BDE81040FEF7F6
:102A10006BB810BD00480040C4020020FEE7FEE78E
:102A200030B40021084B0A465FF0000003EB0014AD
:102A3000401CC0B262545028F8D3491CC9B21029B6
:102A4000F2D330BC00F018B95C0300202DE9FE4F32
:102A50004FF000084646802801D37F200AE0802AF4
:102A600001D37F2206E0402901D33F2102E0402B21
:102A700000D33F23994205D90446104622460C460E
:102A800019462346CDE90010141A5D1A4FF0FF30A5
:102A9000002C02DD4FF0010102E003D14FF00001F4
:102AA0008B4602E08346C4F10004002D02DD4FF0A6
:102AB000010002E003D14FF00000824602E08246AE
:102AC000C4F10005AC4201DD274600E02F46781C2A
:102AD0004FF00009029019E000980C9AC1B20198D9
:102AE000C0B200F019F8A0442E44B84504DD0198A6
:102AF000A8EB070858440190BE4203DD0098F61B7E
:102B00005044009009F101001FFA80F902998945AB
:102B1000E2DBBDE8FE8F000030B5CC0801F0070312
:102B200001259D40EBB2064D05EB0015C808285C59
:102B30000AB1184302E063EA0000C043285530BDE3
:102B40005C030020F0B5464885B0816941F008017A
:102B500081618069032500F0080004904FF4007043
:102B60001124012603958DE851003E4F69463846F1
:102B7000FEF790FA300203958DE851006946384619
:102B8000FEF788FA3220FEF773FA0021AE2000F03B
:102B90006EF90021084600F06AF90021102000F0CB
:102BA00066F90021202000F062F90021812000F068
:102BB0005EF900216F2000F05AF90021A12000F0F9
:102BC00056F90021C02000F052F90021A42000F0A5
:102BD0004EF90021A62000F04AF90021D52000F08E
:102BE00046F90021912000F042F90021D92000F09F
:102BF0003EF90021222000F03AF90021DB2000F00C
:102C000036F900213F2000F032F90021A82000F021
:102C10002EF900214F2000F02AF90021D32000F0E6
:102C200026F90021682000F022F90021DC2000F0C4
:102C30001EF90021084600F01AF90021AD2000F02D
:102C400016F900218A2000F012F9FFF7E9FE0021B1
:102C5000AF2000F00CF91420FEF70AFA05B0F0BD21
:102C600000100240000C01400246012000E05043E9
:102C7000491EC9B2FBD2704770B5184E002400BF80
:102C800004F1B000C0B2002100F0F1F800210846C4
:102C900000F0EDF80021102000F0E9F8FFF7C2FC89
:102CA000782000F059F9FFF7F9FC402000F054F9C2
:102CB000FFF7F4FC5FF0000506EB0510005D00F087
:102CC0004BF9FFF7EBFC6D1CEDB2502DF4D3FFF781
:102CD000CBFC641CE4B2102CD2D370BD5C0300208A
:102CE0002DE9FC4F1C460D4682468B460190082B71
:102CF0000DD0600700D0012000EBD40061084843EC
:102D0000C0B28146203AD0B2009000204BE00620AD
:102D1000F7E7082C13D00C2C18D0102C1BD0182C33
:102D200044D10098234900EBC00000BF01EB8001B3
:102D3000002711F80860F00712D00B9A13E00098F2
:102D40001D4900EB400001EB4001F1E700981B49F1
:102D500000EB4000EAE71A49009801EB0011E7E7B1
:102D60000B9828B3002251462846FFF7D5FE6D1C6C
:102D70007F1C7608FFB2EDB2102FDCD30AF1010000
:102D800000F0FF0A082C0AD00199AAEB0100B0EB71
:102D9000540F04D10BF108008A4600F0FF0B08F134
:102DA00001005D46C0B280464845B2D3BDE8FC8F05
:102DB0000122D8E7E0670008545B00087C5D00084A
:102DC000F06100082DE9F84F0025DDE90A691F468A
:102DD00092468B468046082E00D1022500241CE036
:102DE000381B401EC1B20A20FFF73EFFBAFBF0F0CD
:102DF0000A21B0FBF1F201FB1200CDF8009080B186
:102E00003030C2B205EB560101FB0480C0B233463C
:102E10005946FFF765FF641CE4B2BC42E0D3BDE84D
:102E2000F88F05EB560101FB0480C0B23346302217
:102E3000EEE72DE9F8411E46154688460446079FF1
:102E40000BE03346414620460097FFF749FF082E26
:102E50000AD004EB5600C4B26D1C2A78A2F12000FF
:102E60005E28EED9BDE8F881A41DE4B2F4E770B5A0
:102E70000C460546FFF7D6FB782000F06DF8FFF70B
:102E80000DFC0CB1402000E0002000F065F8FFF7D9
:102E900005FC284600F060F8FFF700FCBDE8704034
:102EA000FFF7E2BB38B501240021182323A208460E
:102EB0000094FFF7BEFF40231A2219460020009419
:102EC000FFF7C4FD40231B22194601200094FFF7A1
:102ED000BDFD0023502219461A200094FFF7B6FDCD
:102EE0000123502219461A200094FFF7AFFD10234A
:102EF00014A21C2104200094FFF79BFF102312A2B0
:102F00001C2140200094FFF794FF10230FA22E21D4
:102F100004200094FFF78DFF10230DA23E21042012
:102F20000094FFF786FF10230AA20A21762000945E
:102F3000FFF77FFFBDE83840FFF79EBE437962652B
:102F400072000000503A000041503A00563A00002A
:102F5000433A0000560000002DE9F041124F0024D2
:102F600005464FF40078BE15280601D5012200E081
:102F7000002241463846FEF785F9FFF7ABFB0122F8
:102F800031463846FEF77EF9FFF7A4FB00223146B2
:102F90003846FEF777F96806641C050EE4B2082C83
:102FA000E2D3BDE8F0810000000C01401CB52F48C1
:102FB00000214FF4000A0160012101712C4CDFF85F
:102FC000B4B08046DFF8B09000F074FB0546A06016
:102FD000606829460746FDF779F9E0602846FDF765
:102FE0008CFA05460E463846FDF787FACDE90056BD
:102FF00002460B4621A000F0ADFBE168E0690D46FA
:10300000FDF76AF9064628462169FDF75FF9A169CF
:10301000FDF762F93146FDF707F907464646D8F84D
:103020000000FDF73BFA3946FDF7FEF8FDF74CFAD4
:10303000306025616561554504DB01221146134866
:10304000FEF720F9E068584504D3002201210F481B
:10305000FEF718F93068002800DA4042D9F800106D
:103060004863142001F066F8AEE700005400002029
:103070000800002000008080A801002025302E34A8
:10308000662C2025302E34660A000000000C01401A
:103090001CB501240A4E0B4F1825CDE90054052319
:1030A00020210020326AFFF78DFEFFF7E5FD0821A1
:1030B0003846FEF7DFF8322001F03CF8EDE700007B
:1030C0000800002000080140084D094CFDF710FDE4
:1030D0006860FDF70BFDA86000F0ECFA206001F0DD
:1030E00001FD20620A2001F025F8EFE750030020DF
:1030F0000800002010B5502080F31188BFF34F8FD7
:10310000BFF36F8F02F04EFA18B104494FF08050B0
:103110000860002080F3118810BD000004ED00E07D
:1031200030B593B028216846FDF773F814210AA83A
:10313000FDF76FF8002501200F95109511950104FA
:1031400012958DE8230004904FF4E010CDE90810AB
:10315000022407946846FEF7DBFA08B172B6FEE770
:103160000AA90F2081E831004FF48060CDE90D05F8
:1031700002210AA8FEF7C0F908B172B6FEE74FF4C3
:10318000004011900F940FA8FEF740F9002801D0DD
:1031900072B6FEE713B030BD704700000148FEF77D
:1031A0002FBE0000080300200148FEF729BE0000E2
:1031B00038020020F0B50268164B174C174D4FF03F
:1031C0008047984205D0B84203D0A04201D0A8421F
:1031D00003D122F070064A683243984205D0B842C3
:1031E00003D0A04201D0A84203D122F44074CA689F
:1031F00022434C6922F08002224302608A68C26244
:103200000A688262984201D1096901630121416122
:10321000F0BD0000002C0140000400400008004008
:1032200010B501F01F030121046A99408C43046228
:10323000016A9A401143016210BD10B5846842EAE8
:10324000032224F47F440A432243826010BD826833
:1032500022F070020A4342F00701816070470000CB
:1032600030B5026A22F001020262026A4368846990
:1032700024F073050C682C4322F002058A682A4367
:103280000A4DA8420BD122F00805CA6823F4407306
:103290002A434D6922F004021D438B692B4343608E
:1032A000846149684163026230BD0000002C014026
:1032B00030B5026A22F010020262026A4368846931
:1032C0000D6824F4E64444EA05248D6822F02002C7
:1032D00042EA05120B4DA8420ED1CD6822F08002C1
:1032E00042EA05124D6923F4406343EA85038D6980
:1032F00022F0400243EA85034360846149688163A8
:10330000026230BD002C014030B5026A22F48072A6
:103310000262036A4268C46923F4007324F07305EF
:103320000C682C438D6843EA05230C4DA8420ED14E
:10333000CD6823F4006343EA05234D6922F440522B
:1033400042EA05128D6923F4806342EA0512426065
:10335000C4614968C163036230BD0000002C0140B4
:1033600030B5026A22F480520262046A4268C3697C
:103370000D6823F4E64343EA05238D6824F40054E2
:1033800044EA0534064DA84204D14D6922F4804236
:1033900042EA85124260C36149680164046230BD3B
:1033A000002C014010B5036A046A24F00104046291
:1033B000846924F0F00444EA021423F00A020A4368
:1033C0008461026210BD10B5036A23F0100303622A
:1033D0008369046A23F4704343EA023224F0A003B1
:1033E00043EA01118261016210BD10B5406A0021FB
:1033F000C185C184FEF7D6FE10BD0168CA6822F4FB
:103400009072CA6001684A6922F001024A61016B48
:10341000012904D10168CA6822F01002CA60202183
:1034200080F83E1000210163704708B590F83E1007
:10343000222901D0022008BD82684FF480539A42AD
:1034400001D1016921B1816A9A421BD04AB10AE0D7
:103450000268816A5268C2F308020A80816A891C84
:1034600008E0026972B10268526802F07F020A70D5
:10347000816A491C8162C18D491E0904090CC185FC
:1034800003D019E002685268F1E70168CA6822F0C7
:103490002002CA600168CA6822F48072CA600168AA
:1034A0004A6922F001024A61202180F83E10016B36
:1034B000012903D0FFF73CF8002008BD002101637B
:1034C0000168CA6822F01002CA6001680A68D20660
:1034D00002D50A6849680091818DFEF762FEEBE72C
:1034E00070B5044600680169E26821F44051114357
:1034F00001612169A0680843616908432168CA68BD
:1035000041F20C639A430243CA6020684169A26990
:1035100021F44071114341611E492068884202D163
:10352000FEF7B0F801E0FEF79DF800EBC00101EBFB
:103530000012606864218000B2FBF0F3B3FBF1F38A
:103540006FF018067343B2FBF0F5B2FBF0F605EB33
:103550008305322303EB0515B5FBF1F5B6FBF1F658
:1035600005F0F00505EB0615B2FBF0F6B2FBF0F046
:10357000B0FBF1F06FF01802504306EB800003EB54
:103580000010B0FBF1F0216800F00F0028448860C3
:1035900070BD00000038014081628285C285002133
:1035A0000164222280F83E2080F83C100168CA683D
:1035B00042F48072CA6001684A6942F001024A61BD
:1035C0000068C16841F02001C160002070472DE90A
:1035D000F041984617460E460446069D1DE0681CBD
:1035E0001BD02DB1FDF754FEA0EB0800A84214D962
:1035F0002068C16821F4D071C1602068416921F060
:1036000001014161202084F83D0084F83E00002043
:1036100084F83C000320BDE8F0812068006836EAA9
:10362000000004D00020B842D9D00020F3E70120E8
:10363000F9E70000064910B5096848633220FDF734
:1036400017FD0022BDE8104001210248FDF71ABE17
:10365000A8010020000C01400148FEF7A5BD0000B4
:10366000800200200148FEF79FBD0000C402002038
:10367000FEE700000E480D4902680B68506A1844C6
:10368000A0F5E260B0F5005042F21073086053629A
:1036900001D4086802E000F5FA5008604FF4FA52CD
:1036A00090FBF2F302FB1300086070474C0000200F
:1036B000F001002010B5FFF7DDFFFCF7EFFE064933
:1036C000FCF73CFE054C10F1FF4F606003D304494A
:1036D000FCF7AAFD606010BD0000FA454C00002018
:1036E0000000204110B53C210648FEF741FB05498A
:1036F00042F210700968486203480021016041608D
:1037000010BD0000F00100204C00002010B5032087
:10371000FFF790FF4FF47A742046FDF7A9FC20468E
:10372000FDF7A6FC2046FDF7A3FC3220FFF782FF41
:103730002046FDF79DFC2046FDF79AFC2046FDF74C
:1037400097FC0122BDE8104008210148FDF79ABD11
:10375000000801400FB4054B10B503A9044A0298B4
:1037600000F0EAF810BC5DF814FB00006D400008A2
:10377000E40000200907090E002804DB00F1E02026
:1037800080F80014704700F00F0000F1E02080F88E
:10379000141D704702E008C8121F08C1002AFAD1A0
:1037A00070477047002001E001C1121F002AFBD1C1
:1037B000704700002DE9FF5F82B00021DDE9043091
:1037C000020DDDF840B0034318D044F61050A2F2C9
:1037D000FF3242431514119801281FD0A5EB0B00AE
:1037E000401C5FEA000A4FF000064E4FDFF83891A8
:1037F000B046504615D5CAF1000413E011980124D3
:103800004AA3012801D16FEA0B010298119AC0E97D
:103810000031C0E9024206B0BDE8F09FCBF10000E4
:10382000DFE704460021404A491842EB0450CDE945
:10383000001012E0E00707D032463B4640464946BA
:10384000FCF7BAFD8046894632463B46104619468B
:10385000FCF7B2FD06460F466410002CEAD1DDE904
:103860000401DDE90023BAF1000F06DAFCF7A4FD3C
:1038700042464B46FCF7A0FD05E0FCF7EFFF424651
:103880004B46FCF7EBFF04460E460022284BFDF7A3
:103890006DF803D84FF0FF30014607E00022254BBA
:1038A00020463146FCF733FFFDF747F8102409E0C6
:1038B000002C0ADB0A220023FCF764FE039B303253
:1038C0001A55641E50EA0102F2D1641C039AC4F135
:1038D00011031444119A012A03D0012208430DD187
:1038E0000AE0084304D000204FF0110B119072E75A
:1038F000A3EB0B056D1E0DE05B4504DD4FF00002F0
:1039000005F1010504E003DA4FF00002A5F101051D
:10391000002AECD002981199C0E90231C0E90045B3
:1039200079E70000000014400000F03F3000000084
:103930000000F0430000E03F2DE9FF4F95B09A46AC
:10394000884606460025EEE1252877D10024274643
:10395000F94A0121039400E0044316F8013F203B9B
:1039600001FA03F01042F7D130782A2811D06FF015
:103970002F033078A0F13002092A16D8039A44F0B8
:10398000020402EB820203EB42021044761C039015
:10399000EFE758F8042B0392002A03DA504244F46C
:1039A0000054039044F00204761C30782E2816D17F
:1039B00016F8010F44F004042A280DD06FF02F02EE
:1039C0003078A0F13003092B09D807EB870302EB0D
:1039D0004303C718761CF3E758F8047B761C30784D
:1039E0006C280FD006DC4C2817D068280DD06A2828
:1039F00014D104E0742810D07A280FD10DE044F4DB
:103A000000140AE044F4801401E044F44014727895
:103A1000824202D104F58014761C761C3078662828
:103A20000BD013DC582877D009DC002875D0452846
:103A3000F6D04628F4D047281AD193E118E063283D
:103A400035D0642879D0652812D18BE1702873D0E5
:103A500008DC6728F1D069286FD06E280DD06F2858
:103A600006D1ACE073282CD0752874D0782853D0B8
:103A70005246179990476D1C54E1C4F30250022836
:103A800009D003280DD0D8F8001004280DD00D60FF
:103A900008F1040846E1D8F80010EA17C1E900521D
:103AA000F6E7D8F800100D80F2E70D70F0E718F88F
:103AB000041B8DF8001000208DF80100EB4601205A
:103AC00003E058F804BB4FF0FF3061074FF00001EE
:103AD00002D40DE009F101018946B9420FDA8145AE
:103AE000F8DB1BF809100029F4D108E009F1010105
:103AF00089468142FADB1BF809100029F6D10398A8
:103B00005346A0EB090721463846179A00F080FA81
:103B1000284400EB090507E044E008E10DE01BF84C
:103B2000010B524617999047B9F10109F7D2534654
:103B300021463846179AF2E039E00A21C4F30252CE
:103B40004FF0000B0091022A06D058F8040BC11761
:103B5000032A09D00AE023E008F1070020F0070259
:103B6000F2E80201904605E000B2C117042A01D133
:103B700040B2C117002906DA0A460021404261EB33
:103B800002012D2202E0220504D52B228DF804200B
:103B9000012203E0E20701D02022F7E7914657E037
:103BA0000A2100E010214FF0000B00910BE01021E2
:103BB0004FF0000B44F004040827009103E00820B4
:103BC0004FF0000B0090C4F30252022A05D058F8BF
:103BD000040B0021032A08D008E008F1070020F0B8
:103BE0000702F2E80201904603E080B2042A00D105
:103BF000C0B24FF0000922072AD53278702A07D0C8
:103C0000DDF800C08CF0100C5CEA0B0C05D00EE067
:103C100040228DF80420012208E050EA010306D07A
:103C200030238DF804308DF8052002229146009B48
:103C300083F0080353EA0B030AD150EA010201D1D1
:103C4000620705D530228DF804204FF001097F1E50
:103C50003278582A04D039A20C920CAA02920BE0B6
:103C60003BA2F9E75B46009AFCF78CFC0C9B9B5C43
:103C7000029A521E0292137050EA0102F2D1029887
:103C800004A9081A00F1200B600702D524F480343F
:103C900000E001275F4502DDA7EB0B0000E00020FC
:103CA00000EB0B01009003984944401A0390E00395
:103CB00006D453462146179A039800F0A9F9054403
:103CC000002706E001A85246C05D179990476D1C79
:103CD0007F1C4F45F6DBE0030CD553462146179A6F
:103CE000039800F095F9054404E0302052461799F6
:103CF00090476D1C0099481E00900029F5DC08E0F3
:103D00000298029952460078491C029117999047EF
:103D10006D1CBBF10001ABF1010BF1DC5BE100F0CC
:103D200065F90544761C307800287FF40DAE19B093
:103D30002846BDE8F08F00000928010030313233F9
:103D400034353637383961626364656600000000D7
:103D500030313233343536373839414243444546C1
:103D600000000000600700D4062708F1070020F0DB
:103D70000700F0E80223804603F0004C5FEA0C00E5
:103D800001D097A009E0200501D596A005E0E00745
:103D900001D095A001E0AFF24C001390307823F0F1
:103DA000004365280CD006DC452809D046281DD0E4
:103DB00047287FD13BE0662818D067287AD136E0C3
:103DC0000021112F01DB112000E0781CCDE900015A
:103DD00004A90CA8FFF7EEFCDDE90D010C9A4FF0E9
:103DE000000B07F10109109200914EE04FF00040E6
:103DF0000097CDE9011004A90CA8FFF7DBFCDDE971
:103E00000D020C9B0F994FF0000B914610930092FE
:103E100011B9791C00EB0109B7EB090003D4C0F11B
:103E2000FF3B07F10109A9EB0700019042E0012FD8
:103E300000DA01270021112F01DD112000E03846B2
:103E4000CDE9000104A90CA8FFF7B4FCDDE90D01E0
:103E50000C9A00914FF0000BB946109221070FD435
:103E6000009A4A4503DA914601E0A9F10109B9F146
:103E7000010F05DD109AA9F10101515C3029F4D040
:103E8000B84202DA10F1040F03DA0121CDE9011082
:103E900010E0002803DC8344A9EB000102E0411C90
:103EA000494500DD8946A0EB0B00401C01904FF016
:103EB00000400290200705D40198484502DB4FF0EE
:103EC000FF30019000208DF84B0002980DF14B0758
:103ED000B0F1004F25D002200C902B200D900298BD
:103EE00000280CDA404202902D200D9007E00A21B4
:103EF0000298FCF731FB3031029007F8011D0C9954
:103F0000481E0C900029F2DC02980028EFD1791E9F
:103F10000D980870307800F0200040F0450007F858
:103F2000020D11A8C01BC01D02901398007800B1AB
:103F3000012000EB0901019801EBE07102980144B6
:103F40000398401A401E0390E00306D453462146CE
:103F5000179A039800F05CF805441398007818B19C
:103F60005246179990476D1CE00323D553462146CE
:103F7000179A039800F04CF805441BE0BBF1000FC2
:103F800007DB0098584504DD1098179910F80B00CE
:103F900001E0179930205246904701980BF1010B30
:103FA000401E05F10105019004D12E2052461799BB
:103FB00090476D1CB9F10001A9F10109DEDC05E0B3
:103FC00017F8010B5246179990476D1C0299481E2D
:103FD00002900029F4DC53462146179A03989EE686
:103FE0002D0000002B000000200000002DE9F04112
:103FF000044600251E461746880404D405E03946C9
:104000002020B0476D1C641EF9D52846BDE8F0811C
:104010002DE9F041044600251E469046C80301D50F
:10402000302700E02027880404D505E041463846C3
:10403000B0476D1C641EF9D52846BDE8F08100002C
:1040400070B5094DFF22134605F5807606E000BFE6
:1040500010F8014B54402A5D5A40335D491E89B225
:10406000F6D243EA022070BDE858000813B54FF6B7
:10407000FF73012269460248FEF778FA00981CBDDA
:10408000C4020020FDF712F9FFF74AF8FEF77EFBA5
:10409000FEF726FBFEF7D8FBFEF720FCFEF786FCBA
:1040A000FEF750FCFEF79EFC1848FCF70BFF184C7F
:1040B00018B108212046FDF7DDF81648FDF744FD4C
:1040C0000122D1022046FDF7DDF80122110320462E
:1040D000FDF7D8F800211048FEF70AF8FFF716FBA5
:1040E000FFF700FB00F0EEFCFEF72CFD3220FCF7A2
:1040F000BFFFFEF7D7FE09A0FFF72CFB00F034F856
:10410000FEF722FB00F04CF8FEE70000280100203B
:104110000008014038020020A80100205379737480
:10412000656D20496E6974205375636365737366AA
:10413000756C0A0010B5EFF3058149B9EFF31081F2
:1041400031B908490968022905D1EFF3118111B18C
:104150006FF0050403E0002408B100F021FE2046C2
:1041600010BD0000BC000020EFF3058058B9EFF34C
:10417000108040B909490868022801D030B109E02F
:10418000EFF3118030B16FF0050070470120086037
:10419000002070474FF0FF3070470000BC00002047
:1041A00010B5EFF3058060B9EFF3108048B90B4903
:1041B0000868022802D0012806D00BE0EFF3118036
:1041C00040B16FF0050010BD0220086000F050FE05
:1041D000002010BD4FF0FF3010BD0000BC000020DB
:1041E000F0B585B04FEA01034FF00004EFF305810D
:1041F0000394A1BBEFF3108189BB2149096802290F
:1042000002D1EFF3118151BB48B3802618218DF8FC
:10421000104004AD42B3176807B13D4697691FB11E
:1042200039467F1E382F02D21779FF0702D00020AF
:1042300005B0F0BD576907B1BE08D2F808C0BCF19F
:10424000000F0DD0D4685C2C18D312693AB137B185
:104250008DE806103246294601F065F903900DE01D
:10426000D7685FB912694AB903AACDE90012B2B2A0
:10427000294601F02BF9012800D003940398D7E7D1
:10428000BC0000202DE9F041134C0F46054666693D
:104290002068001D00F054FC681C07D137B121686C
:1042A000BDE8F0410D48091D00F09ABC2068354476
:1042B000B5424560216805D2A068BDE8F041091DFE
:1042C00000F076BC6068091D00F072FC206B85422E
:1042D00000D22563BDE8F0816C0000204C0E002068
:1042E0002DE9F041054600F087FC2D4C2069401C6B
:1042F000206120682B4F10B1E06930B32BE02560BE
:104300002069012827D1002606EB860007EB8000F4
:1043100000F040FC761C382EF6D3234800F03AFC1F
:104320002148143000F036FC1F48283000F032FCE1
:104330001D483C3000F02EFC1B48503000F02AFC99
:10434000194860601430A06005E02068E96AC06A1E
:10435000884200D82560E06A401CE0626864E86A30
:10436000A169884200D9A06100EB800007EB8000C2
:10437000291D00F035FC00F05FFCE06900280CD03E
:104380002068E96AC06A884207D208494FF0805025
:104390000860BFF34F8FBFF36F8FBDE8F08100005F
:1043A0006C0000209C090020FC0D002004ED00E0C2
:1043B00038B500F021FC104CA068C8B90F4800F0D7
:1043C000E9FB0E48143000F0E5FB0C482060143087
:1043D00060600A4B00202833009003F15002102146
:1043E0000A2000F017FEA06010B105A100F0A2FCA9
:1043F000BDE8384000F020BCA8000020600E00207E
:10440000546D72510000000030B4026C0B46002A5B
:104410000BD0C1681144C1604468A14201D3016856
:10442000C16030BC1846FBF7DBBE30BC70472DE9DD
:10443000F041856B174604460026026C82B1C7B175
:10444000E068FBF7CDFEE168206C091AE1602268A4
:10445000914202D26168081AE060022F16D017E07C
:104460002068A8B9606801F001F906460020606084
:104470000EE0A068FBF7B4FE216CA0680844A060C1
:104480006168884204D32068A06001E005B16D1E18
:104490006D1CA5633046BDE8F08110B5044690F868
:1044A000590058B101280CD002280FD0502080F3B9
:1044B0001188BFF34F8FBFF36F8FFEE7206B00F0C3
:1044C000CFFB2046BDE8104000F0CABB10BD000085
:1044D00010484FF44061420706D0C01D0D4920F03E
:1044E0000700411AC1F540610B4A00230144C2E9AB
:1044F00000030839103A21F0070111604B600B608E
:104500000B1AC0E9001393604FF000405360D06075
:104510007047000030160020D0000020144E154CCB
:10452000A6F29C474FF08058DFF84C9012E000BF95
:1045300000F062FBF068C568281D00F001FB2069EF
:10454000401E2061E068401EE06000F075FB2846D8
:10455000FFF7A3FFE0680028EAD138680128F9D9FD
:10456000C9F80080BFF34F8FBFF36F8FF2E70000F1
:10457000380E00206C00002004ED00E070B51D46F0
:10458000049C51B1C4F80020C4E90F010121204668
:1045900000F074FD84F84C5070BD2460F4E72DE900
:1045A000F0470E46DDE90984174682469100994698
:1045B000089DA522206BFBF725FE6FF00301206B01
:1045C00001EB8701084420F00707780707D0502047
:1045D00080F31188BFF34F8FBFF36F8FFEE7221870
:1045E000315C82F83410315C11B1401C1028F6D3D4
:1045F000002684F84360382D00D33725E562C4E9EE
:104600001356201D00F0D1FA04F1180000F0CDFA85
:104610002461C5F138006462A061666584F8586061
:104620004A465146384600F03BFA2060B8F1000F88
:1046300001D0C8F80040BDE8F087000030B511494E
:1046400000E011460A688242FBD34B685C18844242
:1046500003D1406818444860084643681C189442D7
:1046600009D1084C103C2468A24209D052681A446F
:1046700042600A6812680260814200D0086030BD62
:104680000460F9E7D000002070B5002441600B4DB4
:104690000061914206D8D11A8269914206D2011D69
:1046A000686807E09A4203D2994201D3012403E0EB
:1046B000011D286800F07CFA204670BDA80000208B
:1046C00010B5044600F098FAA06B28B15FF0000422
:1046D00000F0B2FA204610BD0124F9E730B589B0E8
:1046E000304D55E00498002806DADDE90601059A08
:1046F0009047049800284BDB069C606910B1201D90
:1047000000F01EFA02A800F0B9F8024604980A2840
:104710003ED2DFE800F00505053D263705053D26BC
:104720000598A169034601442046FFF7ADFF00B399
:10473000616A20468847E069012829D1002000905D
:104740000598A169002342181946204601F098F8FF
:1047500078B9502080F31188BFF34F8FBFF36F8F6C
:10476000FEE70598A06128B1811813462046FFF79F
:104770008BFF0DE0502080F31188BFF34F8FBFF304
:104780006F8FFEE794F82C0010B9204600F068FA0D
:10479000002204A9A86800F0C3FD0028A2D109B036
:1047A00030BD0000A80000202DE9FC410F46054661
:1047B00000F0A2FB01A800F061F80446019818B1CE
:1047C00000F0CCFFBDE8FC81224EAFB170680068FC
:1047D000A8B30027291B3A46B06800F0BFFA00F0E2
:1047E000BDFF0028EED11C494FF080500860BFF398
:1047F0004F8FBFF36F8FE5E7A542EBD800F0AEFF18
:1048000030682746C068C468201D00F099F9E06947
:10481000012810D1A0692B4641193A462046FFF7DE
:1048200033FF40B100200346014600902A4620464F
:1048300001F026F820B1616A20468847C2E707E008
:10484000502080F31188BFF34F8FBFF36F8FFEE7C7
:104850000127BFE7A800002004ED00E006484168FA
:10486000096829B14168C968C96849680163704726
:104870004FF0FF31FAE700006C00002070B50546EC
:1048800000F08AFE064E04463069844203D200F0EE
:1048900009F8012000E0002028602046346170BD46
:1048A000A8000020F8B5194D1FE0C068C46806686C
:1048B000201D00F045F9616A20468847E06901281B
:1048C00013D1A0693044B04206D924616060211D33
:1048D000286800F06DF908E00020034601460090CA
:1048E0003246204600F0CCFF38B128680168002924
:1048F000DBD16968C5E90010F8BD502080F311884C
:10490000BFF34F8FBFF36F8FFEE70000A8000020BA
:1049100008484068401C4FF0500080F3118804D0D4
:10492000BFF34F8FBFF36F8FFEE7BFF34F8FBFF320
:104930006F8FFEE7D8000020074C2068016841B166
:10494000C0680021D0F80000FFF72EFFFFF7C6FE79
:10495000F3E701210020F7E7A80000202DE9F0414E
:10496000044600F049F994F9455004F1240609E0A1
:10497000606A48B1304600F0B9FE08B100F03EFA76
:104980006D1E6DB2002DF3DC4FF0FF3684F84560EC
:1049900000F052F900F030F994F9445004F1100796
:1049A00009E0206948B1384600F0A0FE08B100F0E7
:1049B00025FA6D1E6DB2002DF3DC84F84460BDE86D
:1049C000F04100F039B900002DE9F041054600271B
:1049D00000F092FA314E306808B9FFF779FDF068BF
:1049E00005424BD1C5B3083568070ED005F0070066
:1049F000C0F108000544680707D0502080F31188F3
:104A0000BFF34F8FBFF36F8FFEE72DB37068854202
:104A100034D82248103001460C6801E020460C468C
:104A20006168A94202D221680029F7D131688C421D
:104A300024D007682168016060680837411B10298D
:104A40000FD96019420708D0502080F31188BFF3B6
:104A50004F8FBFF36F8FFEE710E041606560FFF797
:104A6000EDFD61687068401A7060B268904200D2D3
:104A7000B060F06801430020C4E9000100F06EFE60
:104A8000780707D0502080F31188BFF34F8FBFF312
:104A90006F8FFEE73846BDE8F0810000C0000020BF
:104AA00010B5031F4FF080741C601B1F21F0010123
:104AB0001960191F024B0B60143940380A6010BD91
:104AC0001149000804480021012201704160034996
:104AD0000348FDF717BD000000000020E80000209B
:104AE0008002002010B50B4C207880B1FCF7D0FB81
:104AF000616888420BD32178074800F011F8608084
:104B000000202070012204490448FDF7FBFC608866
:104B100010BD000000000020E800002080020020FE
:104B200010B50446062901D2002010BDFFF788FA0F
:104B300008B1012010BDE07801022079084310BDC2
:104B4000D0E9013201699A60D0E901235A604A68CC
:104B5000824201D182684A60002202610868401ED8
:104B60000860086870470000034B036003F15C00B5
:104B70000860802010607047780F0020044B0360AD
:104B800003F15C0008604FF4807010607047000013
:104B9000D411002000F108014FF0FF32C0E90112EA
:104BA000C16001610021016070470021016170470F
:104BB00030B50B685A1C02D000F1080202E002690D
:104BC00004E02246546825689D42FAD953684B6038
:104BD00099608A60516008610168491C016030BDBC
:104BE00042684A6093688B6093685960916008617D
:104BF0000168491C01607047502080F31188BFF3A1
:104C00004F8FBFF36F8F0A494868401C48600128E6
:104C10000CD10848006810F0FF0F07D0502080F337
:104C20001188BFF34F8FBFF36F8FFEE7704700000F
:104C3000D800002004ED00E00849486828B1401E73
:104C4000486001D180F311887047502080F31188AB
:104C5000BFF34F8FBFF36F8FFEE70000D800002037
:104C600070B5002827D0144DA0F108046168E868E9
:104C7000014207D1502080F31188BFF34F8FBFF35B
:104C80006F8FFEE722683AB1502080F31188BFF39E
:104C90004F8FBFF36F8FFEE78143616000F02CF907
:104CA00060686968084468602046FFF7C7FCBDE893
:104CB000704000F053BD70BDC00000204FF0E020F8
:104CC00000210161816105494FF47A720968B1FBE5
:104CD000F2F1491E4161072101617047680000201F
:104CE00010B5FBF757FA114910280ED300F1E02058
:104CF00090F8F0030A78904207D2502080F3118890
:104D0000BFF34F8FBFF36F8FFEE7094800688968D4
:104D100000F4E060884207D9502080F31188BFF387
:104D20004F8FBFF36F8FFEE710BD0000D80000204B
:104D30000CED00E010B5084B002200BF53F83240E4
:104D40001CB1521C082AF9D310BD43F8321003EBF2
:104D5000C201486010BD00005C09002070B5154616
:104D60000E460446FFF748FF94F944100020491C02
:104D700001D184F8440094F94510491C01D184F80C
:104D80004500FFF759FFA06B28B92A46314604F1C8
:104D9000240000F051F82046BDE87040FFF7DEBD6A
:104DA00010B5020014D00F48806B38B1502080F34A
:104DB0001188BFF34F8FBFF36F8FFEE700F09CF8B1
:104DC00000211046FFF75EFA00F0C8FC002807D16A
:104DD00005494FF080500860BFF34F8FBFF36F8FCE
:104DE00010BD00006C00002004ED00E002498A6A5A
:104DF00002604969416070476C0000200149012050
:104E0000486270476C00002010B50C4650B109494B
:104E100009681831FFF7CCFE2046BDE8104001219B
:104E2000FFF730BA502080F31188BFF34F8FBFF3E4
:104E30006F8FFEE76C00002070B514460D4668B118
:104E40000A4909681831FFF7CBFE0CB14FF0FF3566
:104E500021462846BDE87040FFF714BA502080F381
:104E60001188BFF34F8FBFF36F8FFEE76C000020F8
:104E700030B587B00024039405AA04A903A80494BC
:104E8000FFF772FEDDE903010094CDE90110002374
:104E900015A11748059A00F046FB164D00286863D7
:104EA0001FD000F0BDFC012809D0401C19D15020B2
:104EB00080F31188BFF34F8FBFF36F8FFEE7502051
:104EC00080F31188BFF34F8FBFF36F8F4FF0FF3028
:104ED00028630120E8616C6107B0BDE8304000F054
:104EE00045B807B030BD000049444C450000000003
:104EF0001D4500086C0000200248816B491C81633D
:104F0000704700006C000020164810B5816B11B18D
:104F10000121416210BD002141628169124A01E014
:104F2000B9B1491E01EB810352F82330002BF7D0B1
:104F300001EB810302EB830202F1080453685B6812
:104F40005360A34201D15B685360DA6802608161FB
:104F500010BD502080F31188BFF34F8FBFF36F8FC8
:104F6000FEE700006C0000209C0900201CB52649CB
:104F700008780190FF20087008788DF800009DF8EF
:104F800000009DF8002000F0F000904207D0502073
:104F900080F31188BFF34F8FBFF36F8FFEE79DF84B
:104FA00000001A4B00F0500018700720986005E0D0
:104FB0009DF8002052008DF80020401E9DF8002032
:104FC0001206F5D49860032807D0502080F311888A
:104FD000BFF34F8FBFF36F8FFEE74FF440709860C1
:104FE000019808700A48016841F470010160016885
:104FF00041F070410160FFF761FE00205860FBF74F
:1050000093F800201CBD000000E400E0D800002060
:1050100020ED00E038B5049D18B153B1CAB181B19B
:1050200020E0502080F31188BFF34F8FBFF36F8FC4
:10503000FEE7502080F31188BFF34F8FBFF36F8FCF
:10504000FEE7502080F31188BFF34F8FBFF36F8FBF
:10505000FEE739B1502080F31188BFF34F8FBFF3C3
:105060006F8FFEE750241C46012384F846302B4600
:105070000094FFF783FA204638BD000070B50D4656
:10508000040025D0FFF7B8FDD4E90F20216802FB0A
:10509000001161600021A1632168A1600A46D4E982
:1050A0000F01401E00FB0121E16021464FF0FF305F
:1050B00001F8440F487004F110008DB1FFF76AFD4C
:1050C00004F12400FFF766FDFFF7B6FD012070BD77
:1050D000502080F31188BFF34F8FBFF36F8FFEE72F
:1050E00021690029F0D000F001FB0028ECD0044930
:1050F0004FF080500860BFF34F8FBFF36F8FE3E72F
:1051000004ED00E02DE9FF4782B01D468A464FF0CE
:105110000008040003D0BAF1000F08D011E05020BD
:1051200080F31188BFF34F8FBFF36F8FFEE7206CC2
:1051300038B1502080F31188BFF34F8FBFF36F8FCA
:10514000FEE7022D0AD1E06B012807D0502080F342
:105150001188BFF34F8FBFF36F8FFEE700F00EFA99
:105160003F4F4FF000094FF0805648B9049838B1CE
:10517000502080F31188BFF34F8FBFF36F8FFEE78E
:10518000FFF73AFDA06BE16B884207D3022D05D0F3
:105190000498D0B1B8F1000F1AD01EE02A4651464B
:1051A0002046FFF744F9616A19B104F1240000F0C8
:1051B0009DFA20B13E60BFF34F8FBFF36F8FFFF7B3
:1051C0003BFD012006B0BDE8F087FFF735FD22E08A
:1051D0006846FFF70BFE4FF00108FFF72DFDFFF7C4
:1051E0008BFEFFF709FD94F94400401C01D184F8BF
:1051F000449094F94500401C01D184F84590FFF794
:105200001BFD04A9684600F027F930B12046FFF7DE
:10521000A5FB00F0A3FA0020D4E7FFF7EDFCA06B9C
:10522000E16B884213D1FFF707FD04F110000499E8
:10523000FFF7EAFD2046FFF791FB00F08FFA002808
:105240009ED13E60BFF34F8FBFF36F8F98E7FFF79C
:10525000F3FC2046FFF782FB00F080FA90E70000A5
:1052600004ED00E02DE9F0471F4690468946040012
:1052700003D0B9F1000F08D011E0502080F311885D
:10528000BFF34F8FBFF36F8FFEE7206C38B1502014
:1052900080F31188BFF34F8FBFF36F8FFEE7022FAC
:1052A0000AD1E06B012807D0502080F31188BFF3AA
:1052B0004F8FBFF36F8FFEE7FFF712FD5020EFF324
:1052C000118680F31188BFF34F8FBFF36F8FA06BF0
:1052D000E16B884206D3022F04D0002086F31188A8
:1052E000BDE8F08794F945503A4649462046FFF715
:1052F0009EF8681C04D06D1C84F845500120EDE731
:10530000606A0028FAD004F1240000F0EFF90028C8
:10531000F4D0B8F1000FF1D00121C8F80010EDE78A
:105320002DE9F747002683B08A46040003D0BAF17E
:10533000000F08D011E0502080F31188BFF34F8F89
:10534000BFF36F8FFEE7206C38B1502080F31188D7
:10535000BFF34F8FBFF36F8FFEE700F00FF9DFF859
:10536000F4804FF000094FF0805748B9059838B1E4
:10537000502080F31188BFF34F8FBFF36F8FFEE78C
:10538000FFF73AFCA56BC5B151462046FFF73CF844
:105390006D1EA563206950B104F1100000F0A6F95C
:1053A00028B1C8F80070BFF34F8FBFF36F8FFFF7BE
:1053B00043FC012006B0BDE8F087059808B11EB196
:1053C00006E0FFF739FC27E06846FFF70FFD0126EE
:1053D000FFF732FCFFF790FDFFF70EFC94F9440055
:1053E000401C01D184F8449094F94500401C01D13F
:1053F00084F84590FFF720FC05A9684600F02CF8DA
:10540000002820460AD0FFF7A9FA00F0A7F92046A5
:10541000FFF756F90028B3D00020CBE7FFF750F98B
:1054200090B104F124000599FFF7EEFC2046FFF748
:1054300095FA00F093F90028A2D1C8F80070BFF3E4
:105440004F8FBFF36F8F9BE72046FFF787FA00F07F
:1054500085F995E704ED00E02DE9F0410C460500E3
:1054600011D0C4B1FFF7C8FB174B5A696E682068AA
:10547000911B471C17D02F689B6A9F4219D09642F8
:1054800017D8012410E0502080F31188BFF34F8F0C
:10549000BFF36F8FFEE7502080F31188BFF34F8F6B
:1054A000BFF36F8FFEE70024FFF7C6FB2046BDE881
:1054B000F081884205D9401A20602846FFF796FC03
:1054C000F1E700202060DCE76C0000202DE9FF5FA1
:1054D0008346DDE90E87994616468A469000FFF717
:1054E00073FA05001CD05C20FFF76EFA040014D09C
:1054F0000020256384F85900CDE90240CDE90087FA
:105500004B46324651465846FFF749F82046FEF7CB
:10551000E7FE012004B0BDE8F09F2846FFF7A0FB9E
:105520004FF0FF30F6E7F0B585B0DDE90B640A9D7A
:10553000A6B1DCB15C2700972663022684F8596087
:10554000002604AFCDE90246CDE90057FFF727F862
:105550002046FEF7C5FE049805B0F0BD502080F34C
:105560001188BFF34F8FBFF36F8FFEE7502080F39A
:105570001188BFF34F8FBFF36F8FFEE70548C169F6
:1055800019B1806B18B100207047012070470220CC
:10559000704700006C00002001484069704700001F
:1055A0006C0000202DE9F0412E4C0027A06B40B18B
:1055B000206A401C2062606A00B101273846BDE8BD
:1055C000F0816669761C666113D16068006838B145
:1055D000502080F31188BFF34F8FBFF36F8FFEE72A
:1055E0006068A1686160A060A06A401CA062FFF7CB
:1055F00035F9206BDFF87080864209D36068006857
:1056000080B16068C068C568686886420DD2206352
:105610002068C06A00EB800158F821000128CAD92F
:105620000127C8E74FF0FF30F1E7281DFFF788FAA0
:10563000A86A18B105F11800FFF782FAE86AA169B3
:10564000884200D9A06100EB800108EB8100291D90
:10565000FFF7C6FAE86A2168C96A8842CED30127F3
:10566000CCE700006C0000209C09002070B504000D
:105670004FF0000133D01B4D2868844207D05020E2
:1056800080F31188BFF34F8FBFF36F8FFEE7206D5C
:1056900038B1401E2065E36CE26A9A421FD040B1E7
:1056A0001DE0502080F31188BFF34F8FBFF36F8F41
:1056B000FEE7201DFFF744FAE06CE062C0F138001D
:1056C000A061E06AA969884200D9A861064900EB97
:1056D000800001EB8000211DFFF782FA01210846BE
:1056E00070BD00006C0000209C09002070B5C068EF
:1056F000C46854B104F118000646FFF721FA144DAE
:10570000A86B50B13146134815E0502080F3118842
:10571000BFF34F8FBFF36F8FFEE7201DFFF710FA27
:10572000E06AA969884200D9A8610B4900EB8000B2
:1057300001EB8000211DFFF753FAE06A2968C96A6E
:10574000884202D90120686270BD002070BD00004F
:105750006C000020240E00209C0900202DE9F04759
:105760002C4D00242746A86B38B1FFF745FAA86BEB
:10577000401EA863A86B40B146E0502080F311881A
:10578000BFF34F8FBFF36F8FFEE72969224E0120D1
:10579000D1B3A6F5916980463068E0B1F068C4687D
:1057A00004F11800FFF7CCF9201DFFF7C9F9E06AF2
:1057B000A969884200D9A86100EB800109EB81004A
:1057C000211DFFF70DFAE06A2968C96A8842E3D310
:1057D000C5F82480E0E70CB1FFF740F82C6A4CB123
:1057E0004FEA0806FFF7DEFE00B16E62641EF9D1D3
:1057F00000202862686A38B1084901273807086024
:10580000BFF34F8FBFF36F8FFFF716FA3846BDE82F
:10581000F08700006C000020240E002004ED00E062
:1058200010B586B0FEF7C4FD114CA068B8B10020D9
:105830000390049005AA04A903A8FFF79FF9DDE9E6
:10584000032102208DE8070000230AA10B48059AD6
:10585000FFF769FEE06010B106B0012010BD5020D6
:1058600080F31188BFF34F8FBFF36F8FFEE7000007
:10587000A8000020546D7220537663003949000857
:105880002DE9FF411E46134602000A9D4FF000001D
:1058900016D0144CA768002F0FD0CDE90013029248
:1058A000062917DAFFF76AFE02284FF000030FD02F
:1058B00000226946A068FFF725FC04B0BDE8F0812E
:1058C000502080F31188BFF34F8FBFF36F8FFEE737
:1058D0002A46EEE70023324669463846FFF7C2FC07
:1058E000EBE70000A800002000C1814001C080411A
:1058F00001C0804100C1814001C0804100C18140A0
:1059000000C1814001C0804101C0804100C181408F
:1059100000C1814001C0804100C1814001C080417F
:1059200001C0804100C1814001C0804100C181406F
:1059300000C1814001C0804100C1814001C080415F
:1059400001C0804100C1814000C1814001C080414F
:1059500001C0804100C1814001C0804100C181403F
:1059600000C1814001C0804101C0804100C181402F
:1059700000C1814001C0804100C1814001C080411F
:1059800001C0804100C1814000C1814001C080410F
:1059900001C0804100C1814001C0804100C18140FF
:1059A00000C1814001C0804100C1814001C08041EF
:1059B00001C0804100C1814001C0804100C18140DF
:1059C00000C1814001C0804101C0804100C18140CF
:1059D00000C1814001C0804100C1814001C08041BF
:1059E00001C0804100C1814000C0C101C30302C2A7
:1059F000C60607C705C5C404CC0C0DCD0FCFCE0E0F
:105A00000ACACB0BC90908C8D81819D91BDBDA1A7E
:105A10001EDEDF1FDD1D1CDC14D4D515D71716D6EE
:105A2000D21213D311D1D010F03031F133F3F2325E
:105A300036F6F737F53534F43CFCFD3DFF3F3EFECE
:105A4000FA3A3BFB39F9F83828E8E929EB2B2AEA3E
:105A5000EE2E2FEF2DEDEC2CE42425E527E7E626AE
:105A600022E2E323E12120E0A06061A163A3A2621E
:105A700066A6A767A56564A46CACAD6DAF6F6EAE8E
:105A8000AA6A6BAB69A9A86878B8B979BB7B7ABAFE
:105A9000BE7E7FBF7DBDBC7CB47475B577B7B6766E
:105AA00072B2B373B17170B05090915193535292DE
:105AB00096565797559594549C5C5D9D5F9F9E5E4E
:105AC0005A9A9B5B99595898884849894B8B8A4ABE
:105AD0004E8E8F4F8D4D4C8C44848545874746862E
